{
  "_format": "hh-sol-artifact-1",
  "contractName": "VerifySignature",
  "sourceName": "contracts/VerifyHashedSignature.sol",
  "abi": [
    {
      "inputs": [
        {
          "internalType": "bytes32",
          "name": "_messageHash",
          "type": "bytes32"
        }
      ],
      "name": "getEthSignedMessageHash",
      "outputs": [
        {
          "internalType": "bytes32",
          "name": "",
          "type": "bytes32"
        }
      ],
      "stateMutability": "pure",
      "type": "function"
    },
    {
      "inputs": [
        {
          "internalType": "uint256",
          "name": "_landId",
          "type": "uint256"
        },
        {
          "internalType": "uint256",
          "name": "_avatarId",
          "type": "uint256"
        },
        {
          "internalType": "uint256",
          "name": "_missionId",
          "type": "uint256"
        }
      ],
      "name": "getMessageHash",
      "outputs": [
        {
          "internalType": "bytes32",
          "name": "",
          "type": "bytes32"
        }
      ],
      "stateMutability": "pure",
      "type": "function"
    },
    {
      "inputs": [
        {
          "internalType": "bytes32",
          "name": "_ethSignedMessageHash",
          "type": "bytes32"
        },
        {
          "internalType": "uint8",
          "name": "v",
          "type": "uint8"
        },
        {
          "internalType": "bytes32",
          "name": "r",
          "type": "bytes32"
        },
        {
          "internalType": "bytes32",
          "name": "s",
          "type": "bytes32"
        }
      ],
      "name": "recoverSigner",
      "outputs": [
        {
          "internalType": "address",
          "name": "",
          "type": "address"
        }
      ],
      "stateMutability": "view",
      "type": "function"
    },
    {
      "inputs": [
        {
          "internalType": "address",
          "name": "_signer",
          "type": "address"
        },
        {
          "internalType": "uint256",
          "name": "_landId",
          "type": "uint256"
        },
        {
          "internalType": "uint256",
          "name": "_avatarId",
          "type": "uint256"
        },
        {
          "internalType": "uint256",
          "name": "_missionId",
          "type": "uint256"
        },
        {
          "internalType": "uint8",
          "name": "v",
          "type": "uint8"
        },
        {
          "internalType": "bytes32",
          "name": "r",
          "type": "bytes32"
        },
        {
          "internalType": "bytes32",
          "name": "s",
          "type": "bytes32"
        }
      ],
      "name": "verify",
      "outputs": [
        {
          "internalType": "bool",
          "name": "",
          "type": "bool"
        }
      ],
      "stateMutability": "view",
      "type": "function"
    }
  ],
  "bytecode": "0x608060405234801561001057600080fd5b50610896806100206000396000f3fe608060405234801561001057600080fd5b506004361061004c5760003560e01c806346a0f2ca146100515780637648323914610081578063d45167d0146100b1578063fa540801146100e1575b600080fd5b61006b600480360381019061006691906104bf565b610111565b604051610078919061066d565b60405180910390f35b61009b60048036038101906100969190610395565b610147565b6040516100a89190610652565b60405180910390f35b6100cb60048036038101906100c6919061045c565b6101ad565b6040516100d89190610637565b60405180910390f35b6100fb60048036038101906100f69190610433565b61024c565b604051610108919061066d565b60405180910390f35b6000838383604051602001610128939291906105fa565b6040516020818303038152906040528051906020012090509392505050565b600080610155888888610111565b905060006101628261024c565b90508973ffffffffffffffffffffffffffffffffffffffff16610187828888886101ad565b73ffffffffffffffffffffffffffffffffffffffff161492505050979650505050505050565b600080600186868686604051600081526020016040526040516101d39493929190610688565b6020604051602081039080840390855afa1580156101f5573d6000803e3d6000fd5b5050506020604051035190506102406040518060400160405280600e81526020017f7369676e657220616464726573730000000000000000000000000000000000008152508261027c565b80915050949350505050565b60008160405160200161025f91906105d4565b604051602081830303815290604052805190602001209050919050565b61031482826040516024016102929291906106cd565b6040516020818303038152906040527f319af333000000000000000000000000000000000000000000000000000000007bffffffffffffffffffffffffffffffffffffffffffffffffffffffff19166020820180517bffffffffffffffffffffffffffffffffffffffffffffffffffffffff8381831617835250505050610318565b5050565b60008151905060006a636f6e736f6c652e6c6f679050602083016000808483855afa5050505050565b60008135905061035081610804565b92915050565b6000813590506103658161081b565b92915050565b60008135905061037a81610832565b92915050565b60008135905061038f81610849565b92915050565b600080600080600080600060e0888a0312156103b057600080fd5b60006103be8a828b01610341565b97505060206103cf8a828b0161036b565b96505060406103e08a828b0161036b565b95505060606103f18a828b0161036b565b94505060806104028a828b01610380565b93505060a06104138a828b01610356565b92505060c06104248a828b01610356565b91505092959891949750929550565b60006020828403121561044557600080fd5b600061045384828501610356565b91505092915050565b6000806000806080858703121561047257600080fd5b600061048087828801610356565b945050602061049187828801610380565b93505060406104a287828801610356565b92505060606104b387828801610356565b91505092959194509250565b6000806000606084860312156104d457600080fd5b60006104e28682870161036b565b93505060206104f38682870161036b565b92505060406105048682870161036b565b9150509250925092565b61051781610724565b82525050565b61052681610736565b82525050565b61053581610742565b82525050565b61054c61054782610742565b6107b6565b82525050565b600061055d826106fd565b6105678185610708565b9350610577818560208601610783565b610580816107ca565b840191505092915050565b6000610598601c83610719565b91506105a3826107db565b601c82019050919050565b6105bf6105ba8261076c565b6107c0565b82525050565b6105ce81610776565b82525050565b60006105df8261058b565b91506105eb828461053b565b60208201915081905092915050565b600061060682866105ae565b60208201915061061682856105ae565b60208201915061062682846105ae565b602082019150819050949350505050565b600060208201905061064c600083018461050e565b92915050565b6000602082019050610667600083018461051d565b92915050565b6000602082019050610682600083018461052c565b92915050565b600060808201905061069d600083018761052c565b6106aa60208301866105c5565b6106b7604083018561052c565b6106c4606083018461052c565b95945050505050565b600060408201905081810360008301526106e78185610552565b90506106f6602083018461050e565b9392505050565b600081519050919050565b600082825260208201905092915050565b600081905092915050565b600061072f8261074c565b9050919050565b60008115159050919050565b6000819050919050565b600073ffffffffffffffffffffffffffffffffffffffff82169050919050565b6000819050919050565b600060ff82169050919050565b60005b838110156107a1578082015181840152602081019050610786565b838111156107b0576000848401525b50505050565b6000819050919050565b6000819050919050565b6000601f19601f8301169050919050565b7f19457468657265756d205369676e6564204d6573736167653a0a333200000000600082015250565b61080d81610724565b811461081857600080fd5b50565b61082481610742565b811461082f57600080fd5b50565b61083b8161076c565b811461084657600080fd5b50565b61085281610776565b811461085d57600080fd5b5056fea264697066735822122032d4f4eee2af714f04a1183101bfe321ebf9f31bbb0d9dc6ca510f04eb9d039964736f6c63430008040033",
  "linkReferences": {},
  "deployedLinkReferences": {}
}