{
  "address": "0x5FbDB2315678afecb367f032d93F642f64180aa3",
  "abi": [
    {
      "inputs": [
        {
          "internalType": "uint256",
          "name": "total",
          "type": "uint256"
        }
      ],
      "stateMutability": "nonpayable",
      "type": "constructor"
    },
    {
      "anonymous": false,
      "inputs": [
        {
          "indexed": true,
          "internalType": "address",
          "name": "owner",
          "type": "address"
        },
        {
          "indexed": true,
          "internalType": "address",
          "name": "spender",
          "type": "address"
        },
        {
          "indexed": false,
          "internalType": "uint256",
          "name": "value",
          "type": "uint256"
        }
      ],
      "name": "Approval",
      "type": "event"
    },
    {
      "anonymous": false,
      "inputs": [
        {
          "indexed": true,
          "internalType": "address",
          "name": "previousOwner",
          "type": "address"
        },
        {
          "indexed": true,
          "internalType": "address",
          "name": "newOwner",
          "type": "address"
        }
      ],
      "name": "OwnershipTransferred",
      "type": "event"
    },
    {
      "anonymous": false,
      "inputs": [
        {
          "indexed": true,
          "internalType": "address",
          "name": "from",
          "type": "address"
        },
        {
          "indexed": true,
          "internalType": "address",
          "name": "to",
          "type": "address"
        },
        {
          "indexed": false,
          "internalType": "uint256",
          "name": "value",
          "type": "uint256"
        }
      ],
      "name": "Transfer",
      "type": "event"
    },
    {
      "inputs": [
        {
          "internalType": "address",
          "name": "owner",
          "type": "address"
        },
        {
          "internalType": "address",
          "name": "delegate",
          "type": "address"
        }
      ],
      "name": "allowance",
      "outputs": [
        {
          "internalType": "uint256",
          "name": "",
          "type": "uint256"
        }
      ],
      "stateMutability": "view",
      "type": "function"
    },
    {
      "inputs": [
        {
          "internalType": "address",
          "name": "delegate",
          "type": "address"
        },
        {
          "internalType": "uint256",
          "name": "numTokens",
          "type": "uint256"
        }
      ],
      "name": "approve",
      "outputs": [
        {
          "internalType": "bool",
          "name": "",
          "type": "bool"
        }
      ],
      "stateMutability": "nonpayable",
      "type": "function"
    },
    {
      "inputs": [
        {
          "internalType": "address",
          "name": "tokenOwner",
          "type": "address"
        }
      ],
      "name": "balanceOf",
      "outputs": [
        {
          "internalType": "uint256",
          "name": "",
          "type": "uint256"
        }
      ],
      "stateMutability": "view",
      "type": "function"
    },
    {
      "inputs": [],
      "name": "decimals",
      "outputs": [
        {
          "internalType": "uint8",
          "name": "",
          "type": "uint8"
        }
      ],
      "stateMutability": "view",
      "type": "function"
    },
    {
      "inputs": [
        {
          "internalType": "address",
          "name": "from",
          "type": "address"
        },
        {
          "internalType": "address",
          "name": "to",
          "type": "address"
        },
        {
          "internalType": "uint256",
          "name": "numTokens",
          "type": "uint256"
        }
      ],
      "name": "lock",
      "outputs": [],
      "stateMutability": "nonpayable",
      "type": "function"
    },
    {
      "inputs": [],
      "name": "name",
      "outputs": [
        {
          "internalType": "string",
          "name": "",
          "type": "string"
        }
      ],
      "stateMutability": "view",
      "type": "function"
    },
    {
      "inputs": [],
      "name": "owner",
      "outputs": [
        {
          "internalType": "address",
          "name": "",
          "type": "address"
        }
      ],
      "stateMutability": "view",
      "type": "function"
    },
    {
      "inputs": [],
      "name": "renounceOwnership",
      "outputs": [],
      "stateMutability": "nonpayable",
      "type": "function"
    },
    {
      "inputs": [
        {
          "internalType": "address",
          "name": "_stampost",
          "type": "address"
        }
      ],
      "name": "setStampost",
      "outputs": [],
      "stateMutability": "nonpayable",
      "type": "function"
    },
    {
      "inputs": [],
      "name": "stampost",
      "outputs": [
        {
          "internalType": "address",
          "name": "",
          "type": "address"
        }
      ],
      "stateMutability": "view",
      "type": "function"
    },
    {
      "inputs": [],
      "name": "symbol",
      "outputs": [
        {
          "internalType": "string",
          "name": "",
          "type": "string"
        }
      ],
      "stateMutability": "view",
      "type": "function"
    },
    {
      "inputs": [],
      "name": "totalSupply",
      "outputs": [
        {
          "internalType": "uint256",
          "name": "",
          "type": "uint256"
        }
      ],
      "stateMutability": "view",
      "type": "function"
    },
    {
      "inputs": [
        {
          "internalType": "address",
          "name": "receiver",
          "type": "address"
        },
        {
          "internalType": "uint256",
          "name": "numTokens",
          "type": "uint256"
        }
      ],
      "name": "transfer",
      "outputs": [
        {
          "internalType": "bool",
          "name": "",
          "type": "bool"
        }
      ],
      "stateMutability": "nonpayable",
      "type": "function"
    },
    {
      "inputs": [
        {
          "internalType": "address",
          "name": "owner",
          "type": "address"
        },
        {
          "internalType": "address",
          "name": "buyer",
          "type": "address"
        },
        {
          "internalType": "uint256",
          "name": "numTokens",
          "type": "uint256"
        }
      ],
      "name": "transferFrom",
      "outputs": [
        {
          "internalType": "bool",
          "name": "",
          "type": "bool"
        }
      ],
      "stateMutability": "nonpayable",
      "type": "function"
    },
    {
      "inputs": [
        {
          "internalType": "address",
          "name": "newOwner",
          "type": "address"
        }
      ],
      "name": "transferOwnership",
      "outputs": [],
      "stateMutability": "nonpayable",
      "type": "function"
    },
    {
      "inputs": [
        {
          "internalType": "address",
          "name": "from",
          "type": "address"
        },
        {
          "internalType": "address",
          "name": "to",
          "type": "address"
        },
        {
          "internalType": "uint256",
          "name": "numTokens",
          "type": "uint256"
        }
      ],
      "name": "unlock",
      "outputs": [],
      "stateMutability": "nonpayable",
      "type": "function"
    }
  ],
  "transactionHash": "0xa4dc7bb2d865c23f99b1cd6ef913b8cd48ea58556c01a1037c4d2fb18fa362de",
  "args": [
    "1000000000000000000000"
  ],
  "numDeployments": 1,
  "solcInputHash": "8375658ef646c6df754d8e273d637448",
  "bytecode": "0x60806040523480156200001157600080fd5b5060405162001ddf38038062001ddf83398181016040528101906200003791906200018e565b620000576200004b620000ab60201b60201c565b620000b360201b60201c565b80600681905550600654600260003373ffffffffffffffffffffffffffffffffffffffff1673ffffffffffffffffffffffffffffffffffffffff1681526020019081526020016000208190555050620001de565b600033905090565b60008060009054906101000a900473ffffffffffffffffffffffffffffffffffffffff169050816000806101000a81548173ffffffffffffffffffffffffffffffffffffffff021916908373ffffffffffffffffffffffffffffffffffffffff1602179055508173ffffffffffffffffffffffffffffffffffffffff168173ffffffffffffffffffffffffffffffffffffffff167f8be0079c531659141344cd1fd0a4f28419497f9722a3daafe3b4186f6b6457e060405160405180910390a35050565b6000815190506200018881620001c4565b92915050565b600060208284031215620001a157600080fd5b6000620001b18482850162000177565b91505092915050565b6000819050919050565b620001cf81620001ba565b8114620001db57600080fd5b50565b611bf180620001ee6000396000f3fe608060405234801561001057600080fd5b50600436106101005760003560e01c8063715018a611610097578063a24894a911610066578063a24894a91461028b578063a9059cbb146102a7578063dd62ed3e146102d7578063f2fde38b1461030757610100565b8063715018a6146102295780637750c9f0146102335780638da5cb5b1461024f57806395d89b411461026d57610100565b806323b872dd116100d357806323b872dd1461018f578063313ce567146101bf57806359508f8f146101dd57806370a08231146101f957610100565b806306fdde0314610105578063095ea7b31461012357806313906ba81461015357806318160ddd14610171575b600080fd5b61010d610323565b60405161011a919061187d565b60405180910390f35b61013d6004803603810190610138919061170a565b61035c565b60405161014a9190611862565b60405180910390f35b61015b61044e565b6040516101689190611847565b60405180910390f35b610179610474565b604051610186919061191f565b60405180910390f35b6101a960048036038101906101a491906116bb565b61047e565b6040516101b69190611862565b60405180910390f35b6101c76107fe565b6040516101d4919061193a565b60405180910390f35b6101f760048036038101906101f291906116bb565b610803565b005b610213600480360381019061020e9190611656565b610bd4565b604051610220919061191f565b60405180910390f35b610231610c1d565b005b61024d600480360381019061024891906116bb565b610ca5565b005b610257611039565b6040516102649190611847565b60405180910390f35b610275611062565b604051610282919061187d565b60405180910390f35b6102a560048036038101906102a09190611656565b61109b565b005b6102c160048036038101906102bc919061170a565b61115b565b6040516102ce9190611862565b60405180910390f35b6102f160048036038101906102ec919061167f565b611342565b6040516102fe919061191f565b60405180910390f35b610321600480360381019061031c9190611656565b6113c9565b005b6040518060400160405280600e81526020017f5374616d706f737420546f6b656e00000000000000000000000000000000000081525081565b600081600360003373ffffffffffffffffffffffffffffffffffffffff1673ffffffffffffffffffffffffffffffffffffffff16815260200190815260200160002060008573ffffffffffffffffffffffffffffffffffffffff1673ffffffffffffffffffffffffffffffffffffffff168152602001908152602001600020819055508273ffffffffffffffffffffffffffffffffffffffff163373ffffffffffffffffffffffffffffffffffffffff167f8c5be1e5ebec7d5bd14f71427d1e84f3dd0314c0f7b2291e5b200ac8c7c3b9258460405161043c919061191f565b60405180910390a36001905092915050565b600160009054906101000a900473ffffffffffffffffffffffffffffffffffffffff1681565b6000600654905090565b6000600260008573ffffffffffffffffffffffffffffffffffffffff1673ffffffffffffffffffffffffffffffffffffffff168152602001908152602001600020548211156104cc57600080fd5b600360008573ffffffffffffffffffffffffffffffffffffffff1673ffffffffffffffffffffffffffffffffffffffff16815260200190815260200160002060003373ffffffffffffffffffffffffffffffffffffffff1673ffffffffffffffffffffffffffffffffffffffff1681526020019081526020016000205482111561055557600080fd5b6105a782600260008773ffffffffffffffffffffffffffffffffffffffff1673ffffffffffffffffffffffffffffffffffffffff168152602001908152602001600020546114c190919063ffffffff16565b600260008673ffffffffffffffffffffffffffffffffffffffff1673ffffffffffffffffffffffffffffffffffffffff1681526020019081526020016000208190555061067982600360008773ffffffffffffffffffffffffffffffffffffffff1673ffffffffffffffffffffffffffffffffffffffff16815260200190815260200160002060003373ffffffffffffffffffffffffffffffffffffffff1673ffffffffffffffffffffffffffffffffffffffff168152602001908152602001600020546114c190919063ffffffff16565b600360008673ffffffffffffffffffffffffffffffffffffffff1673ffffffffffffffffffffffffffffffffffffffff16815260200190815260200160002060003373ffffffffffffffffffffffffffffffffffffffff1673ffffffffffffffffffffffffffffffffffffffff1681526020019081526020016000208190555061074b82600260008673ffffffffffffffffffffffffffffffffffffffff1673ffffffffffffffffffffffffffffffffffffffff1681526020019081526020016000205461150e90919063ffffffff16565b600260008573ffffffffffffffffffffffffffffffffffffffff1673ffffffffffffffffffffffffffffffffffffffff168152602001908152602001600020819055508273ffffffffffffffffffffffffffffffffffffffff168473ffffffffffffffffffffffffffffffffffffffff167fddf252ad1be2c89b69c2b068fc378daa952ba7f163c4a11628f55a4df523b3ef846040516107eb919061191f565b60405180910390a3600190509392505050565b601281565b600160009054906101000a900473ffffffffffffffffffffffffffffffffffffffff1673ffffffffffffffffffffffffffffffffffffffff163373ffffffffffffffffffffffffffffffffffffffff161461085d57600080fd5b600460008473ffffffffffffffffffffffffffffffffffffffff1673ffffffffffffffffffffffffffffffffffffffff16815260200190815260200160002060008373ffffffffffffffffffffffffffffffffffffffff1673ffffffffffffffffffffffffffffffffffffffff1681526020019081526020016000205481111561091c576040517f08c379a0000000000000000000000000000000000000000000000000000000008152600401610913906118ff565b60405180910390fd5b61096e81600260008573ffffffffffffffffffffffffffffffffffffffff1673ffffffffffffffffffffffffffffffffffffffff1681526020019081526020016000205461150e90919063ffffffff16565b600260008473ffffffffffffffffffffffffffffffffffffffff1673ffffffffffffffffffffffffffffffffffffffff16815260200190815260200160002081905550610a4081600460008673ffffffffffffffffffffffffffffffffffffffff1673ffffffffffffffffffffffffffffffffffffffff16815260200190815260200160002060008573ffffffffffffffffffffffffffffffffffffffff1673ffffffffffffffffffffffffffffffffffffffff168152602001908152602001600020546114c190919063ffffffff16565b600460008573ffffffffffffffffffffffffffffffffffffffff1673ffffffffffffffffffffffffffffffffffffffff16815260200190815260200160002060008473ffffffffffffffffffffffffffffffffffffffff1673ffffffffffffffffffffffffffffffffffffffff16815260200190815260200160002081905550610b4f81600560008573ffffffffffffffffffffffffffffffffffffffff1673ffffffffffffffffffffffffffffffffffffffff16815260200190815260200160002060008673ffffffffffffffffffffffffffffffffffffffff1673ffffffffffffffffffffffffffffffffffffffff168152602001908152602001600020546114c190919063ffffffff16565b600560008473ffffffffffffffffffffffffffffffffffffffff1673ffffffffffffffffffffffffffffffffffffffff16815260200190815260200160002060008573ffffffffffffffffffffffffffffffffffffffff1673ffffffffffffffffffffffffffffffffffffffff16815260200190815260200160002081905550505050565b6000600260008373ffffffffffffffffffffffffffffffffffffffff1673ffffffffffffffffffffffffffffffffffffffff168152602001908152602001600020549050919050565b610c25611560565b73ffffffffffffffffffffffffffffffffffffffff16610c43611039565b73ffffffffffffffffffffffffffffffffffffffff1614610c99576040517f08c379a0000000000000000000000000000000000000000000000000000000008152600401610c90906118df565b60405180910390fd5b610ca36000611568565b565b600160009054906101000a900473ffffffffffffffffffffffffffffffffffffffff1673ffffffffffffffffffffffffffffffffffffffff163373ffffffffffffffffffffffffffffffffffffffff1614610cff57600080fd5b600260008473ffffffffffffffffffffffffffffffffffffffff1673ffffffffffffffffffffffffffffffffffffffff16815260200190815260200160002054811115610d81576040517f08c379a0000000000000000000000000000000000000000000000000000000008152600401610d78906118bf565b60405180910390fd5b610dd381600260008673ffffffffffffffffffffffffffffffffffffffff1673ffffffffffffffffffffffffffffffffffffffff168152602001908152602001600020546114c190919063ffffffff16565b600260008573ffffffffffffffffffffffffffffffffffffffff1673ffffffffffffffffffffffffffffffffffffffff16815260200190815260200160002081905550610ea581600460008673ffffffffffffffffffffffffffffffffffffffff1673ffffffffffffffffffffffffffffffffffffffff16815260200190815260200160002060008573ffffffffffffffffffffffffffffffffffffffff1673ffffffffffffffffffffffffffffffffffffffff1681526020019081526020016000205461150e90919063ffffffff16565b600460008573ffffffffffffffffffffffffffffffffffffffff1673ffffffffffffffffffffffffffffffffffffffff16815260200190815260200160002060008473ffffffffffffffffffffffffffffffffffffffff1673ffffffffffffffffffffffffffffffffffffffff16815260200190815260200160002081905550610fb481600560008573ffffffffffffffffffffffffffffffffffffffff1673ffffffffffffffffffffffffffffffffffffffff16815260200190815260200160002060008673ffffffffffffffffffffffffffffffffffffffff1673ffffffffffffffffffffffffffffffffffffffff1681526020019081526020016000205461150e90919063ffffffff16565b600560008473ffffffffffffffffffffffffffffffffffffffff1673ffffffffffffffffffffffffffffffffffffffff16815260200190815260200160002060008573ffffffffffffffffffffffffffffffffffffffff1673ffffffffffffffffffffffffffffffffffffffff16815260200190815260200160002081905550505050565b60008060009054906101000a900473ffffffffffffffffffffffffffffffffffffffff16905090565b6040518060400160405280600581526020017f5354414d5000000000000000000000000000000000000000000000000000000081525081565b6110a3611560565b73ffffffffffffffffffffffffffffffffffffffff166110c1611039565b73ffffffffffffffffffffffffffffffffffffffff1614611117576040517f08c379a000000000000000000000000000000000000000000000000000000000815260040161110e906118df565b60405180910390fd5b80600160006101000a81548173ffffffffffffffffffffffffffffffffffffffff021916908373ffffffffffffffffffffffffffffffffffffffff16021790555050565b6000600260003373ffffffffffffffffffffffffffffffffffffffff1673ffffffffffffffffffffffffffffffffffffffff168152602001908152602001600020548211156111a957600080fd5b6111fb82600260003373ffffffffffffffffffffffffffffffffffffffff1673ffffffffffffffffffffffffffffffffffffffff168152602001908152602001600020546114c190919063ffffffff16565b600260003373ffffffffffffffffffffffffffffffffffffffff1673ffffffffffffffffffffffffffffffffffffffff1681526020019081526020016000208190555061129082600260008673ffffffffffffffffffffffffffffffffffffffff1673ffffffffffffffffffffffffffffffffffffffff1681526020019081526020016000205461150e90919063ffffffff16565b600260008573ffffffffffffffffffffffffffffffffffffffff1673ffffffffffffffffffffffffffffffffffffffff168152602001908152602001600020819055508273ffffffffffffffffffffffffffffffffffffffff163373ffffffffffffffffffffffffffffffffffffffff167fddf252ad1be2c89b69c2b068fc378daa952ba7f163c4a11628f55a4df523b3ef84604051611330919061191f565b60405180910390a36001905092915050565b6000600360008473ffffffffffffffffffffffffffffffffffffffff1673ffffffffffffffffffffffffffffffffffffffff16815260200190815260200160002060008373ffffffffffffffffffffffffffffffffffffffff1673ffffffffffffffffffffffffffffffffffffffff16815260200190815260200160002054905092915050565b6113d1611560565b73ffffffffffffffffffffffffffffffffffffffff166113ef611039565b73ffffffffffffffffffffffffffffffffffffffff1614611445576040517f08c379a000000000000000000000000000000000000000000000000000000000815260040161143c906118df565b60405180910390fd5b600073ffffffffffffffffffffffffffffffffffffffff168173ffffffffffffffffffffffffffffffffffffffff1614156114b5576040517f08c379a00000000000000000000000000000000000000000000000000000000081526004016114ac9061189f565b60405180910390fd5b6114be81611568565b50565b6000828211156114fa577f4e487b7100000000000000000000000000000000000000000000000000000000600052600160045260246000fd5b818361150691906119c7565b905092915050565b600080828461151d9190611971565b905083811015611556577f4e487b7100000000000000000000000000000000000000000000000000000000600052600160045260246000fd5b8091505092915050565b600033905090565b60008060009054906101000a900473ffffffffffffffffffffffffffffffffffffffff169050816000806101000a81548173ffffffffffffffffffffffffffffffffffffffff021916908373ffffffffffffffffffffffffffffffffffffffff1602179055508173ffffffffffffffffffffffffffffffffffffffff168173ffffffffffffffffffffffffffffffffffffffff167f8be0079c531659141344cd1fd0a4f28419497f9722a3daafe3b4186f6b6457e060405160405180910390a35050565b60008135905061163b81611b8d565b92915050565b60008135905061165081611ba4565b92915050565b60006020828403121561166857600080fd5b60006116768482850161162c565b91505092915050565b6000806040838503121561169257600080fd5b60006116a08582860161162c565b92505060206116b18582860161162c565b9150509250929050565b6000806000606084860312156116d057600080fd5b60006116de8682870161162c565b93505060206116ef8682870161162c565b925050604061170086828701611641565b9150509250925092565b6000806040838503121561171d57600080fd5b600061172b8582860161162c565b925050602061173c85828601611641565b9150509250929050565b61174f816119fb565b82525050565b61175e81611a0d565b82525050565b600061176f82611955565b6117798185611960565b9350611789818560208601611a50565b61179281611ab2565b840191505092915050565b60006117aa602683611960565b91506117b582611ac3565b604082019050919050565b60006117cd601a83611960565b91506117d882611b12565b602082019050919050565b60006117f0602083611960565b91506117fb82611b3b565b602082019050919050565b6000611813601b83611960565b915061181e82611b64565b602082019050919050565b61183281611a39565b82525050565b61184181611a43565b82525050565b600060208201905061185c6000830184611746565b92915050565b60006020820190506118776000830184611755565b92915050565b600060208201905081810360008301526118978184611764565b905092915050565b600060208201905081810360008301526118b88161179d565b9050919050565b600060208201905081810360008301526118d8816117c0565b9050919050565b600060208201905081810360008301526118f8816117e3565b9050919050565b6000602082019050818103600083015261191881611806565b9050919050565b60006020820190506119346000830184611829565b92915050565b600060208201905061194f6000830184611838565b92915050565b600081519050919050565b600082825260208201905092915050565b600061197c82611a39565b915061198783611a39565b9250827fffffffffffffffffffffffffffffffffffffffffffffffffffffffffffffffff038211156119bc576119bb611a83565b5b828201905092915050565b60006119d282611a39565b91506119dd83611a39565b9250828210156119f0576119ef611a83565b5b828203905092915050565b6000611a0682611a19565b9050919050565b60008115159050919050565b600073ffffffffffffffffffffffffffffffffffffffff82169050919050565b6000819050919050565b600060ff82169050919050565b60005b83811015611a6e578082015181840152602081019050611a53565b83811115611a7d576000848401525b50505050565b7f4e487b7100000000000000000000000000000000000000000000000000000000600052601160045260246000fd5b6000601f19601f8301169050919050565b7f4f776e61626c653a206e6577206f776e657220697320746865207a65726f206160008201527f6464726573730000000000000000000000000000000000000000000000000000602082015250565b7f4e6f7420656e6f7567682062616c616e636520746f206c6f636b000000000000600082015250565b7f4f776e61626c653a2063616c6c6572206973206e6f7420746865206f776e6572600082015250565b7f4e6f7420656e6f756768206c6f636b656420746f20756e6c6f636b0000000000600082015250565b611b96816119fb565b8114611ba157600080fd5b50565b611bad81611a39565b8114611bb857600080fd5b5056fea26469706673582212207d513145acc54b85b4896fc8412816c2bce59d147762c4495a8dcfb320578fd264736f6c63430008040033",
  "devdoc": {
    "kind": "dev",
    "methods": {
      "owner()": {
        "details": "Returns the address of the current owner."
      },
      "renounceOwnership()": {
        "details": "Leaves the contract without owner. It will not be possible to call `onlyOwner` functions anymore. Can only be called by the current owner. NOTE: Renouncing ownership will leave the contract without an owner, thereby removing any functionality that is only available to the owner."
      },
      "totalSupply()": {
        "details": "Returns the amount of tokens in existence."
      },
      "transferOwnership(address)": {
        "details": "Transfers ownership of the contract to a new account (`newOwner`). Can only be called by the current owner."
      }
    },
    "version": 1
  },
  "userdoc": {
    "kind": "user",
    "methods": {},
    "version": 1
  },
  "storageLayout": {
    "storage": [
      {
        "astId": 7,
        "contract": "contracts/STAMP.sol:STAMP",
        "label": "_owner",
        "offset": 0,
        "slot": "0",
        "type": "t_address"
      },
      {
        "astId": 227,
        "contract": "contracts/STAMP.sol:STAMP",
        "label": "stampost",
        "offset": 0,
        "slot": "1",
        "type": "t_address"
      },
      {
        "astId": 231,
        "contract": "contracts/STAMP.sol:STAMP",
        "label": "balances",
        "offset": 0,
        "slot": "2",
        "type": "t_mapping(t_address,t_uint256)"
      },
      {
        "astId": 237,
        "contract": "contracts/STAMP.sol:STAMP",
        "label": "allowed",
        "offset": 0,
        "slot": "3",
        "type": "t_mapping(t_address,t_mapping(t_address,t_uint256))"
      },
      {
        "astId": 243,
        "contract": "contracts/STAMP.sol:STAMP",
        "label": "locked",
        "offset": 0,
        "slot": "4",
        "type": "t_mapping(t_address,t_mapping(t_address,t_uint256))"
      },
      {
        "astId": 249,
        "contract": "contracts/STAMP.sol:STAMP",
        "label": "waiting",
        "offset": 0,
        "slot": "5",
        "type": "t_mapping(t_address,t_mapping(t_address,t_uint256))"
      },
      {
        "astId": 251,
        "contract": "contracts/STAMP.sol:STAMP",
        "label": "totalSupply_",
        "offset": 0,
        "slot": "6",
        "type": "t_uint256"
      }
    ],
    "types": {
      "t_address": {
        "encoding": "inplace",
        "label": "address",
        "numberOfBytes": "20"
      },
      "t_mapping(t_address,t_mapping(t_address,t_uint256))": {
        "encoding": "mapping",
        "key": "t_address",
        "label": "mapping(address => mapping(address => uint256))",
        "numberOfBytes": "32",
        "value": "t_mapping(t_address,t_uint256)"
      },
      "t_mapping(t_address,t_uint256)": {
        "encoding": "mapping",
        "key": "t_address",
        "label": "mapping(address => uint256)",
        "numberOfBytes": "32",
        "value": "t_uint256"
      },
      "t_uint256": {
        "encoding": "inplace",
        "label": "uint256",
        "numberOfBytes": "32"
      }
    }
  }
}