{
  "address": "0xE5D5e441285f49F09303bb22f5eB1eB08fe657Db",
  "abi": [
    {
      "inputs": [],
      "stateMutability": "nonpayable",
      "type": "constructor"
    },
    {
      "anonymous": false,
      "inputs": [
        {
          "indexed": true,
          "internalType": "address",
          "name": "previousOwner",
          "type": "address"
        },
        {
          "indexed": true,
          "internalType": "address",
          "name": "newOwner",
          "type": "address"
        }
      ],
      "name": "OwnershipTransferred",
      "type": "event"
    },
    {
      "inputs": [
        {
          "internalType": "uint256",
          "name": "requestId",
          "type": "uint256"
        },
        {
          "internalType": "string",
          "name": "publicKey",
          "type": "string"
        }
      ],
      "name": "acceptPublicKeyRequest",
      "outputs": [],
      "stateMutability": "nonpayable",
      "type": "function"
    },
    {
      "inputs": [
        {
          "internalType": "address",
          "name": "user",
          "type": "address"
        }
      ],
      "name": "getAcceptedPublicKey",
      "outputs": [
        {
          "internalType": "string",
          "name": "",
          "type": "string"
        }
      ],
      "stateMutability": "view",
      "type": "function"
    },
    {
      "inputs": [
        {
          "internalType": "uint256",
          "name": "letterId",
          "type": "uint256"
        }
      ],
      "name": "getMail",
      "outputs": [
        {
          "components": [
            {
              "internalType": "uint256",
              "name": "timestamp",
              "type": "uint256"
            },
            {
              "internalType": "address",
              "name": "from",
              "type": "address"
            },
            {
              "internalType": "address",
              "name": "to",
              "type": "address"
            },
            {
              "internalType": "string",
              "name": "message",
              "type": "string"
            },
            {
              "internalType": "uint256",
              "name": "stamps",
              "type": "uint256"
            },
            {
              "internalType": "bool",
              "name": "opened",
              "type": "bool"
            },
            {
              "internalType": "bool",
              "name": "isSet",
              "type": "bool"
            }
          ],
          "internalType": "struct Stampost.Letter",
          "name": "letter",
          "type": "tuple"
        }
      ],
      "stateMutability": "nonpayable",
      "type": "function"
    },
    {
      "inputs": [],
      "name": "getOutcomingRequests",
      "outputs": [
        {
          "components": [
            {
              "internalType": "uint256",
              "name": "timestamp",
              "type": "uint256"
            },
            {
              "internalType": "address",
              "name": "from",
              "type": "address"
            },
            {
              "internalType": "address",
              "name": "to",
              "type": "address"
            },
            {
              "internalType": "uint256",
              "name": "stamps",
              "type": "uint256"
            },
            {
              "internalType": "enum Stampost.PublicKeyRequestStatus",
              "name": "status",
              "type": "uint8"
            }
          ],
          "internalType": "struct Stampost.PublicKeyRequest[]",
          "name": "",
          "type": "tuple[]"
        }
      ],
      "stateMutability": "view",
      "type": "function"
    },
    {
      "inputs": [
        {
          "internalType": "address",
          "name": "user",
          "type": "address"
        }
      ],
      "name": "getPublicKey",
      "outputs": [
        {
          "internalType": "string",
          "name": "",
          "type": "string"
        }
      ],
      "stateMutability": "view",
      "type": "function"
    },
    {
      "inputs": [
        {
          "internalType": "address",
          "name": "_recepient",
          "type": "address"
        }
      ],
      "name": "getRequestsForAddress",
      "outputs": [
        {
          "components": [
            {
              "internalType": "uint256",
              "name": "timestamp",
              "type": "uint256"
            },
            {
              "internalType": "address",
              "name": "from",
              "type": "address"
            },
            {
              "internalType": "address",
              "name": "to",
              "type": "address"
            },
            {
              "internalType": "uint256",
              "name": "stamps",
              "type": "uint256"
            },
            {
              "internalType": "enum Stampost.PublicKeyRequestStatus",
              "name": "status",
              "type": "uint8"
            }
          ],
          "internalType": "struct Stampost.PublicKeyRequest[]",
          "name": "",
          "type": "tuple[]"
        }
      ],
      "stateMutability": "view",
      "type": "function"
    },
    {
      "inputs": [],
      "name": "getStampTokenAddress",
      "outputs": [
        {
          "internalType": "address",
          "name": "",
          "type": "address"
        }
      ],
      "stateMutability": "view",
      "type": "function"
    },
    {
      "inputs": [],
      "name": "incomingMail",
      "outputs": [
        {
          "components": [
            {
              "internalType": "uint256",
              "name": "timestamp",
              "type": "uint256"
            },
            {
              "internalType": "address",
              "name": "from",
              "type": "address"
            },
            {
              "internalType": "address",
              "name": "to",
              "type": "address"
            },
            {
              "internalType": "string",
              "name": "message",
              "type": "string"
            },
            {
              "internalType": "uint256",
              "name": "stamps",
              "type": "uint256"
            },
            {
              "internalType": "bool",
              "name": "opened",
              "type": "bool"
            },
            {
              "internalType": "bool",
              "name": "isSet",
              "type": "bool"
            }
          ],
          "internalType": "struct Stampost.Letter[]",
          "name": "incomingLetters",
          "type": "tuple[]"
        }
      ],
      "stateMutability": "view",
      "type": "function"
    },
    {
      "inputs": [],
      "name": "outcomingMail",
      "outputs": [
        {
          "components": [
            {
              "internalType": "uint256",
              "name": "timestamp",
              "type": "uint256"
            },
            {
              "internalType": "address",
              "name": "from",
              "type": "address"
            },
            {
              "internalType": "address",
              "name": "to",
              "type": "address"
            },
            {
              "internalType": "string",
              "name": "message",
              "type": "string"
            },
            {
              "internalType": "uint256",
              "name": "stamps",
              "type": "uint256"
            },
            {
              "internalType": "bool",
              "name": "opened",
              "type": "bool"
            },
            {
              "internalType": "bool",
              "name": "isSet",
              "type": "bool"
            }
          ],
          "internalType": "struct Stampost.Letter[]",
          "name": "outcomingLetters",
          "type": "tuple[]"
        }
      ],
      "stateMutability": "view",
      "type": "function"
    },
    {
      "inputs": [],
      "name": "owner",
      "outputs": [
        {
          "internalType": "address",
          "name": "",
          "type": "address"
        }
      ],
      "stateMutability": "view",
      "type": "function"
    },
    {
      "inputs": [
        {
          "internalType": "address",
          "name": "",
          "type": "address"
        }
      ],
      "name": "publicKeys",
      "outputs": [
        {
          "internalType": "string",
          "name": "key",
          "type": "string"
        },
        {
          "internalType": "bool",
          "name": "isSet",
          "type": "bool"
        }
      ],
      "stateMutability": "view",
      "type": "function"
    },
    {
      "inputs": [],
      "name": "renounceOwnership",
      "outputs": [],
      "stateMutability": "nonpayable",
      "type": "function"
    },
    {
      "inputs": [
        {
          "internalType": "uint256",
          "name": "_chainId",
          "type": "uint256"
        },
        {
          "internalType": "address",
          "name": "_recepient",
          "type": "address"
        },
        {
          "internalType": "uint256",
          "name": "_stamps",
          "type": "uint256"
        },
        {
          "internalType": "string",
          "name": "_publicKey",
          "type": "string"
        }
      ],
      "name": "requestPublicKey",
      "outputs": [],
      "stateMutability": "nonpayable",
      "type": "function"
    },
    {
      "inputs": [
        {
          "internalType": "uint256",
          "name": "chainId",
          "type": "uint256"
        },
        {
          "internalType": "address",
          "name": "_recepient",
          "type": "address"
        },
        {
          "internalType": "string",
          "name": "_message",
          "type": "string"
        },
        {
          "internalType": "uint256",
          "name": "_stamps",
          "type": "uint256"
        }
      ],
      "name": "sendMail",
      "outputs": [],
      "stateMutability": "nonpayable",
      "type": "function"
    },
    {
      "inputs": [
        {
          "internalType": "address",
          "name": "_stamp_token_address",
          "type": "address"
        }
      ],
      "name": "setStampToken",
      "outputs": [],
      "stateMutability": "nonpayable",
      "type": "function"
    },
    {
      "inputs": [],
      "name": "stamp_token_address",
      "outputs": [
        {
          "internalType": "address",
          "name": "",
          "type": "address"
        }
      ],
      "stateMutability": "view",
      "type": "function"
    },
    {
      "inputs": [
        {
          "internalType": "address",
          "name": "newOwner",
          "type": "address"
        }
      ],
      "name": "transferOwnership",
      "outputs": [],
      "stateMutability": "nonpayable",
      "type": "function"
    }
  ],
  "transactionHash": "0xb3f74b33056a9fe6bcc346d4edcc2092efb3ad6057f0a8a2c46104457a5613dc",
  "args": [],
  "numDeployments": 2,
  "solcInputHash": "7a1f3813d02c2d16eb2e8ccb1d118a8d",
  "bytecode": "0x60806040526729a2241af62c00006002553480156200001d57600080fd5b506200003e620000326200008f60201b60201c565b6200009760201b60201c565b620000896040518060400160405280600b81526020017f636f6e7374727563746f720000000000000000000000000000000000000000008152506200015b60201b62002a111760201c565b620002ef565b600033905090565b60008060009054906101000a900473ffffffffffffffffffffffffffffffffffffffff169050816000806101000a81548173ffffffffffffffffffffffffffffffffffffffff021916908373ffffffffffffffffffffffffffffffffffffffff1602179055508173ffffffffffffffffffffffffffffffffffffffff168173ffffffffffffffffffffffffffffffffffffffff167f8be0079c531659141344cd1fd0a4f28419497f9722a3daafe3b4186f6b6457e060405160405180910390a35050565b620001fb8160405160240162000172919062000268565b6040516020818303038152906040527f41304fac000000000000000000000000000000000000000000000000000000007bffffffffffffffffffffffffffffffffffffffffffffffffffffffff19166020820180517bffffffffffffffffffffffffffffffffffffffffffffffffffffffff8381831617835250505050620001fe60201b60201c565b50565b60008151905060006a636f6e736f6c652e6c6f679050602083016000808483855afa5050505050565b600062000234826200028c565b62000240818562000297565b935062000252818560208601620002a8565b6200025d81620002de565b840191505092915050565b6000602082019050818103600083015262000284818462000227565b905092915050565b600081519050919050565b600082825260208201905092915050565b60005b83811015620002c8578082015181840152602081019050620002ab565b83811115620002d8576000848401525b50505050565b6000601f19601f8301169050919050565b6148e080620002ff6000396000f3fe608060405234801561001057600080fd5b506004361061010b5760003560e01c8063a3d6f9a9116100a2578063dcec3ec811610071578063dcec3ec814610295578063de4e1c55146102c5578063e2621520146102f5578063f2fde38b14610311578063f813d4371461032d5761010b565b8063a3d6f9a9146101fc578063b0b4de941461022d578063bcdae1ec14610249578063dcc53305146102655761010b565b80637fd33fd2116100de5780637fd33fd2146101725780638551f9d514610190578063857cdbb8146101ae5780638da5cb5b146101de5761010b565b80634f0483ea14610110578063522e17091461012e5780635cfcafae1461014c578063715018a614610168575b600080fd5b61011861034b565b6040516101259190613f44565b60405180910390f35b610136610371565b6040516101439190613f44565b60405180910390f35b61016660048036038101906101619190613830565b61039b565b005b61017061045b565b005b61017a6104e3565b6040516101879190613fb8565b60405180910390f35b610198610943565b6040516101a59190613f96565b60405180910390f35b6101c860048036038101906101c39190613830565b610de4565b6040516101d59190613ff5565b60405180910390f35b6101e6610ebe565b6040516101f39190613f44565b60405180910390f35b61021660048036038101906102119190613830565b610ee7565b604051610224929190614017565b60405180910390f35b610247600480360381019061024291906138ab565b610fa0565b005b610263600480360381019061025e919061392b565b61137e565b005b61027f600480360381019061027a9190613859565b611837565b60405161028c9190614217565b60405180910390f35b6102af60048036038101906102aa9190613830565b611b48565b6040516102bc9190613fb8565b60405180910390f35b6102df60048036038101906102da9190613830565b611faa565b6040516102ec9190613ff5565b60405180910390f35b61030f600480360381019061030a91906139ab565b612084565b005b61032b60048036038101906103269190613830565b612478565b005b610335612570565b6040516103429190613f96565b60405180910390f35b600160009054906101000a900473ffffffffffffffffffffffffffffffffffffffff1681565b6000600160009054906101000a900473ffffffffffffffffffffffffffffffffffffffff16905090565b6103a3612aaa565b73ffffffffffffffffffffffffffffffffffffffff166103c1610ebe565b73ffffffffffffffffffffffffffffffffffffffff1614610417576040517f08c379a000000000000000000000000000000000000000000000000000000000815260040161040e90614197565b60405180910390fd5b80600160006101000a81548173ffffffffffffffffffffffffffffffffffffffff021916908373ffffffffffffffffffffffffffffffffffffffff16021790555050565b610463612aaa565b73ffffffffffffffffffffffffffffffffffffffff16610481610ebe565b73ffffffffffffffffffffffffffffffffffffffff16146104d7576040517f08c379a00000000000000000000000000000000000000000000000000000000081526004016104ce90614197565b60405180910390fd5b6104e16000612ab2565b565b60606000600760003373ffffffffffffffffffffffffffffffffffffffff1673ffffffffffffffffffffffffffffffffffffffff1681526020019081526020016000205490506105686040518060400160405280601881526020017f73656e646572546f74616c5265717565737473436f756e74000000000000000081525082612b76565b60008114156105f457600067ffffffffffffffff8111156105b2577f4e487b7100000000000000000000000000000000000000000000000000000000600052604160045260246000fd5b6040519080825280602002602001820160405280156105eb57816020015b6105d8613604565b8152602001906001900390816105d05790505b50915050610940565b60008167ffffffffffffffff811115610636577f4e487b7100000000000000000000000000000000000000000000000000000000600052604160045260246000fd5b60405190808252806020026020018201604052801561066f57816020015b61065c613604565b8152602001906001900390816106545790505b50905060005b828110156108f9576000600a60003373ffffffffffffffffffffffffffffffffffffffff1673ffffffffffffffffffffffffffffffffffffffff16815260200190815260200160002060006001846106cd91906142f3565b815260200190815260200160002054905061071d6040518060400160405280600981526020017f726571756573744964000000000000000000000000000000000000000000000081525082612b76565b61073c6005600083815260200190815260200160002060030154612c12565b600560008281526020019081526020016000206040518060a0016040529081600082015481526020016001820160009054906101000a900473ffffffffffffffffffffffffffffffffffffffff1673ffffffffffffffffffffffffffffffffffffffff1673ffffffffffffffffffffffffffffffffffffffff1681526020016002820160009054906101000a900473ffffffffffffffffffffffffffffffffffffffff1673ffffffffffffffffffffffffffffffffffffffff1673ffffffffffffffffffffffffffffffffffffffff168152602001600382015481526020016004820160009054906101000a900460ff166002811115610865577f4e487b7100000000000000000000000000000000000000000000000000000000600052602160045260246000fd5b600281111561089d577f4e487b7100000000000000000000000000000000000000000000000000000000600052602160045260246000fd5b815250508383815181106108da577f4e487b7100000000000000000000000000000000000000000000000000000000600052603260045260246000fd5b60200260200101819052505080806108f19061441b565b915050610675565b5061093a6040518060400160405280600681526020017f6c656e67746800000000000000000000000000000000000000000000000000008152508251612b76565b80925050505b90565b60606000600f60003373ffffffffffffffffffffffffffffffffffffffff1673ffffffffffffffffffffffffffffffffffffffff1681526020019081526020016000205490506109c86040518060400160405280601581526020017f746f74616c4f7574636f6d696e674c657474657273000000000000000000000081525082612b76565b6000811415610a5457600067ffffffffffffffff811115610a12577f4e487b7100000000000000000000000000000000000000000000000000000000600052604160045260246000fd5b604051908082528060200260200182016040528015610a4b57816020015b610a38613697565b815260200190600190039081610a305790505b50915050610de1565b60008167ffffffffffffffff811115610a96577f4e487b7100000000000000000000000000000000000000000000000000000000600052604160045260246000fd5b604051908082528060200260200182016040528015610acf57816020015b610abc613697565b815260200190600190039081610ab45790505b50905060005b82811015610d9a576000601160003373ffffffffffffffffffffffffffffffffffffffff1673ffffffffffffffffffffffffffffffffffffffff1681526020019081526020016000206000600184610b2d91906142f3565b8152602001908152602001600020549050610b7d6040518060400160405280600881526020017f6c6574746572496400000000000000000000000000000000000000000000000081525082612b76565b610b9c600d600083815260200190815260200160002060000154612c12565b600d60008281526020019081526020016000206040518060e0016040529081600082015481526020016001820160009054906101000a900473ffffffffffffffffffffffffffffffffffffffff1673ffffffffffffffffffffffffffffffffffffffff1673ffffffffffffffffffffffffffffffffffffffff1681526020016002820160009054906101000a900473ffffffffffffffffffffffffffffffffffffffff1673ffffffffffffffffffffffffffffffffffffffff1673ffffffffffffffffffffffffffffffffffffffff168152602001600382018054610c80906143e9565b80601f0160208091040260200160405190810160405280929190818152602001828054610cac906143e9565b8015610cf95780601f10610cce57610100808354040283529160200191610cf9565b820191906000526020600020905b815481529060010190602001808311610cdc57829003601f168201915b50505050508152602001600482015481526020016005820160009054906101000a900460ff161515151581526020016005820160019054906101000a900460ff161515151581525050838381518110610d7b577f4e487b7100000000000000000000000000000000000000000000000000000000600052603260045260246000fd5b6020026020010181905250508080610d929061441b565b915050610ad5565b50610ddb6040518060400160405280600681526020017f6c656e67746800000000000000000000000000000000000000000000000000008152508251612b76565b80925050505b90565b60606000600360008473ffffffffffffffffffffffffffffffffffffffff1673ffffffffffffffffffffffffffffffffffffffff1681526020019081526020016000206000018054610e35906143e9565b80601f0160208091040260200160405190810160405280929190818152602001828054610e61906143e9565b8015610eae5780601f10610e8357610100808354040283529160200191610eae565b820191906000526020600020905b815481529060010190602001808311610e9157829003601f168201915b5050505050905080915050919050565b60008060009054906101000a900473ffffffffffffffffffffffffffffffffffffffff16905090565b6003602052806000526040600020600091509050806000018054610f0a906143e9565b80601f0160208091040260200160405190810160405280929190818152602001828054610f36906143e9565b8015610f835780601f10610f5857610100808354040283529160200191610f83565b820191906000526020600020905b815481529060010190602001808311610f6657829003601f168201915b5050505050908060010160009054906101000a900460ff16905082565b6000600b60003373ffffffffffffffffffffffffffffffffffffffff1673ffffffffffffffffffffffffffffffffffffffff16815260200190815260200160002060008673ffffffffffffffffffffffffffffffffffffffff1673ffffffffffffffffffffffffffffffffffffffff1681526020019081526020016000205490506000811415611065576040517f08c379a000000000000000000000000000000000000000000000000000000000815260040161105c906140b7565b60405180910390fd5b6001600281111561109f577f4e487b7100000000000000000000000000000000000000000000000000000000600052602160045260246000fd5b6005600083815260200190815260200160002060040160009054906101000a900460ff1660028111156110fb577f4e487b7100000000000000000000000000000000000000000000000000000000600052602160045260246000fd5b1461113b576040517f08c379a000000000000000000000000000000000000000000000000000000000815260040161113290614177565b60405180910390fd5b6000600160009054906101000a900473ffffffffffffffffffffffffffffffffffffffff1673ffffffffffffffffffffffffffffffffffffffff166370a08231336040518263ffffffff1660e01b81526004016111989190613f44565b60206040518083038186803b1580156111b057600080fd5b505afa1580156111c4573d6000803e3d6000fd5b505050506040513d601f19601f820116820180604052508101906111e89190613882565b90508281101561122d576040517f08c379a000000000000000000000000000000000000000000000000000000000815260040161122490614137565b60405180910390fd5b60006040518060e001604052804281526020013373ffffffffffffffffffffffffffffffffffffffff1681526020018873ffffffffffffffffffffffffffffffffffffffff16815260200187878080601f016020809104026020016040519081016040528093929190818152602001838380828437600081840152601f19601f8201169050808301925050505050505081526020018581526020016000151581526020016001151581525090506112e381612cab565b600160009054906101000a900473ffffffffffffffffffffffffffffffffffffffff1673ffffffffffffffffffffffffffffffffffffffff16637750c9f03389876040518463ffffffff1660e01b815260040161134293929190613f5f565b600060405180830381600087803b15801561135c57600080fd5b505af1158015611370573d6000803e3d6000fd5b505050505050505050505050565b6002548310156113c3576040517f08c379a00000000000000000000000000000000000000000000000000000000081526004016113ba906141d7565b60405180910390fd5b6000600160009054906101000a900473ffffffffffffffffffffffffffffffffffffffff1673ffffffffffffffffffffffffffffffffffffffff166370a08231336040518263ffffffff1660e01b81526004016114209190613f44565b60206040518083038186803b15801561143857600080fd5b505afa15801561144c573d6000803e3d6000fd5b505050506040513d601f19601f820116820180604052508101906114709190613882565b9050838110156114b5576040517f08c379a00000000000000000000000000000000000000000000000000000000081526004016114ac90614137565b60405180910390fd5b8473ffffffffffffffffffffffffffffffffffffffff163373ffffffffffffffffffffffffffffffffffffffff161415611524576040517f08c379a000000000000000000000000000000000000000000000000000000000815260040161151b90614077565b60405180910390fd5b6000600960008773ffffffffffffffffffffffffffffffffffffffff1673ffffffffffffffffffffffffffffffffffffffff16815260200190815260200160002060003373ffffffffffffffffffffffffffffffffffffffff1673ffffffffffffffffffffffffffffffffffffffff1681526020019081526020016000205490506115e46040518060400160405280600981526020017f726571756573744944000000000000000000000000000000000000000000000081525082612b76565b60008114611627576040517f08c379a000000000000000000000000000000000000000000000000000000000815260040161161e906141f7565b60405180910390fd5b604051806040016040528085858080601f016020809104026020016040519081016040528093929190818152602001838380828437600081840152601f19601f82011690508083019250505050505050815260200160011515815250600360003373ffffffffffffffffffffffffffffffffffffffff1673ffffffffffffffffffffffffffffffffffffffff16815260200190815260200160002060008201518160000190805190602001906116de929190613704565b5060208201518160010160006101000a81548160ff02191690831515021790555090505060006040518060a001604052804281526020013373ffffffffffffffffffffffffffffffffffffffff1681526020018873ffffffffffffffffffffffffffffffffffffffff1681526020018781526020016000600281111561178d577f4e487b7100000000000000000000000000000000000000000000000000000000600052602160045260246000fd5b815250905061179c878261312d565b600160009054906101000a900473ffffffffffffffffffffffffffffffffffffffff1673ffffffffffffffffffffffffffffffffffffffff16637750c9f03389896040518463ffffffff1660e01b81526004016117fb93929190613f5f565b600060405180830381600087803b15801561181557600080fd5b505af1158015611829573d6000803e3d6000fd5b505050505050505050505050565b61183f613697565b600d60008381526020019081526020016000206040518060e0016040529081600082015481526020016001820160009054906101000a900473ffffffffffffffffffffffffffffffffffffffff1673ffffffffffffffffffffffffffffffffffffffff1673ffffffffffffffffffffffffffffffffffffffff1681526020016002820160009054906101000a900473ffffffffffffffffffffffffffffffffffffffff1673ffffffffffffffffffffffffffffffffffffffff1673ffffffffffffffffffffffffffffffffffffffff168152602001600382018054611923906143e9565b80601f016020809104026020016040519081016040528092919081815260200182805461194f906143e9565b801561199c5780601f106119715761010080835404028352916020019161199c565b820191906000526020600020905b81548152906001019060200180831161197f57829003601f168201915b50505050508152602001600482015481526020016005820160009054906101000a900460ff161515151581526020016005820160019054906101000a900460ff16151515158152505090506119f48160c00151613542565b8060c00151611a38576040517f08c379a0000000000000000000000000000000000000000000000000000000008152600401611a2f906140f7565b60405180910390fd5b3373ffffffffffffffffffffffffffffffffffffffff16816040015173ffffffffffffffffffffffffffffffffffffffff1614611aaa576040517f08c379a0000000000000000000000000000000000000000000000000000000008152600401611aa190614117565b60405180910390fd5b600160009054906101000a900473ffffffffffffffffffffffffffffffffffffffff1673ffffffffffffffffffffffffffffffffffffffff166359508f8f82602001513384608001516040518463ffffffff1660e01b8152600401611b1193929190613f5f565b600060405180830381600087803b158015611b2b57600080fd5b505af1158015611b3f573d6000803e3d6000fd5b50505050919050565b60606000600660008473ffffffffffffffffffffffffffffffffffffffff1673ffffffffffffffffffffffffffffffffffffffff168152602001908152602001600020549050611bcd6040518060400160405280601681526020017f726563657069656e74546f74616c52657175657374730000000000000000000081525082612b76565b6000811415611c5957600067ffffffffffffffff811115611c17577f4e487b7100000000000000000000000000000000000000000000000000000000600052604160045260246000fd5b604051908082528060200260200182016040528015611c5057816020015b611c3d613604565b815260200190600190039081611c355790505b50915050611fa5565b60008167ffffffffffffffff811115611c9b577f4e487b7100000000000000000000000000000000000000000000000000000000600052604160045260246000fd5b604051908082528060200260200182016040528015611cd457816020015b611cc1613604565b815260200190600190039081611cb95790505b50905060005b82811015611f5e576000600860008773ffffffffffffffffffffffffffffffffffffffff1673ffffffffffffffffffffffffffffffffffffffff1681526020019081526020016000206000600184611d3291906142f3565b8152602001908152602001600020549050611d826040518060400160405280600981526020017f726571756573744964000000000000000000000000000000000000000000000081525082612b76565b611da16005600083815260200190815260200160002060030154612c12565b600560008281526020019081526020016000206040518060a0016040529081600082015481526020016001820160009054906101000a900473ffffffffffffffffffffffffffffffffffffffff1673ffffffffffffffffffffffffffffffffffffffff1673ffffffffffffffffffffffffffffffffffffffff1681526020016002820160009054906101000a900473ffffffffffffffffffffffffffffffffffffffff1673ffffffffffffffffffffffffffffffffffffffff1673ffffffffffffffffffffffffffffffffffffffff168152602001600382015481526020016004820160009054906101000a900460ff166002811115611eca577f4e487b7100000000000000000000000000000000000000000000000000000000600052602160045260246000fd5b6002811115611f02577f4e487b7100000000000000000000000000000000000000000000000000000000600052602160045260246000fd5b81525050838381518110611f3f577f4e487b7100000000000000000000000000000000000000000000000000000000600052603260045260246000fd5b6020026020010181905250508080611f569061441b565b915050611cda565b50611f9f6040518060400160405280600681526020017f6c656e67746800000000000000000000000000000000000000000000000000008152508251612b76565b80925050505b919050565b60606000600360008473ffffffffffffffffffffffffffffffffffffffff1673ffffffffffffffffffffffffffffffffffffffff1681526020019081526020016000206000018054611ffb906143e9565b80601f0160208091040260200160405190810160405280929190818152602001828054612027906143e9565b80156120745780601f1061204957610100808354040283529160200191612074565b820191906000526020600020905b81548152906001019060200180831161205757829003601f168201915b5050505050905080915050919050565b6004548311156120c9576040517f08c379a00000000000000000000000000000000000000000000000000000000081526004016120c090614097565b60405180910390fd5b60006005600085815260200190815260200160002090503373ffffffffffffffffffffffffffffffffffffffff168160020160009054906101000a900473ffffffffffffffffffffffffffffffffffffffff1673ffffffffffffffffffffffffffffffffffffffff1614612172576040517f08c379a000000000000000000000000000000000000000000000000000000000815260040161216990614157565b60405180910390fd5b600060028111156121ac577f4e487b7100000000000000000000000000000000000000000000000000000000600052602160045260246000fd5b8160040160009054906101000a900460ff1660028111156121f6577f4e487b7100000000000000000000000000000000000000000000000000000000600052602160045260246000fd5b14612236576040517f08c379a000000000000000000000000000000000000000000000000000000000815260040161222d906141b7565b60405180910390fd5b600360003373ffffffffffffffffffffffffffffffffffffffff1673ffffffffffffffffffffffffffffffffffffffff16815260200190815260200160002060010160009054906101000a900460ff1661236657604051806040016040528084848080601f016020809104026020016040519081016040528093929190818152602001838380828437600081840152601f19601f82011690508083019250505050505050815260200160011515815250600360003373ffffffffffffffffffffffffffffffffffffffff1673ffffffffffffffffffffffffffffffffffffffff1681526020019081526020016000206000820151816000019080519060200190612341929190613704565b5060208201518160010160006101000a81548160ff0219169083151502179055509050505b60018160040160006101000a81548160ff021916908360028111156123b4577f4e487b7100000000000000000000000000000000000000000000000000000000600052602160045260246000fd5b0217905550600160009054906101000a900473ffffffffffffffffffffffffffffffffffffffff1673ffffffffffffffffffffffffffffffffffffffff166359508f8f8260010160009054906101000a900473ffffffffffffffffffffffffffffffffffffffff163384600301546040518463ffffffff1660e01b815260040161244093929190613f5f565b600060405180830381600087803b15801561245a57600080fd5b505af115801561246e573d6000803e3d6000fd5b5050505050505050565b612480612aaa565b73ffffffffffffffffffffffffffffffffffffffff1661249e610ebe565b73ffffffffffffffffffffffffffffffffffffffff16146124f4576040517f08c379a00000000000000000000000000000000000000000000000000000000081526004016124eb90614197565b60405180910390fd5b600073ffffffffffffffffffffffffffffffffffffffff168173ffffffffffffffffffffffffffffffffffffffff161415612564576040517f08c379a000000000000000000000000000000000000000000000000000000000815260040161255b906140d7565b60405180910390fd5b61256d81612ab2565b50565b60606000600e60003373ffffffffffffffffffffffffffffffffffffffff1673ffffffffffffffffffffffffffffffffffffffff1681526020019081526020016000205490506125f56040518060400160405280601481526020017f746f74616c496e636f6d696e674c65747465727300000000000000000000000081525082612b76565b600081141561268157600067ffffffffffffffff81111561263f577f4e487b7100000000000000000000000000000000000000000000000000000000600052604160045260246000fd5b60405190808252806020026020018201604052801561267857816020015b612665613697565b81526020019060019003908161265d5790505b50915050612a0e565b60008167ffffffffffffffff8111156126c3577f4e487b7100000000000000000000000000000000000000000000000000000000600052604160045260246000fd5b6040519080825280602002602001820160405280156126fc57816020015b6126e9613697565b8152602001906001900390816126e15790505b50905060005b828110156129c7576000601060003373ffffffffffffffffffffffffffffffffffffffff1673ffffffffffffffffffffffffffffffffffffffff168152602001908152602001600020600060018461275a91906142f3565b81526020019081526020016000205490506127aa6040518060400160405280600881526020017f6c6574746572496400000000000000000000000000000000000000000000000081525082612b76565b6127c9600d600083815260200190815260200160002060000154612c12565b600d60008281526020019081526020016000206040518060e0016040529081600082015481526020016001820160009054906101000a900473ffffffffffffffffffffffffffffffffffffffff1673ffffffffffffffffffffffffffffffffffffffff1673ffffffffffffffffffffffffffffffffffffffff1681526020016002820160009054906101000a900473ffffffffffffffffffffffffffffffffffffffff1673ffffffffffffffffffffffffffffffffffffffff1673ffffffffffffffffffffffffffffffffffffffff1681526020016003820180546128ad906143e9565b80601f01602080910402602001604051908101604052809291908181526020018280546128d9906143e9565b80156129265780601f106128fb57610100808354040283529160200191612926565b820191906000526020600020905b81548152906001019060200180831161290957829003601f168201915b50505050508152602001600482015481526020016005820160009054906101000a900460ff161515151581526020016005820160019054906101000a900460ff1615151515815250508383815181106129a8577f4e487b7100000000000000000000000000000000000000000000000000000000600052603260045260246000fd5b60200260200101819052505080806129bf9061441b565b915050612702565b50612a086040518060400160405280600681526020017f6c656e67746800000000000000000000000000000000000000000000000000008152508251612b76565b80925050505b90565b612aa781604051602401612a259190613ff5565b6040516020818303038152906040527f41304fac000000000000000000000000000000000000000000000000000000007bffffffffffffffffffffffffffffffffffffffffffffffffffffffff19166020820180517bffffffffffffffffffffffffffffffffffffffffffffffffffffffff83818316178352505050506135db565b50565b600033905090565b60008060009054906101000a900473ffffffffffffffffffffffffffffffffffffffff169050816000806101000a81548173ffffffffffffffffffffffffffffffffffffffff021916908373ffffffffffffffffffffffffffffffffffffffff1602179055508173ffffffffffffffffffffffffffffffffffffffff168173ffffffffffffffffffffffffffffffffffffffff167f8be0079c531659141344cd1fd0a4f28419497f9722a3daafe3b4186f6b6457e060405160405180910390a35050565b612c0e8282604051602401612b8c929190614047565b6040516020818303038152906040527f9710a9d0000000000000000000000000000000000000000000000000000000007bffffffffffffffffffffffffffffffffffffffffffffffffffffffff19166020820180517bffffffffffffffffffffffffffffffffffffffffffffffffffffffff83818316178352505050506135db565b5050565b612ca881604051602401612c269190614239565b6040516020818303038152906040527ff5b1bba9000000000000000000000000000000000000000000000000000000007bffffffffffffffffffffffffffffffffffffffffffffffffffffffff19166020820180517bffffffffffffffffffffffffffffffffffffffffffffffffffffffff83818316178352505050506135db565b50565b600081604001519050612cf76040518060400160405280601081526020017f6c65747465722074696d657374616d70000000000000000000000000000000008152508360000151612b76565b600c6000815480929190612d0a9061441b565b919050555081600d6000600c5481526020019081526020016000206000820151816000015560208201518160010160006101000a81548173ffffffffffffffffffffffffffffffffffffffff021916908373ffffffffffffffffffffffffffffffffffffffff16021790555060408201518160020160006101000a81548173ffffffffffffffffffffffffffffffffffffffff021916908373ffffffffffffffffffffffffffffffffffffffff1602179055506060820151816003019080519060200190612dd9929190613704565b506080820151816004015560a08201518160050160006101000a81548160ff02191690831515021790555060c08201518160050160016101000a81548160ff021916908315150217905550905050600e60008273ffffffffffffffffffffffffffffffffffffffff1673ffffffffffffffffffffffffffffffffffffffff1681526020019081526020016000206000815480929190612e779061441b565b9190505550600f60003373ffffffffffffffffffffffffffffffffffffffff1673ffffffffffffffffffffffffffffffffffffffff1681526020019081526020016000206000815480929190612ecc9061441b565b9190505550612f126040518060400160405280600c81526020017f746f74616c4c6574746572730000000000000000000000000000000000000000815250600c54612b76565b612f906040518060400160405280601881526020017f696e636f6d696e67546f74616c4c6574746572735b746f5d0000000000000000815250600e60008473ffffffffffffffffffffffffffffffffffffffff1673ffffffffffffffffffffffffffffffffffffffff16815260200190815260200160002054612b76565b612ff160405180606001604052806021815260200161488a60219139600f60003373ffffffffffffffffffffffffffffffffffffffff1673ffffffffffffffffffffffffffffffffffffffff16815260200190815260200160002054612b76565b6000600e60008373ffffffffffffffffffffffffffffffffffffffff1673ffffffffffffffffffffffffffffffffffffffff1681526020019081526020016000205490506000600f60003373ffffffffffffffffffffffffffffffffffffffff1673ffffffffffffffffffffffffffffffffffffffff168152602001908152602001600020549050600c54601060008573ffffffffffffffffffffffffffffffffffffffff1673ffffffffffffffffffffffffffffffffffffffff168152602001908152602001600020600083815260200190815260200160002081905550600c54601160003373ffffffffffffffffffffffffffffffffffffffff1673ffffffffffffffffffffffffffffffffffffffff16815260200190815260200160002060008481526020019081526020016000208190555050505050565b600460008154809291906131409061441b565b9190505550806005600060045481526020019081526020016000206000820151816000015560208201518160010160006101000a81548173ffffffffffffffffffffffffffffffffffffffff021916908373ffffffffffffffffffffffffffffffffffffffff16021790555060408201518160020160006101000a81548173ffffffffffffffffffffffffffffffffffffffff021916908373ffffffffffffffffffffffffffffffffffffffff1602179055506060820151816003015560808201518160040160006101000a81548160ff0219169083600281111561324e577f4e487b7100000000000000000000000000000000000000000000000000000000600052602160045260246000fd5b0217905550905050600660008373ffffffffffffffffffffffffffffffffffffffff1673ffffffffffffffffffffffffffffffffffffffff16815260200190815260200160002060008154809291906132a69061441b565b9190505550600760003373ffffffffffffffffffffffffffffffffffffffff1673ffffffffffffffffffffffffffffffffffffffff16815260200190815260200160002060008154809291906132fb9061441b565b91905055506000600660008473ffffffffffffffffffffffffffffffffffffffff1673ffffffffffffffffffffffffffffffffffffffff1681526020019081526020016000205490506000600760003373ffffffffffffffffffffffffffffffffffffffff1673ffffffffffffffffffffffffffffffffffffffff168152602001908152602001600020549050600454600860008673ffffffffffffffffffffffffffffffffffffffff1673ffffffffffffffffffffffffffffffffffffffff168152602001908152602001600020600084815260200190815260200160002081905550600454600960008673ffffffffffffffffffffffffffffffffffffffff1673ffffffffffffffffffffffffffffffffffffffff16815260200190815260200160002060003373ffffffffffffffffffffffffffffffffffffffff1673ffffffffffffffffffffffffffffffffffffffff16815260200190815260200160002081905550600454600a60003373ffffffffffffffffffffffffffffffffffffffff1673ffffffffffffffffffffffffffffffffffffffff168152602001908152602001600020600083815260200190815260200160002081905550600454600b60003373ffffffffffffffffffffffffffffffffffffffff1673ffffffffffffffffffffffffffffffffffffffff16815260200190815260200160002060008673ffffffffffffffffffffffffffffffffffffffff1673ffffffffffffffffffffffffffffffffffffffff1681526020019081526020016000208190555050505050565b6135d8816040516024016135569190613fda565b6040516020818303038152906040527f32458eed000000000000000000000000000000000000000000000000000000007bffffffffffffffffffffffffffffffffffffffffffffffffffffffff19166020820180517bffffffffffffffffffffffffffffffffffffffffffffffffffffffff83818316178352505050506135db565b50565b60008151905060006a636f6e736f6c652e6c6f679050602083016000808483855afa5050505050565b6040518060a0016040528060008152602001600073ffffffffffffffffffffffffffffffffffffffff168152602001600073ffffffffffffffffffffffffffffffffffffffff1681526020016000815260200160006002811115613691577f4e487b7100000000000000000000000000000000000000000000000000000000600052602160045260246000fd5b81525090565b6040518060e0016040528060008152602001600073ffffffffffffffffffffffffffffffffffffffff168152602001600073ffffffffffffffffffffffffffffffffffffffff16815260200160608152602001600081526020016000151581526020016000151581525090565b828054613710906143e9565b90600052602060002090601f0160209004810192826137325760008555613779565b82601f1061374b57805160ff1916838001178555613779565b82800160010185558215613779579182015b8281111561377857825182559160200191906001019061375d565b5b509050613786919061378a565b5090565b5b808211156137a357600081600090555060010161378b565b5090565b6000813590506137b68161485b565b92915050565b60008083601f8401126137ce57600080fd5b8235905067ffffffffffffffff8111156137e757600080fd5b6020830191508360018202830111156137ff57600080fd5b9250929050565b60008135905061381581614872565b92915050565b60008151905061382a81614872565b92915050565b60006020828403121561384257600080fd5b6000613850848285016137a7565b91505092915050565b60006020828403121561386b57600080fd5b600061387984828501613806565b91505092915050565b60006020828403121561389457600080fd5b60006138a28482850161381b565b91505092915050565b6000806000806000608086880312156138c357600080fd5b60006138d188828901613806565b95505060206138e2888289016137a7565b945050604086013567ffffffffffffffff8111156138ff57600080fd5b61390b888289016137bc565b9350935050606061391e88828901613806565b9150509295509295909350565b60008060008060006080868803121561394357600080fd5b600061395188828901613806565b9550506020613962888289016137a7565b945050604061397388828901613806565b935050606086013567ffffffffffffffff81111561399057600080fd5b61399c888289016137bc565b92509250509295509295909350565b6000806000604084860312156139c057600080fd5b60006139ce86828701613806565b935050602084013567ffffffffffffffff8111156139eb57600080fd5b6139f7868287016137bc565b92509250509250925092565b6000613a0f8383613d86565b905092915050565b6000613a238383613ebe565b60a08301905092915050565b613a3881614349565b82525050565b613a4781614349565b82525050565b6000613a5882614274565b613a6281856142af565b935083602082028501613a7485614254565b8060005b85811015613ab05784840389528151613a918582613a03565b9450613a9c83614295565b925060208a01995050600181019050613a78565b50829750879550505050505092915050565b6000613acd8261427f565b613ad781856142c0565b9350613ae283614264565b8060005b83811015613b13578151613afa8882613a17565b9750613b05836142a2565b925050600181019050613ae6565b5085935050505092915050565b613b298161435b565b82525050565b613b388161435b565b82525050565b613b47816143a4565b82525050565b6000613b588261428a565b613b6281856142d1565b9350613b728185602086016143b6565b613b7b816144f1565b840191505092915050565b6000613b918261428a565b613b9b81856142e2565b9350613bab8185602086016143b6565b613bb4816144f1565b840191505092915050565b6000613bcc6023836142e2565b9150613bd782614502565b604082019050919050565b6000613bef6015836142e2565b9150613bfa82614551565b602082019050919050565b6000613c126027836142e2565b9150613c1d8261457a565b604082019050919050565b6000613c356026836142e2565b9150613c40826145c9565b604082019050919050565b6000613c586016836142e2565b9150613c6382614618565b602082019050919050565b6000613c7b600f836142e2565b9150613c8682614641565b602082019050919050565b6000613c9e6039836142e2565b9150613ca98261466a565b604082019050919050565b6000613cc1601b836142e2565b9150613ccc826146b9565b602082019050919050565b6000613ce4602b836142e2565b9150613cef826146e2565b604082019050919050565b6000613d076020836142e2565b9150613d1282614731565b602082019050919050565b6000613d2a602d836142e2565b9150613d358261475a565b604082019050919050565b6000613d4d6023836142e2565b9150613d58826147a9565b604082019050919050565b6000613d706027836142e2565b9150613d7b826147f8565b604082019050919050565b600060e083016000830151613d9e6000860182613f26565b506020830151613db16020860182613a2f565b506040830151613dc46040860182613a2f565b5060608301518482036060860152613ddc8282613b4d565b9150506080830151613df16080860182613f26565b5060a0830151613e0460a0860182613b20565b5060c0830151613e1760c0860182613b20565b508091505092915050565b600060e083016000830151613e3a6000860182613f26565b506020830151613e4d6020860182613a2f565b506040830151613e606040860182613a2f565b5060608301518482036060860152613e788282613b4d565b9150506080830151613e8d6080860182613f26565b5060a0830151613ea060a0860182613b20565b5060c0830151613eb360c0860182613b20565b508091505092915050565b60a082016000820151613ed46000850182613f26565b506020820151613ee76020850182613a2f565b506040820151613efa6040850182613a2f565b506060820151613f0d6060850182613f26565b506080820151613f206080850182613b3e565b50505050565b613f2f8161439a565b82525050565b613f3e8161439a565b82525050565b6000602082019050613f596000830184613a3e565b92915050565b6000606082019050613f746000830186613a3e565b613f816020830185613a3e565b613f8e6040830184613f35565b949350505050565b60006020820190508181036000830152613fb08184613a4d565b905092915050565b60006020820190508181036000830152613fd28184613ac2565b905092915050565b6000602082019050613fef6000830184613b2f565b92915050565b6000602082019050818103600083015261400f8184613b86565b905092915050565b600060408201905081810360008301526140318185613b86565b90506140406020830184613b2f565b9392505050565b600060408201905081810360008301526140618185613b86565b90506140706020830184613f35565b9392505050565b6000602082019050818103600083015261409081613bbf565b9050919050565b600060208201905081810360008301526140b081613be2565b9050919050565b600060208201905081810360008301526140d081613c05565b9050919050565b600060208201905081810360008301526140f081613c28565b9050919050565b6000602082019050818103600083015261411081613c4b565b9050919050565b6000602082019050818103600083015261413081613c6e565b9050919050565b6000602082019050818103600083015261415081613c91565b9050919050565b6000602082019050818103600083015261417081613cb4565b9050919050565b6000602082019050818103600083015261419081613cd7565b9050919050565b600060208201905081810360008301526141b081613cfa565b9050919050565b600060208201905081810360008301526141d081613d1d565b9050919050565b600060208201905081810360008301526141f081613d40565b9050919050565b6000602082019050818103600083015261421081613d63565b9050919050565b600060208201905081810360008301526142318184613e22565b905092915050565b600060208201905061424e6000830184613f35565b92915050565b6000819050602082019050919050565b6000819050602082019050919050565b600081519050919050565b600081519050919050565b600081519050919050565b6000602082019050919050565b6000602082019050919050565b600082825260208201905092915050565b600082825260208201905092915050565b600082825260208201905092915050565b600082825260208201905092915050565b60006142fe8261439a565b91506143098361439a565b9250827fffffffffffffffffffffffffffffffffffffffffffffffffffffffffffffffff0382111561433e5761433d614464565b5b828201905092915050565b60006143548261437a565b9050919050565b60008115159050919050565b600081905061437582614847565b919050565b600073ffffffffffffffffffffffffffffffffffffffff82169050919050565b6000819050919050565b60006143af82614367565b9050919050565b60005b838110156143d45780820151818401526020810190506143b9565b838111156143e3576000848401525b50505050565b6000600282049050600182168061440157607f821691505b60208210811415614415576144146144c2565b5b50919050565b60006144268261439a565b91507fffffffffffffffffffffffffffffffffffffffffffffffffffffffffffffffff82141561445957614458614464565b5b600182019050919050565b7f4e487b7100000000000000000000000000000000000000000000000000000000600052601160045260246000fd5b7f4e487b7100000000000000000000000000000000000000000000000000000000600052602160045260246000fd5b7f4e487b7100000000000000000000000000000000000000000000000000000000600052602260045260246000fd5b6000601f19601f8301169050919050565b7f596f752063616e206e6f742073656e64207265717565737420746f20796f757360008201527f656c660000000000000000000000000000000000000000000000000000000000602082015250565b7f5265717565737420646f65736e27742065786973740000000000000000000000600082015250565b7f596f752068617665206e6f74207265717565737465642074686973206164647260008201527f6573732079657400000000000000000000000000000000000000000000000000602082015250565b7f4f776e61626c653a206e6577206f776e657220697320746865207a65726f206160008201527f6464726573730000000000000000000000000000000000000000000000000000602082015250565b7f4e6f206c65747465722077697468207468697320696400000000000000000000600082015250565b7f4e6f7420796f7572206c65747465720000000000000000000000000000000000600082015250565b7f596f752068617665206e6f7420656e6f756768207374616d707320696e20796f60008201527f752077616c6c65742c20627579206d6f7265206f6e2044455800000000000000602082015250565b7f546869732072657175657374206973206e6f7420666f7220796f750000000000600082015250565b7f526563657069656e7420686173206e6f7420616363657074656420796f75722060008201527f7265717565737420796574000000000000000000000000000000000000000000602082015250565b7f4f776e61626c653a2063616c6c6572206973206e6f7420746865206f776e6572600082015250565b7f5265717565737420686173206265656e20616c7265616479206163636570746560008201527f64206f72206465636c696e656400000000000000000000000000000000000000602082015250565b7f4174746163686564207374616d707320636f756e74206973206e6f7420656e6f60008201527f7567680000000000000000000000000000000000000000000000000000000000602082015250565b7f596f75206861766520616c72656164792072657175657374656420746869732060008201527f6164647265737300000000000000000000000000000000000000000000000000602082015250565b6003811061485857614857614493565b5b50565b61486481614349565b811461486f57600080fd5b50565b61487b8161439a565b811461488657600080fd5b5056fe6f7574636f6d696e67546f74616c4c6574746572735b6d73672e73656e6465725da264697066735822122060045aaac0528e28d8d792542e5753368ef8d2dc940b1736644b92536bebae4164736f6c63430008040033",
  "devdoc": {
    "kind": "dev",
    "methods": {
      "owner()": {
        "details": "Returns the address of the current owner."
      },
      "renounceOwnership()": {
        "details": "Leaves the contract without owner. It will not be possible to call `onlyOwner` functions anymore. Can only be called by the current owner. NOTE: Renouncing ownership will leave the contract without an owner, thereby removing any functionality that is only available to the owner."
      },
      "transferOwnership(address)": {
        "details": "Transfers ownership of the contract to a new account (`newOwner`). Can only be called by the current owner."
      }
    },
    "version": 1
  },
  "userdoc": {
    "kind": "user",
    "methods": {},
    "version": 1
  },
  "storageLayout": {
    "storage": [
      {
        "astId": 7,
        "contract": "contracts/Stampost.sol:Stampost",
        "label": "_owner",
        "offset": 0,
        "slot": "0",
        "type": "t_address"
      },
      {
        "astId": 672,
        "contract": "contracts/Stampost.sol:Stampost",
        "label": "stamp_token_address",
        "offset": 0,
        "slot": "1",
        "type": "t_address"
      },
      {
        "astId": 675,
        "contract": "contracts/Stampost.sol:Stampost",
        "label": "requestMininalFee",
        "offset": 0,
        "slot": "2",
        "type": "t_uint256"
      },
      {
        "astId": 701,
        "contract": "contracts/Stampost.sol:Stampost",
        "label": "publicKeys",
        "offset": 0,
        "slot": "3",
        "type": "t_mapping(t_address,t_struct(PublicKey)680_storage)"
      },
      {
        "astId": 703,
        "contract": "contracts/Stampost.sol:Stampost",
        "label": "totalRequests",
        "offset": 0,
        "slot": "4",
        "type": "t_uint256"
      },
      {
        "astId": 708,
        "contract": "contracts/Stampost.sol:Stampost",
        "label": "requests",
        "offset": 0,
        "slot": "5",
        "type": "t_mapping(t_uint256,t_struct(PublicKeyRequest)696_storage)"
      },
      {
        "astId": 712,
        "contract": "contracts/Stampost.sol:Stampost",
        "label": "addressTotalRequests",
        "offset": 0,
        "slot": "6",
        "type": "t_mapping(t_address,t_uint256)"
      },
      {
        "astId": 716,
        "contract": "contracts/Stampost.sol:Stampost",
        "label": "senderTotalRequests",
        "offset": 0,
        "slot": "7",
        "type": "t_mapping(t_address,t_uint256)"
      },
      {
        "astId": 722,
        "contract": "contracts/Stampost.sol:Stampost",
        "label": "userRequestById",
        "offset": 0,
        "slot": "8",
        "type": "t_mapping(t_address,t_mapping(t_uint256,t_uint256))"
      },
      {
        "astId": 728,
        "contract": "contracts/Stampost.sol:Stampost",
        "label": "userRequestByAddress",
        "offset": 0,
        "slot": "9",
        "type": "t_mapping(t_address,t_mapping(t_address,t_uint256))"
      },
      {
        "astId": 734,
        "contract": "contracts/Stampost.sol:Stampost",
        "label": "senderRequestById",
        "offset": 0,
        "slot": "10",
        "type": "t_mapping(t_address,t_mapping(t_uint256,t_uint256))"
      },
      {
        "astId": 740,
        "contract": "contracts/Stampost.sol:Stampost",
        "label": "senderRequestByAddress",
        "offset": 0,
        "slot": "11",
        "type": "t_mapping(t_address,t_mapping(t_address,t_uint256))"
      },
      {
        "astId": 757,
        "contract": "contracts/Stampost.sol:Stampost",
        "label": "totalLetters",
        "offset": 0,
        "slot": "12",
        "type": "t_uint256"
      },
      {
        "astId": 762,
        "contract": "contracts/Stampost.sol:Stampost",
        "label": "letters",
        "offset": 0,
        "slot": "13",
        "type": "t_mapping(t_uint256,t_struct(Letter)755_storage)"
      },
      {
        "astId": 766,
        "contract": "contracts/Stampost.sol:Stampost",
        "label": "incomingTotalLetters",
        "offset": 0,
        "slot": "14",
        "type": "t_mapping(t_address,t_uint256)"
      },
      {
        "astId": 770,
        "contract": "contracts/Stampost.sol:Stampost",
        "label": "outcomingTotalLetters",
        "offset": 0,
        "slot": "15",
        "type": "t_mapping(t_address,t_uint256)"
      },
      {
        "astId": 776,
        "contract": "contracts/Stampost.sol:Stampost",
        "label": "incomingLetterById",
        "offset": 0,
        "slot": "16",
        "type": "t_mapping(t_address,t_mapping(t_uint256,t_uint256))"
      },
      {
        "astId": 782,
        "contract": "contracts/Stampost.sol:Stampost",
        "label": "outcomingLetterById",
        "offset": 0,
        "slot": "17",
        "type": "t_mapping(t_address,t_mapping(t_uint256,t_uint256))"
      }
    ],
    "types": {
      "t_address": {
        "encoding": "inplace",
        "label": "address",
        "numberOfBytes": "20"
      },
      "t_bool": {
        "encoding": "inplace",
        "label": "bool",
        "numberOfBytes": "1"
      },
      "t_enum(PublicKeyRequestStatus)684": {
        "encoding": "inplace",
        "label": "enum Stampost.PublicKeyRequestStatus",
        "numberOfBytes": "1"
      },
      "t_mapping(t_address,t_mapping(t_address,t_uint256))": {
        "encoding": "mapping",
        "key": "t_address",
        "label": "mapping(address => mapping(address => uint256))",
        "numberOfBytes": "32",
        "value": "t_mapping(t_address,t_uint256)"
      },
      "t_mapping(t_address,t_mapping(t_uint256,t_uint256))": {
        "encoding": "mapping",
        "key": "t_address",
        "label": "mapping(address => mapping(uint256 => uint256))",
        "numberOfBytes": "32",
        "value": "t_mapping(t_uint256,t_uint256)"
      },
      "t_mapping(t_address,t_struct(PublicKey)680_storage)": {
        "encoding": "mapping",
        "key": "t_address",
        "label": "mapping(address => struct Stampost.PublicKey)",
        "numberOfBytes": "32",
        "value": "t_struct(PublicKey)680_storage"
      },
      "t_mapping(t_address,t_uint256)": {
        "encoding": "mapping",
        "key": "t_address",
        "label": "mapping(address => uint256)",
        "numberOfBytes": "32",
        "value": "t_uint256"
      },
      "t_mapping(t_uint256,t_struct(Letter)755_storage)": {
        "encoding": "mapping",
        "key": "t_uint256",
        "label": "mapping(uint256 => struct Stampost.Letter)",
        "numberOfBytes": "32",
        "value": "t_struct(Letter)755_storage"
      },
      "t_mapping(t_uint256,t_struct(PublicKeyRequest)696_storage)": {
        "encoding": "mapping",
        "key": "t_uint256",
        "label": "mapping(uint256 => struct Stampost.PublicKeyRequest)",
        "numberOfBytes": "32",
        "value": "t_struct(PublicKeyRequest)696_storage"
      },
      "t_mapping(t_uint256,t_uint256)": {
        "encoding": "mapping",
        "key": "t_uint256",
        "label": "mapping(uint256 => uint256)",
        "numberOfBytes": "32",
        "value": "t_uint256"
      },
      "t_string_storage": {
        "encoding": "bytes",
        "label": "string",
        "numberOfBytes": "32"
      },
      "t_struct(Letter)755_storage": {
        "encoding": "inplace",
        "label": "struct Stampost.Letter",
        "members": [
          {
            "astId": 742,
            "contract": "contracts/Stampost.sol:Stampost",
            "label": "timestamp",
            "offset": 0,
            "slot": "0",
            "type": "t_uint256"
          },
          {
            "astId": 744,
            "contract": "contracts/Stampost.sol:Stampost",
            "label": "from",
            "offset": 0,
            "slot": "1",
            "type": "t_address"
          },
          {
            "astId": 746,
            "contract": "contracts/Stampost.sol:Stampost",
            "label": "to",
            "offset": 0,
            "slot": "2",
            "type": "t_address"
          },
          {
            "astId": 748,
            "contract": "contracts/Stampost.sol:Stampost",
            "label": "message",
            "offset": 0,
            "slot": "3",
            "type": "t_string_storage"
          },
          {
            "astId": 750,
            "contract": "contracts/Stampost.sol:Stampost",
            "label": "stamps",
            "offset": 0,
            "slot": "4",
            "type": "t_uint256"
          },
          {
            "astId": 752,
            "contract": "contracts/Stampost.sol:Stampost",
            "label": "opened",
            "offset": 0,
            "slot": "5",
            "type": "t_bool"
          },
          {
            "astId": 754,
            "contract": "contracts/Stampost.sol:Stampost",
            "label": "isSet",
            "offset": 1,
            "slot": "5",
            "type": "t_bool"
          }
        ],
        "numberOfBytes": "192"
      },
      "t_struct(PublicKey)680_storage": {
        "encoding": "inplace",
        "label": "struct Stampost.PublicKey",
        "members": [
          {
            "astId": 677,
            "contract": "contracts/Stampost.sol:Stampost",
            "label": "key",
            "offset": 0,
            "slot": "0",
            "type": "t_string_storage"
          },
          {
            "astId": 679,
            "contract": "contracts/Stampost.sol:Stampost",
            "label": "isSet",
            "offset": 0,
            "slot": "1",
            "type": "t_bool"
          }
        ],
        "numberOfBytes": "64"
      },
      "t_struct(PublicKeyRequest)696_storage": {
        "encoding": "inplace",
        "label": "struct Stampost.PublicKeyRequest",
        "members": [
          {
            "astId": 686,
            "contract": "contracts/Stampost.sol:Stampost",
            "label": "timestamp",
            "offset": 0,
            "slot": "0",
            "type": "t_uint256"
          },
          {
            "astId": 688,
            "contract": "contracts/Stampost.sol:Stampost",
            "label": "from",
            "offset": 0,
            "slot": "1",
            "type": "t_address"
          },
          {
            "astId": 690,
            "contract": "contracts/Stampost.sol:Stampost",
            "label": "to",
            "offset": 0,
            "slot": "2",
            "type": "t_address"
          },
          {
            "astId": 692,
            "contract": "contracts/Stampost.sol:Stampost",
            "label": "stamps",
            "offset": 0,
            "slot": "3",
            "type": "t_uint256"
          },
          {
            "astId": 695,
            "contract": "contracts/Stampost.sol:Stampost",
            "label": "status",
            "offset": 0,
            "slot": "4",
            "type": "t_enum(PublicKeyRequestStatus)684"
          }
        ],
        "numberOfBytes": "160"
      },
      "t_uint256": {
        "encoding": "inplace",
        "label": "uint256",
        "numberOfBytes": "32"
      }
    }
  }
}