{
  "address": "0x812dB8a23D63202563C63b7612f46Ff3f66bA5E0",
  "abi": [
    {
      "inputs": [],
      "stateMutability": "nonpayable",
      "type": "constructor"
    },
    {
      "anonymous": false,
      "inputs": [
        {
          "indexed": true,
          "internalType": "address",
          "name": "previousOwner",
          "type": "address"
        },
        {
          "indexed": true,
          "internalType": "address",
          "name": "newOwner",
          "type": "address"
        }
      ],
      "name": "OwnershipTransferred",
      "type": "event"
    },
    {
      "inputs": [
        {
          "internalType": "uint256",
          "name": "requestId",
          "type": "uint256"
        },
        {
          "internalType": "string",
          "name": "publicKey",
          "type": "string"
        }
      ],
      "name": "acceptPublicKeyRequest",
      "outputs": [],
      "stateMutability": "nonpayable",
      "type": "function"
    },
    {
      "inputs": [
        {
          "internalType": "address",
          "name": "user",
          "type": "address"
        }
      ],
      "name": "getAcceptedPublicKey",
      "outputs": [
        {
          "internalType": "string",
          "name": "",
          "type": "string"
        }
      ],
      "stateMutability": "view",
      "type": "function"
    },
    {
      "inputs": [
        {
          "internalType": "uint256",
          "name": "letterId",
          "type": "uint256"
        }
      ],
      "name": "getMail",
      "outputs": [
        {
          "components": [
            {
              "internalType": "uint256",
              "name": "timestamp",
              "type": "uint256"
            },
            {
              "internalType": "address",
              "name": "from",
              "type": "address"
            },
            {
              "internalType": "address",
              "name": "to",
              "type": "address"
            },
            {
              "internalType": "string",
              "name": "message",
              "type": "string"
            },
            {
              "internalType": "uint256",
              "name": "stamps",
              "type": "uint256"
            },
            {
              "internalType": "bool",
              "name": "opened",
              "type": "bool"
            },
            {
              "internalType": "bool",
              "name": "isSet",
              "type": "bool"
            }
          ],
          "internalType": "struct Stampost.Letter",
          "name": "letter",
          "type": "tuple"
        }
      ],
      "stateMutability": "nonpayable",
      "type": "function"
    },
    {
      "inputs": [],
      "name": "getOutcomingRequests",
      "outputs": [
        {
          "components": [
            {
              "internalType": "uint256",
              "name": "id",
              "type": "uint256"
            },
            {
              "internalType": "uint256",
              "name": "timestamp",
              "type": "uint256"
            },
            {
              "internalType": "address",
              "name": "from",
              "type": "address"
            },
            {
              "internalType": "address",
              "name": "to",
              "type": "address"
            },
            {
              "internalType": "uint256",
              "name": "stamps",
              "type": "uint256"
            },
            {
              "internalType": "enum Stampost.PublicKeyRequestStatus",
              "name": "status",
              "type": "uint8"
            }
          ],
          "internalType": "struct Stampost.PublicKeyRequest[]",
          "name": "",
          "type": "tuple[]"
        }
      ],
      "stateMutability": "view",
      "type": "function"
    },
    {
      "inputs": [
        {
          "internalType": "address",
          "name": "user",
          "type": "address"
        }
      ],
      "name": "getPublicKey",
      "outputs": [
        {
          "internalType": "string",
          "name": "",
          "type": "string"
        }
      ],
      "stateMutability": "view",
      "type": "function"
    },
    {
      "inputs": [
        {
          "internalType": "address",
          "name": "_recepient",
          "type": "address"
        }
      ],
      "name": "getRequestsForAddress",
      "outputs": [
        {
          "components": [
            {
              "internalType": "uint256",
              "name": "id",
              "type": "uint256"
            },
            {
              "internalType": "uint256",
              "name": "timestamp",
              "type": "uint256"
            },
            {
              "internalType": "address",
              "name": "from",
              "type": "address"
            },
            {
              "internalType": "address",
              "name": "to",
              "type": "address"
            },
            {
              "internalType": "uint256",
              "name": "stamps",
              "type": "uint256"
            },
            {
              "internalType": "enum Stampost.PublicKeyRequestStatus",
              "name": "status",
              "type": "uint8"
            }
          ],
          "internalType": "struct Stampost.PublicKeyRequest[]",
          "name": "",
          "type": "tuple[]"
        }
      ],
      "stateMutability": "view",
      "type": "function"
    },
    {
      "inputs": [],
      "name": "getStampTokenAddress",
      "outputs": [
        {
          "internalType": "address",
          "name": "",
          "type": "address"
        }
      ],
      "stateMutability": "view",
      "type": "function"
    },
    {
      "inputs": [],
      "name": "incomingMail",
      "outputs": [
        {
          "components": [
            {
              "internalType": "uint256",
              "name": "timestamp",
              "type": "uint256"
            },
            {
              "internalType": "address",
              "name": "from",
              "type": "address"
            },
            {
              "internalType": "address",
              "name": "to",
              "type": "address"
            },
            {
              "internalType": "string",
              "name": "message",
              "type": "string"
            },
            {
              "internalType": "uint256",
              "name": "stamps",
              "type": "uint256"
            },
            {
              "internalType": "bool",
              "name": "opened",
              "type": "bool"
            },
            {
              "internalType": "bool",
              "name": "isSet",
              "type": "bool"
            }
          ],
          "internalType": "struct Stampost.Letter[]",
          "name": "incomingLetters",
          "type": "tuple[]"
        }
      ],
      "stateMutability": "view",
      "type": "function"
    },
    {
      "inputs": [],
      "name": "outcomingMail",
      "outputs": [
        {
          "components": [
            {
              "internalType": "uint256",
              "name": "timestamp",
              "type": "uint256"
            },
            {
              "internalType": "address",
              "name": "from",
              "type": "address"
            },
            {
              "internalType": "address",
              "name": "to",
              "type": "address"
            },
            {
              "internalType": "string",
              "name": "message",
              "type": "string"
            },
            {
              "internalType": "uint256",
              "name": "stamps",
              "type": "uint256"
            },
            {
              "internalType": "bool",
              "name": "opened",
              "type": "bool"
            },
            {
              "internalType": "bool",
              "name": "isSet",
              "type": "bool"
            }
          ],
          "internalType": "struct Stampost.Letter[]",
          "name": "outcomingLetters",
          "type": "tuple[]"
        }
      ],
      "stateMutability": "view",
      "type": "function"
    },
    {
      "inputs": [],
      "name": "owner",
      "outputs": [
        {
          "internalType": "address",
          "name": "",
          "type": "address"
        }
      ],
      "stateMutability": "view",
      "type": "function"
    },
    {
      "inputs": [
        {
          "internalType": "address",
          "name": "",
          "type": "address"
        }
      ],
      "name": "publicKeys",
      "outputs": [
        {
          "internalType": "string",
          "name": "key",
          "type": "string"
        },
        {
          "internalType": "bool",
          "name": "isSet",
          "type": "bool"
        }
      ],
      "stateMutability": "view",
      "type": "function"
    },
    {
      "inputs": [],
      "name": "renounceOwnership",
      "outputs": [],
      "stateMutability": "nonpayable",
      "type": "function"
    },
    {
      "inputs": [
        {
          "internalType": "uint256",
          "name": "_chainId",
          "type": "uint256"
        },
        {
          "internalType": "address",
          "name": "_recepient",
          "type": "address"
        },
        {
          "internalType": "uint256",
          "name": "_stamps",
          "type": "uint256"
        },
        {
          "internalType": "string",
          "name": "_publicKey",
          "type": "string"
        }
      ],
      "name": "requestPublicKey",
      "outputs": [],
      "stateMutability": "nonpayable",
      "type": "function"
    },
    {
      "inputs": [
        {
          "internalType": "uint256",
          "name": "chainId",
          "type": "uint256"
        },
        {
          "internalType": "address",
          "name": "_recepient",
          "type": "address"
        },
        {
          "internalType": "string",
          "name": "_message",
          "type": "string"
        },
        {
          "internalType": "uint256",
          "name": "_stamps",
          "type": "uint256"
        }
      ],
      "name": "sendMail",
      "outputs": [],
      "stateMutability": "nonpayable",
      "type": "function"
    },
    {
      "inputs": [
        {
          "internalType": "address",
          "name": "_stamp_token_address",
          "type": "address"
        }
      ],
      "name": "setStampToken",
      "outputs": [],
      "stateMutability": "nonpayable",
      "type": "function"
    },
    {
      "inputs": [],
      "name": "stamp_token_address",
      "outputs": [
        {
          "internalType": "address",
          "name": "",
          "type": "address"
        }
      ],
      "stateMutability": "view",
      "type": "function"
    },
    {
      "inputs": [
        {
          "internalType": "address",
          "name": "newOwner",
          "type": "address"
        }
      ],
      "name": "transferOwnership",
      "outputs": [],
      "stateMutability": "nonpayable",
      "type": "function"
    }
  ],
  "transactionHash": "0xb006176c2b605f022a0ff886ded3129da551fc5147f6a1a551cf91d74f849a9b",
  "args": [],
  "numDeployments": 8,
  "solcInputHash": "60eac3f99c503199072c37e4573969ed",
  "bytecode": "0x60806040526729a2241af62c00006002553480156200001d57600080fd5b506200003e620000326200008f60201b60201c565b6200009760201b60201c565b620000896040518060400160405280600b81526020017f636f6e7374727563746f720000000000000000000000000000000000000000008152506200015b60201b62002a451760201c565b620002ef565b600033905090565b60008060009054906101000a900473ffffffffffffffffffffffffffffffffffffffff169050816000806101000a81548173ffffffffffffffffffffffffffffffffffffffff021916908373ffffffffffffffffffffffffffffffffffffffff1602179055508173ffffffffffffffffffffffffffffffffffffffff168173ffffffffffffffffffffffffffffffffffffffff167f8be0079c531659141344cd1fd0a4f28419497f9722a3daafe3b4186f6b6457e060405160405180910390a35050565b620001fb8160405160240162000172919062000268565b6040516020818303038152906040527f41304fac000000000000000000000000000000000000000000000000000000007bffffffffffffffffffffffffffffffffffffffffffffffffffffffff19166020820180517bffffffffffffffffffffffffffffffffffffffffffffffffffffffff8381831617835250505050620001fe60201b60201c565b50565b60008151905060006a636f6e736f6c652e6c6f679050602083016000808483855afa5050505050565b600062000234826200028c565b62000240818562000297565b935062000252818560208601620002a8565b6200025d81620002de565b840191505092915050565b6000602082019050818103600083015262000284818462000227565b905092915050565b600081519050919050565b600082825260208201905092915050565b60005b83811015620002c8578082015181840152602081019050620002ab565b83811115620002d8576000848401525b50505050565b6000601f19601f8301169050919050565b61492080620002ff6000396000f3fe608060405234801561001057600080fd5b506004361061010b5760003560e01c8063a3d6f9a9116100a2578063dcec3ec811610071578063dcec3ec814610295578063de4e1c55146102c5578063e2621520146102f5578063f2fde38b14610311578063f813d4371461032d5761010b565b8063a3d6f9a9146101fc578063b0b4de941461022d578063bcdae1ec14610249578063dcc53305146102655761010b565b80637fd33fd2116100de5780637fd33fd2146101725780638551f9d514610190578063857cdbb8146101ae5780638da5cb5b146101de5761010b565b80634f0483ea14610110578063522e17091461012e5780635cfcafae1461014c578063715018a614610168575b600080fd5b61011861034b565b6040516101259190613f84565b60405180910390f35b610136610371565b6040516101439190613f84565b60405180910390f35b6101666004803603810190610161919061385d565b61039b565b005b61017061045b565b005b61017a6104e3565b6040516101879190613ff8565b60405180910390f35b61019861094d565b6040516101a59190613fd6565b60405180910390f35b6101c860048036038101906101c3919061385d565b610dee565b6040516101d59190614035565b60405180910390f35b6101e6610ec8565b6040516101f39190613f84565b60405180910390f35b6102166004803603810190610211919061385d565b610ef1565b604051610224929190614057565b60405180910390f35b610247600480360381019061024291906138d8565b610faa565b005b610263600480360381019061025e9190613958565b611388565b005b61027f600480360381019061027a9190613886565b611861565b60405161028c9190614257565b60405180910390f35b6102af60048036038101906102aa919061385d565b611b72565b6040516102bc9190613ff8565b60405180910390f35b6102df60048036038101906102da919061385d565b611fde565b6040516102ec9190614035565b60405180910390f35b61030f600480360381019061030a91906139d8565b6120b8565b005b61032b6004803603810190610326919061385d565b6124ac565b005b6103356125a4565b6040516103429190613fd6565b60405180910390f35b600160009054906101000a900473ffffffffffffffffffffffffffffffffffffffff1681565b6000600160009054906101000a900473ffffffffffffffffffffffffffffffffffffffff16905090565b6103a3612ade565b73ffffffffffffffffffffffffffffffffffffffff166103c1610ec8565b73ffffffffffffffffffffffffffffffffffffffff1614610417576040517f08c379a000000000000000000000000000000000000000000000000000000000815260040161040e906141d7565b60405180910390fd5b80600160006101000a81548173ffffffffffffffffffffffffffffffffffffffff021916908373ffffffffffffffffffffffffffffffffffffffff16021790555050565b610463612ade565b73ffffffffffffffffffffffffffffffffffffffff16610481610ec8565b73ffffffffffffffffffffffffffffffffffffffff16146104d7576040517f08c379a00000000000000000000000000000000000000000000000000000000081526004016104ce906141d7565b60405180910390fd5b6104e16000612ae6565b565b60606000600760003373ffffffffffffffffffffffffffffffffffffffff1673ffffffffffffffffffffffffffffffffffffffff1681526020019081526020016000205490506105686040518060400160405280601881526020017f73656e646572546f74616c5265717565737473436f756e74000000000000000081525082612baa565b60008114156105f457600067ffffffffffffffff8111156105b2577f4e487b7100000000000000000000000000000000000000000000000000000000600052604160045260246000fd5b6040519080825280602002602001820160405280156105eb57816020015b6105d861362a565b8152602001906001900390816105d05790505b5091505061094a565b60008167ffffffffffffffff811115610636577f4e487b7100000000000000000000000000000000000000000000000000000000600052604160045260246000fd5b60405190808252806020026020018201604052801561066f57816020015b61065c61362a565b8152602001906001900390816106545790505b50905060005b82811015610903576000600a60003373ffffffffffffffffffffffffffffffffffffffff1673ffffffffffffffffffffffffffffffffffffffff16815260200190815260200160002060006001846106cd9190614333565b815260200190815260200160002054905061071d6040518060400160405280600981526020017f726571756573744964000000000000000000000000000000000000000000000081525082612baa565b61073c6005600083815260200190815260200160002060040154612c46565b600560008281526020019081526020016000206040518060c001604052908160008201548152602001600182015481526020016002820160009054906101000a900473ffffffffffffffffffffffffffffffffffffffff1673ffffffffffffffffffffffffffffffffffffffff1673ffffffffffffffffffffffffffffffffffffffff1681526020016003820160009054906101000a900473ffffffffffffffffffffffffffffffffffffffff1673ffffffffffffffffffffffffffffffffffffffff1673ffffffffffffffffffffffffffffffffffffffff168152602001600482015481526020016005820160009054906101000a900460ff16600281111561086f577f4e487b7100000000000000000000000000000000000000000000000000000000600052602160045260246000fd5b60028111156108a7577f4e487b7100000000000000000000000000000000000000000000000000000000600052602160045260246000fd5b815250508383815181106108e4577f4e487b7100000000000000000000000000000000000000000000000000000000600052603260045260246000fd5b60200260200101819052505080806108fb9061445b565b915050610675565b506109446040518060400160405280600d81526020017f726573756c742e6c656e677468000000000000000000000000000000000000008152508251612baa565b80925050505b90565b60606000600f60003373ffffffffffffffffffffffffffffffffffffffff1673ffffffffffffffffffffffffffffffffffffffff1681526020019081526020016000205490506109d26040518060400160405280601581526020017f746f74616c4f7574636f6d696e674c657474657273000000000000000000000081525082612baa565b6000811415610a5e57600067ffffffffffffffff811115610a1c577f4e487b7100000000000000000000000000000000000000000000000000000000600052604160045260246000fd5b604051908082528060200260200182016040528015610a5557816020015b610a426136c4565b815260200190600190039081610a3a5790505b50915050610deb565b60008167ffffffffffffffff811115610aa0577f4e487b7100000000000000000000000000000000000000000000000000000000600052604160045260246000fd5b604051908082528060200260200182016040528015610ad957816020015b610ac66136c4565b815260200190600190039081610abe5790505b50905060005b82811015610da4576000601160003373ffffffffffffffffffffffffffffffffffffffff1673ffffffffffffffffffffffffffffffffffffffff1681526020019081526020016000206000600184610b379190614333565b8152602001908152602001600020549050610b876040518060400160405280600881526020017f6c6574746572496400000000000000000000000000000000000000000000000081525082612baa565b610ba6600d600083815260200190815260200160002060000154612c46565b600d60008281526020019081526020016000206040518060e0016040529081600082015481526020016001820160009054906101000a900473ffffffffffffffffffffffffffffffffffffffff1673ffffffffffffffffffffffffffffffffffffffff1673ffffffffffffffffffffffffffffffffffffffff1681526020016002820160009054906101000a900473ffffffffffffffffffffffffffffffffffffffff1673ffffffffffffffffffffffffffffffffffffffff1673ffffffffffffffffffffffffffffffffffffffff168152602001600382018054610c8a90614429565b80601f0160208091040260200160405190810160405280929190818152602001828054610cb690614429565b8015610d035780601f10610cd857610100808354040283529160200191610d03565b820191906000526020600020905b815481529060010190602001808311610ce657829003601f168201915b50505050508152602001600482015481526020016005820160009054906101000a900460ff161515151581526020016005820160019054906101000a900460ff161515151581525050838381518110610d85577f4e487b7100000000000000000000000000000000000000000000000000000000600052603260045260246000fd5b6020026020010181905250508080610d9c9061445b565b915050610adf565b50610de56040518060400160405280600681526020017f6c656e67746800000000000000000000000000000000000000000000000000008152508251612baa565b80925050505b90565b60606000600360008473ffffffffffffffffffffffffffffffffffffffff1673ffffffffffffffffffffffffffffffffffffffff1681526020019081526020016000206000018054610e3f90614429565b80601f0160208091040260200160405190810160405280929190818152602001828054610e6b90614429565b8015610eb85780601f10610e8d57610100808354040283529160200191610eb8565b820191906000526020600020905b815481529060010190602001808311610e9b57829003601f168201915b5050505050905080915050919050565b60008060009054906101000a900473ffffffffffffffffffffffffffffffffffffffff16905090565b6003602052806000526040600020600091509050806000018054610f1490614429565b80601f0160208091040260200160405190810160405280929190818152602001828054610f4090614429565b8015610f8d5780601f10610f6257610100808354040283529160200191610f8d565b820191906000526020600020905b815481529060010190602001808311610f7057829003601f168201915b5050505050908060010160009054906101000a900460ff16905082565b6000600b60003373ffffffffffffffffffffffffffffffffffffffff1673ffffffffffffffffffffffffffffffffffffffff16815260200190815260200160002060008673ffffffffffffffffffffffffffffffffffffffff1673ffffffffffffffffffffffffffffffffffffffff168152602001908152602001600020549050600081141561106f576040517f08c379a0000000000000000000000000000000000000000000000000000000008152600401611066906140f7565b60405180910390fd5b600160028111156110a9577f4e487b7100000000000000000000000000000000000000000000000000000000600052602160045260246000fd5b6005600083815260200190815260200160002060050160009054906101000a900460ff166002811115611105577f4e487b7100000000000000000000000000000000000000000000000000000000600052602160045260246000fd5b14611145576040517f08c379a000000000000000000000000000000000000000000000000000000000815260040161113c906141b7565b60405180910390fd5b6000600160009054906101000a900473ffffffffffffffffffffffffffffffffffffffff1673ffffffffffffffffffffffffffffffffffffffff166370a08231336040518263ffffffff1660e01b81526004016111a29190613f84565b60206040518083038186803b1580156111ba57600080fd5b505afa1580156111ce573d6000803e3d6000fd5b505050506040513d601f19601f820116820180604052508101906111f291906138af565b905082811015611237576040517f08c379a000000000000000000000000000000000000000000000000000000000815260040161122e90614177565b60405180910390fd5b60006040518060e001604052804281526020013373ffffffffffffffffffffffffffffffffffffffff1681526020018873ffffffffffffffffffffffffffffffffffffffff16815260200187878080601f016020809104026020016040519081016040528093929190818152602001838380828437600081840152601f19601f8201169050808301925050505050505081526020018581526020016000151581526020016001151581525090506112ed81612cdf565b600160009054906101000a900473ffffffffffffffffffffffffffffffffffffffff1673ffffffffffffffffffffffffffffffffffffffff16637750c9f03389876040518463ffffffff1660e01b815260040161134c93929190613f9f565b600060405180830381600087803b15801561136657600080fd5b505af115801561137a573d6000803e3d6000fd5b505050505050505050505050565b6002548310156113cd576040517f08c379a00000000000000000000000000000000000000000000000000000000081526004016113c490614217565b60405180910390fd5b6000600160009054906101000a900473ffffffffffffffffffffffffffffffffffffffff1673ffffffffffffffffffffffffffffffffffffffff166370a08231336040518263ffffffff1660e01b815260040161142a9190613f84565b60206040518083038186803b15801561144257600080fd5b505afa158015611456573d6000803e3d6000fd5b505050506040513d601f19601f8201168201806040525081019061147a91906138af565b9050838110156114bf576040517f08c379a00000000000000000000000000000000000000000000000000000000081526004016114b690614177565b60405180910390fd5b8473ffffffffffffffffffffffffffffffffffffffff163373ffffffffffffffffffffffffffffffffffffffff16141561152e576040517f08c379a0000000000000000000000000000000000000000000000000000000008152600401611525906140b7565b60405180910390fd5b6000600960008773ffffffffffffffffffffffffffffffffffffffff1673ffffffffffffffffffffffffffffffffffffffff16815260200190815260200160002060003373ffffffffffffffffffffffffffffffffffffffff1673ffffffffffffffffffffffffffffffffffffffff1681526020019081526020016000205490506115ee6040518060400160405280600981526020017f726571756573744944000000000000000000000000000000000000000000000081525082612baa565b60008114611631576040517f08c379a000000000000000000000000000000000000000000000000000000000815260040161162890614237565b60405180910390fd5b604051806040016040528085858080601f016020809104026020016040519081016040528093929190818152602001838380828437600081840152601f19601f82011690508083019250505050505050815260200160011515815250600360003373ffffffffffffffffffffffffffffffffffffffff1673ffffffffffffffffffffffffffffffffffffffff16815260200190815260200160002060008201518160000190805190602001906116e8929190613731565b5060208201518160010160006101000a81548160ff0219169083151502179055509050506004600081548092919061171f9061445b565b919050555060006040518060c0016040528060045481526020014281526020013373ffffffffffffffffffffffffffffffffffffffff1681526020018873ffffffffffffffffffffffffffffffffffffffff168152602001878152602001600060028111156117b7577f4e487b7100000000000000000000000000000000000000000000000000000000600052602160045260246000fd5b81525090506117c68782613161565b600160009054906101000a900473ffffffffffffffffffffffffffffffffffffffff1673ffffffffffffffffffffffffffffffffffffffff16637750c9f03389896040518463ffffffff1660e01b815260040161182593929190613f9f565b600060405180830381600087803b15801561183f57600080fd5b505af1158015611853573d6000803e3d6000fd5b505050505050505050505050565b6118696136c4565b600d60008381526020019081526020016000206040518060e0016040529081600082015481526020016001820160009054906101000a900473ffffffffffffffffffffffffffffffffffffffff1673ffffffffffffffffffffffffffffffffffffffff1673ffffffffffffffffffffffffffffffffffffffff1681526020016002820160009054906101000a900473ffffffffffffffffffffffffffffffffffffffff1673ffffffffffffffffffffffffffffffffffffffff1673ffffffffffffffffffffffffffffffffffffffff16815260200160038201805461194d90614429565b80601f016020809104026020016040519081016040528092919081815260200182805461197990614429565b80156119c65780601f1061199b576101008083540402835291602001916119c6565b820191906000526020600020905b8154815290600101906020018083116119a957829003601f168201915b50505050508152602001600482015481526020016005820160009054906101000a900460ff161515151581526020016005820160019054906101000a900460ff1615151515815250509050611a1e8160c00151613568565b8060c00151611a62576040517f08c379a0000000000000000000000000000000000000000000000000000000008152600401611a5990614137565b60405180910390fd5b3373ffffffffffffffffffffffffffffffffffffffff16816040015173ffffffffffffffffffffffffffffffffffffffff1614611ad4576040517f08c379a0000000000000000000000000000000000000000000000000000000008152600401611acb90614157565b60405180910390fd5b600160009054906101000a900473ffffffffffffffffffffffffffffffffffffffff1673ffffffffffffffffffffffffffffffffffffffff166359508f8f82602001513384608001516040518463ffffffff1660e01b8152600401611b3b93929190613f9f565b600060405180830381600087803b158015611b5557600080fd5b505af1158015611b69573d6000803e3d6000fd5b50505050919050565b60606000600660008473ffffffffffffffffffffffffffffffffffffffff1673ffffffffffffffffffffffffffffffffffffffff168152602001908152602001600020549050611bf76040518060400160405280601681526020017f726563657069656e74546f74616c52657175657374730000000000000000000081525082612baa565b6000811415611c8357600067ffffffffffffffff811115611c41577f4e487b7100000000000000000000000000000000000000000000000000000000600052604160045260246000fd5b604051908082528060200260200182016040528015611c7a57816020015b611c6761362a565b815260200190600190039081611c5f5790505b50915050611fd9565b60008167ffffffffffffffff811115611cc5577f4e487b7100000000000000000000000000000000000000000000000000000000600052604160045260246000fd5b604051908082528060200260200182016040528015611cfe57816020015b611ceb61362a565b815260200190600190039081611ce35790505b50905060005b82811015611f92576000600860008773ffffffffffffffffffffffffffffffffffffffff1673ffffffffffffffffffffffffffffffffffffffff1681526020019081526020016000206000600184611d5c9190614333565b8152602001908152602001600020549050611dac6040518060400160405280600981526020017f726571756573744964000000000000000000000000000000000000000000000081525082612baa565b611dcb6005600083815260200190815260200160002060040154612c46565b600560008281526020019081526020016000206040518060c001604052908160008201548152602001600182015481526020016002820160009054906101000a900473ffffffffffffffffffffffffffffffffffffffff1673ffffffffffffffffffffffffffffffffffffffff1673ffffffffffffffffffffffffffffffffffffffff1681526020016003820160009054906101000a900473ffffffffffffffffffffffffffffffffffffffff1673ffffffffffffffffffffffffffffffffffffffff1673ffffffffffffffffffffffffffffffffffffffff168152602001600482015481526020016005820160009054906101000a900460ff166002811115611efe577f4e487b7100000000000000000000000000000000000000000000000000000000600052602160045260246000fd5b6002811115611f36577f4e487b7100000000000000000000000000000000000000000000000000000000600052602160045260246000fd5b81525050838381518110611f73577f4e487b7100000000000000000000000000000000000000000000000000000000600052603260045260246000fd5b6020026020010181905250508080611f8a9061445b565b915050611d04565b50611fd36040518060400160405280600681526020017f6c656e67746800000000000000000000000000000000000000000000000000008152508251612baa565b80925050505b919050565b60606000600360008473ffffffffffffffffffffffffffffffffffffffff1673ffffffffffffffffffffffffffffffffffffffff168152602001908152602001600020600001805461202f90614429565b80601f016020809104026020016040519081016040528092919081815260200182805461205b90614429565b80156120a85780601f1061207d576101008083540402835291602001916120a8565b820191906000526020600020905b81548152906001019060200180831161208b57829003601f168201915b5050505050905080915050919050565b6004548311156120fd576040517f08c379a00000000000000000000000000000000000000000000000000000000081526004016120f4906140d7565b60405180910390fd5b60006005600085815260200190815260200160002090503373ffffffffffffffffffffffffffffffffffffffff168160030160009054906101000a900473ffffffffffffffffffffffffffffffffffffffff1673ffffffffffffffffffffffffffffffffffffffff16146121a6576040517f08c379a000000000000000000000000000000000000000000000000000000000815260040161219d90614197565b60405180910390fd5b600060028111156121e0577f4e487b7100000000000000000000000000000000000000000000000000000000600052602160045260246000fd5b8160050160009054906101000a900460ff16600281111561222a577f4e487b7100000000000000000000000000000000000000000000000000000000600052602160045260246000fd5b1461226a576040517f08c379a0000000000000000000000000000000000000000000000000000000008152600401612261906141f7565b60405180910390fd5b600360003373ffffffffffffffffffffffffffffffffffffffff1673ffffffffffffffffffffffffffffffffffffffff16815260200190815260200160002060010160009054906101000a900460ff1661239a57604051806040016040528084848080601f016020809104026020016040519081016040528093929190818152602001838380828437600081840152601f19601f82011690508083019250505050505050815260200160011515815250600360003373ffffffffffffffffffffffffffffffffffffffff1673ffffffffffffffffffffffffffffffffffffffff1681526020019081526020016000206000820151816000019080519060200190612375929190613731565b5060208201518160010160006101000a81548160ff0219169083151502179055509050505b60018160050160006101000a81548160ff021916908360028111156123e8577f4e487b7100000000000000000000000000000000000000000000000000000000600052602160045260246000fd5b0217905550600160009054906101000a900473ffffffffffffffffffffffffffffffffffffffff1673ffffffffffffffffffffffffffffffffffffffff166359508f8f8260020160009054906101000a900473ffffffffffffffffffffffffffffffffffffffff163384600401546040518463ffffffff1660e01b815260040161247493929190613f9f565b600060405180830381600087803b15801561248e57600080fd5b505af11580156124a2573d6000803e3d6000fd5b5050505050505050565b6124b4612ade565b73ffffffffffffffffffffffffffffffffffffffff166124d2610ec8565b73ffffffffffffffffffffffffffffffffffffffff1614612528576040517f08c379a000000000000000000000000000000000000000000000000000000000815260040161251f906141d7565b60405180910390fd5b600073ffffffffffffffffffffffffffffffffffffffff168173ffffffffffffffffffffffffffffffffffffffff161415612598576040517f08c379a000000000000000000000000000000000000000000000000000000000815260040161258f90614117565b60405180910390fd5b6125a181612ae6565b50565b60606000600e60003373ffffffffffffffffffffffffffffffffffffffff1673ffffffffffffffffffffffffffffffffffffffff1681526020019081526020016000205490506126296040518060400160405280601481526020017f746f74616c496e636f6d696e674c65747465727300000000000000000000000081525082612baa565b60008114156126b557600067ffffffffffffffff811115612673577f4e487b7100000000000000000000000000000000000000000000000000000000600052604160045260246000fd5b6040519080825280602002602001820160405280156126ac57816020015b6126996136c4565b8152602001906001900390816126915790505b50915050612a42565b60008167ffffffffffffffff8111156126f7577f4e487b7100000000000000000000000000000000000000000000000000000000600052604160045260246000fd5b60405190808252806020026020018201604052801561273057816020015b61271d6136c4565b8152602001906001900390816127155790505b50905060005b828110156129fb576000601060003373ffffffffffffffffffffffffffffffffffffffff1673ffffffffffffffffffffffffffffffffffffffff168152602001908152602001600020600060018461278e9190614333565b81526020019081526020016000205490506127de6040518060400160405280600881526020017f6c6574746572496400000000000000000000000000000000000000000000000081525082612baa565b6127fd600d600083815260200190815260200160002060000154612c46565b600d60008281526020019081526020016000206040518060e0016040529081600082015481526020016001820160009054906101000a900473ffffffffffffffffffffffffffffffffffffffff1673ffffffffffffffffffffffffffffffffffffffff1673ffffffffffffffffffffffffffffffffffffffff1681526020016002820160009054906101000a900473ffffffffffffffffffffffffffffffffffffffff1673ffffffffffffffffffffffffffffffffffffffff1673ffffffffffffffffffffffffffffffffffffffff1681526020016003820180546128e190614429565b80601f016020809104026020016040519081016040528092919081815260200182805461290d90614429565b801561295a5780601f1061292f5761010080835404028352916020019161295a565b820191906000526020600020905b81548152906001019060200180831161293d57829003601f168201915b50505050508152602001600482015481526020016005820160009054906101000a900460ff161515151581526020016005820160019054906101000a900460ff1615151515815250508383815181106129dc577f4e487b7100000000000000000000000000000000000000000000000000000000600052603260045260246000fd5b60200260200101819052505080806129f39061445b565b915050612736565b50612a3c6040518060400160405280600681526020017f6c656e67746800000000000000000000000000000000000000000000000000008152508251612baa565b80925050505b90565b612adb81604051602401612a599190614035565b6040516020818303038152906040527f41304fac000000000000000000000000000000000000000000000000000000007bffffffffffffffffffffffffffffffffffffffffffffffffffffffff19166020820180517bffffffffffffffffffffffffffffffffffffffffffffffffffffffff8381831617835250505050613601565b50565b600033905090565b60008060009054906101000a900473ffffffffffffffffffffffffffffffffffffffff169050816000806101000a81548173ffffffffffffffffffffffffffffffffffffffff021916908373ffffffffffffffffffffffffffffffffffffffff1602179055508173ffffffffffffffffffffffffffffffffffffffff168173ffffffffffffffffffffffffffffffffffffffff167f8be0079c531659141344cd1fd0a4f28419497f9722a3daafe3b4186f6b6457e060405160405180910390a35050565b612c428282604051602401612bc0929190614087565b6040516020818303038152906040527f9710a9d0000000000000000000000000000000000000000000000000000000007bffffffffffffffffffffffffffffffffffffffffffffffffffffffff19166020820180517bffffffffffffffffffffffffffffffffffffffffffffffffffffffff8381831617835250505050613601565b5050565b612cdc81604051602401612c5a9190614279565b6040516020818303038152906040527ff5b1bba9000000000000000000000000000000000000000000000000000000007bffffffffffffffffffffffffffffffffffffffffffffffffffffffff19166020820180517bffffffffffffffffffffffffffffffffffffffffffffffffffffffff8381831617835250505050613601565b50565b600081604001519050612d2b6040518060400160405280601081526020017f6c65747465722074696d657374616d70000000000000000000000000000000008152508360000151612baa565b600c6000815480929190612d3e9061445b565b919050555081600d6000600c5481526020019081526020016000206000820151816000015560208201518160010160006101000a81548173ffffffffffffffffffffffffffffffffffffffff021916908373ffffffffffffffffffffffffffffffffffffffff16021790555060408201518160020160006101000a81548173ffffffffffffffffffffffffffffffffffffffff021916908373ffffffffffffffffffffffffffffffffffffffff1602179055506060820151816003019080519060200190612e0d929190613731565b506080820151816004015560a08201518160050160006101000a81548160ff02191690831515021790555060c08201518160050160016101000a81548160ff021916908315150217905550905050600e60008273ffffffffffffffffffffffffffffffffffffffff1673ffffffffffffffffffffffffffffffffffffffff1681526020019081526020016000206000815480929190612eab9061445b565b9190505550600f60003373ffffffffffffffffffffffffffffffffffffffff1673ffffffffffffffffffffffffffffffffffffffff1681526020019081526020016000206000815480929190612f009061445b565b9190505550612f466040518060400160405280600c81526020017f746f74616c4c6574746572730000000000000000000000000000000000000000815250600c54612baa565b612fc46040518060400160405280601881526020017f696e636f6d696e67546f74616c4c6574746572735b746f5d0000000000000000815250600e60008473ffffffffffffffffffffffffffffffffffffffff1673ffffffffffffffffffffffffffffffffffffffff16815260200190815260200160002054612baa565b6130256040518060600160405280602181526020016148ca60219139600f60003373ffffffffffffffffffffffffffffffffffffffff1673ffffffffffffffffffffffffffffffffffffffff16815260200190815260200160002054612baa565b6000600e60008373ffffffffffffffffffffffffffffffffffffffff1673ffffffffffffffffffffffffffffffffffffffff1681526020019081526020016000205490506000600f60003373ffffffffffffffffffffffffffffffffffffffff1673ffffffffffffffffffffffffffffffffffffffff168152602001908152602001600020549050600c54601060008573ffffffffffffffffffffffffffffffffffffffff1673ffffffffffffffffffffffffffffffffffffffff168152602001908152602001600020600083815260200190815260200160002081905550600c54601160003373ffffffffffffffffffffffffffffffffffffffff1673ffffffffffffffffffffffffffffffffffffffff16815260200190815260200160002060008481526020019081526020016000208190555050505050565b80600560006004548152602001908152602001600020600082015181600001556020820151816001015560408201518160020160006101000a81548173ffffffffffffffffffffffffffffffffffffffff021916908373ffffffffffffffffffffffffffffffffffffffff16021790555060608201518160030160006101000a81548173ffffffffffffffffffffffffffffffffffffffff021916908373ffffffffffffffffffffffffffffffffffffffff1602179055506080820151816004015560a08201518160050160006101000a81548160ff02191690836002811115613274577f4e487b7100000000000000000000000000000000000000000000000000000000600052602160045260246000fd5b0217905550905050600660008373ffffffffffffffffffffffffffffffffffffffff1673ffffffffffffffffffffffffffffffffffffffff16815260200190815260200160002060008154809291906132cc9061445b565b9190505550600760003373ffffffffffffffffffffffffffffffffffffffff1673ffffffffffffffffffffffffffffffffffffffff16815260200190815260200160002060008154809291906133219061445b565b91905055506000600660008473ffffffffffffffffffffffffffffffffffffffff1673ffffffffffffffffffffffffffffffffffffffff1681526020019081526020016000205490506000600760003373ffffffffffffffffffffffffffffffffffffffff1673ffffffffffffffffffffffffffffffffffffffff168152602001908152602001600020549050600454600860008673ffffffffffffffffffffffffffffffffffffffff1673ffffffffffffffffffffffffffffffffffffffff168152602001908152602001600020600084815260200190815260200160002081905550600454600960008673ffffffffffffffffffffffffffffffffffffffff1673ffffffffffffffffffffffffffffffffffffffff16815260200190815260200160002060003373ffffffffffffffffffffffffffffffffffffffff1673ffffffffffffffffffffffffffffffffffffffff16815260200190815260200160002081905550600454600a60003373ffffffffffffffffffffffffffffffffffffffff1673ffffffffffffffffffffffffffffffffffffffff168152602001908152602001600020600083815260200190815260200160002081905550600454600b60003373ffffffffffffffffffffffffffffffffffffffff1673ffffffffffffffffffffffffffffffffffffffff16815260200190815260200160002060008673ffffffffffffffffffffffffffffffffffffffff1673ffffffffffffffffffffffffffffffffffffffff1681526020019081526020016000208190555050505050565b6135fe8160405160240161357c919061401a565b6040516020818303038152906040527f32458eed000000000000000000000000000000000000000000000000000000007bffffffffffffffffffffffffffffffffffffffffffffffffffffffff19166020820180517bffffffffffffffffffffffffffffffffffffffffffffffffffffffff8381831617835250505050613601565b50565b60008151905060006a636f6e736f6c652e6c6f679050602083016000808483855afa5050505050565b6040518060c001604052806000815260200160008152602001600073ffffffffffffffffffffffffffffffffffffffff168152602001600073ffffffffffffffffffffffffffffffffffffffff16815260200160008152602001600060028111156136be577f4e487b7100000000000000000000000000000000000000000000000000000000600052602160045260246000fd5b81525090565b6040518060e0016040528060008152602001600073ffffffffffffffffffffffffffffffffffffffff168152602001600073ffffffffffffffffffffffffffffffffffffffff16815260200160608152602001600081526020016000151581526020016000151581525090565b82805461373d90614429565b90600052602060002090601f01602090048101928261375f57600085556137a6565b82601f1061377857805160ff19168380011785556137a6565b828001600101855582156137a6579182015b828111156137a557825182559160200191906001019061378a565b5b5090506137b391906137b7565b5090565b5b808211156137d05760008160009055506001016137b8565b5090565b6000813590506137e38161489b565b92915050565b60008083601f8401126137fb57600080fd5b8235905067ffffffffffffffff81111561381457600080fd5b60208301915083600182028301111561382c57600080fd5b9250929050565b600081359050613842816148b2565b92915050565b600081519050613857816148b2565b92915050565b60006020828403121561386f57600080fd5b600061387d848285016137d4565b91505092915050565b60006020828403121561389857600080fd5b60006138a684828501613833565b91505092915050565b6000602082840312156138c157600080fd5b60006138cf84828501613848565b91505092915050565b6000806000806000608086880312156138f057600080fd5b60006138fe88828901613833565b955050602061390f888289016137d4565b945050604086013567ffffffffffffffff81111561392c57600080fd5b613938888289016137e9565b9350935050606061394b88828901613833565b9150509295509295909350565b60008060008060006080868803121561397057600080fd5b600061397e88828901613833565b955050602061398f888289016137d4565b94505060406139a088828901613833565b935050606086013567ffffffffffffffff8111156139bd57600080fd5b6139c9888289016137e9565b92509250509295509295909350565b6000806000604084860312156139ed57600080fd5b60006139fb86828701613833565b935050602084013567ffffffffffffffff811115613a1857600080fd5b613a24868287016137e9565b92509250509250925092565b6000613a3c8383613db3565b905092915050565b6000613a508383613eeb565b60c08301905092915050565b613a6581614389565b82525050565b613a7481614389565b82525050565b6000613a85826142b4565b613a8f81856142ef565b935083602082028501613aa185614294565b8060005b85811015613add5784840389528151613abe8582613a30565b9450613ac9836142d5565b925060208a01995050600181019050613aa5565b50829750879550505050505092915050565b6000613afa826142bf565b613b048185614300565b9350613b0f836142a4565b8060005b83811015613b40578151613b278882613a44565b9750613b32836142e2565b925050600181019050613b13565b5085935050505092915050565b613b568161439b565b82525050565b613b658161439b565b82525050565b613b74816143e4565b82525050565b6000613b85826142ca565b613b8f8185614311565b9350613b9f8185602086016143f6565b613ba881614531565b840191505092915050565b6000613bbe826142ca565b613bc88185614322565b9350613bd88185602086016143f6565b613be181614531565b840191505092915050565b6000613bf9602383614322565b9150613c0482614542565b604082019050919050565b6000613c1c601583614322565b9150613c2782614591565b602082019050919050565b6000613c3f602783614322565b9150613c4a826145ba565b604082019050919050565b6000613c62602683614322565b9150613c6d82614609565b604082019050919050565b6000613c85601683614322565b9150613c9082614658565b602082019050919050565b6000613ca8600f83614322565b9150613cb382614681565b602082019050919050565b6000613ccb603983614322565b9150613cd6826146aa565b604082019050919050565b6000613cee601b83614322565b9150613cf9826146f9565b602082019050919050565b6000613d11602b83614322565b9150613d1c82614722565b604082019050919050565b6000613d34602083614322565b9150613d3f82614771565b602082019050919050565b6000613d57602d83614322565b9150613d628261479a565b604082019050919050565b6000613d7a602383614322565b9150613d85826147e9565b604082019050919050565b6000613d9d602783614322565b9150613da882614838565b604082019050919050565b600060e083016000830151613dcb6000860182613f66565b506020830151613dde6020860182613a5c565b506040830151613df16040860182613a5c565b5060608301518482036060860152613e098282613b7a565b9150506080830151613e1e6080860182613f66565b5060a0830151613e3160a0860182613b4d565b5060c0830151613e4460c0860182613b4d565b508091505092915050565b600060e083016000830151613e676000860182613f66565b506020830151613e7a6020860182613a5c565b506040830151613e8d6040860182613a5c565b5060608301518482036060860152613ea58282613b7a565b9150506080830151613eba6080860182613f66565b5060a0830151613ecd60a0860182613b4d565b5060c0830151613ee060c0860182613b4d565b508091505092915050565b60c082016000820151613f016000850182613f66565b506020820151613f146020850182613f66565b506040820151613f276040850182613a5c565b506060820151613f3a6060850182613a5c565b506080820151613f4d6080850182613f66565b5060a0820151613f6060a0850182613b6b565b50505050565b613f6f816143da565b82525050565b613f7e816143da565b82525050565b6000602082019050613f996000830184613a6b565b92915050565b6000606082019050613fb46000830186613a6b565b613fc16020830185613a6b565b613fce6040830184613f75565b949350505050565b60006020820190508181036000830152613ff08184613a7a565b905092915050565b600060208201905081810360008301526140128184613aef565b905092915050565b600060208201905061402f6000830184613b5c565b92915050565b6000602082019050818103600083015261404f8184613bb3565b905092915050565b600060408201905081810360008301526140718185613bb3565b90506140806020830184613b5c565b9392505050565b600060408201905081810360008301526140a18185613bb3565b90506140b06020830184613f75565b9392505050565b600060208201905081810360008301526140d081613bec565b9050919050565b600060208201905081810360008301526140f081613c0f565b9050919050565b6000602082019050818103600083015261411081613c32565b9050919050565b6000602082019050818103600083015261413081613c55565b9050919050565b6000602082019050818103600083015261415081613c78565b9050919050565b6000602082019050818103600083015261417081613c9b565b9050919050565b6000602082019050818103600083015261419081613cbe565b9050919050565b600060208201905081810360008301526141b081613ce1565b9050919050565b600060208201905081810360008301526141d081613d04565b9050919050565b600060208201905081810360008301526141f081613d27565b9050919050565b6000602082019050818103600083015261421081613d4a565b9050919050565b6000602082019050818103600083015261423081613d6d565b9050919050565b6000602082019050818103600083015261425081613d90565b9050919050565b600060208201905081810360008301526142718184613e4f565b905092915050565b600060208201905061428e6000830184613f75565b92915050565b6000819050602082019050919050565b6000819050602082019050919050565b600081519050919050565b600081519050919050565b600081519050919050565b6000602082019050919050565b6000602082019050919050565b600082825260208201905092915050565b600082825260208201905092915050565b600082825260208201905092915050565b600082825260208201905092915050565b600061433e826143da565b9150614349836143da565b9250827fffffffffffffffffffffffffffffffffffffffffffffffffffffffffffffffff0382111561437e5761437d6144a4565b5b828201905092915050565b6000614394826143ba565b9050919050565b60008115159050919050565b60008190506143b582614887565b919050565b600073ffffffffffffffffffffffffffffffffffffffff82169050919050565b6000819050919050565b60006143ef826143a7565b9050919050565b60005b838110156144145780820151818401526020810190506143f9565b83811115614423576000848401525b50505050565b6000600282049050600182168061444157607f821691505b6020821081141561445557614454614502565b5b50919050565b6000614466826143da565b91507fffffffffffffffffffffffffffffffffffffffffffffffffffffffffffffffff821415614499576144986144a4565b5b600182019050919050565b7f4e487b7100000000000000000000000000000000000000000000000000000000600052601160045260246000fd5b7f4e487b7100000000000000000000000000000000000000000000000000000000600052602160045260246000fd5b7f4e487b7100000000000000000000000000000000000000000000000000000000600052602260045260246000fd5b6000601f19601f8301169050919050565b7f596f752063616e206e6f742073656e64207265717565737420746f20796f757360008201527f656c660000000000000000000000000000000000000000000000000000000000602082015250565b7f5265717565737420646f65736e27742065786973740000000000000000000000600082015250565b7f596f752068617665206e6f74207265717565737465642074686973206164647260008201527f6573732079657400000000000000000000000000000000000000000000000000602082015250565b7f4f776e61626c653a206e6577206f776e657220697320746865207a65726f206160008201527f6464726573730000000000000000000000000000000000000000000000000000602082015250565b7f4e6f206c65747465722077697468207468697320696400000000000000000000600082015250565b7f4e6f7420796f7572206c65747465720000000000000000000000000000000000600082015250565b7f596f752068617665206e6f7420656e6f756768207374616d707320696e20796f60008201527f752077616c6c65742c20627579206d6f7265206f6e2044455800000000000000602082015250565b7f546869732072657175657374206973206e6f7420666f7220796f750000000000600082015250565b7f526563657069656e7420686173206e6f7420616363657074656420796f75722060008201527f7265717565737420796574000000000000000000000000000000000000000000602082015250565b7f4f776e61626c653a2063616c6c6572206973206e6f7420746865206f776e6572600082015250565b7f5265717565737420686173206265656e20616c7265616479206163636570746560008201527f64206f72206465636c696e656400000000000000000000000000000000000000602082015250565b7f4174746163686564207374616d707320636f756e74206973206e6f7420656e6f60008201527f7567680000000000000000000000000000000000000000000000000000000000602082015250565b7f596f75206861766520616c72656164792072657175657374656420746869732060008201527f6164647265737300000000000000000000000000000000000000000000000000602082015250565b60038110614898576148976144d3565b5b50565b6148a481614389565b81146148af57600080fd5b50565b6148bb816143da565b81146148c657600080fd5b5056fe6f7574636f6d696e67546f74616c4c6574746572735b6d73672e73656e6465725da264697066735822122028f0380535cd1c1672f28fc2e5dd744595f4e36c40b410badb029e3b5a07c15e64736f6c63430008040033",
  "devdoc": {
    "kind": "dev",
    "methods": {
      "owner()": {
        "details": "Returns the address of the current owner."
      },
      "renounceOwnership()": {
        "details": "Leaves the contract without owner. It will not be possible to call `onlyOwner` functions anymore. Can only be called by the current owner. NOTE: Renouncing ownership will leave the contract without an owner, thereby removing any functionality that is only available to the owner."
      },
      "transferOwnership(address)": {
        "details": "Transfers ownership of the contract to a new account (`newOwner`). Can only be called by the current owner."
      }
    },
    "version": 1
  },
  "userdoc": {
    "kind": "user",
    "methods": {},
    "version": 1
  },
  "storageLayout": {
    "storage": [
      {
        "astId": 7,
        "contract": "contracts/Stampost.sol:Stampost",
        "label": "_owner",
        "offset": 0,
        "slot": "0",
        "type": "t_address"
      },
      {
        "astId": 672,
        "contract": "contracts/Stampost.sol:Stampost",
        "label": "stamp_token_address",
        "offset": 0,
        "slot": "1",
        "type": "t_address"
      },
      {
        "astId": 675,
        "contract": "contracts/Stampost.sol:Stampost",
        "label": "requestMininalFee",
        "offset": 0,
        "slot": "2",
        "type": "t_uint256"
      },
      {
        "astId": 703,
        "contract": "contracts/Stampost.sol:Stampost",
        "label": "publicKeys",
        "offset": 0,
        "slot": "3",
        "type": "t_mapping(t_address,t_struct(PublicKey)680_storage)"
      },
      {
        "astId": 705,
        "contract": "contracts/Stampost.sol:Stampost",
        "label": "totalRequests",
        "offset": 0,
        "slot": "4",
        "type": "t_uint256"
      },
      {
        "astId": 710,
        "contract": "contracts/Stampost.sol:Stampost",
        "label": "requests",
        "offset": 0,
        "slot": "5",
        "type": "t_mapping(t_uint256,t_struct(PublicKeyRequest)698_storage)"
      },
      {
        "astId": 714,
        "contract": "contracts/Stampost.sol:Stampost",
        "label": "addressTotalRequests",
        "offset": 0,
        "slot": "6",
        "type": "t_mapping(t_address,t_uint256)"
      },
      {
        "astId": 718,
        "contract": "contracts/Stampost.sol:Stampost",
        "label": "senderTotalRequests",
        "offset": 0,
        "slot": "7",
        "type": "t_mapping(t_address,t_uint256)"
      },
      {
        "astId": 724,
        "contract": "contracts/Stampost.sol:Stampost",
        "label": "userRequestById",
        "offset": 0,
        "slot": "8",
        "type": "t_mapping(t_address,t_mapping(t_uint256,t_uint256))"
      },
      {
        "astId": 730,
        "contract": "contracts/Stampost.sol:Stampost",
        "label": "userRequestByAddress",
        "offset": 0,
        "slot": "9",
        "type": "t_mapping(t_address,t_mapping(t_address,t_uint256))"
      },
      {
        "astId": 736,
        "contract": "contracts/Stampost.sol:Stampost",
        "label": "senderRequestById",
        "offset": 0,
        "slot": "10",
        "type": "t_mapping(t_address,t_mapping(t_uint256,t_uint256))"
      },
      {
        "astId": 742,
        "contract": "contracts/Stampost.sol:Stampost",
        "label": "senderRequestByAddress",
        "offset": 0,
        "slot": "11",
        "type": "t_mapping(t_address,t_mapping(t_address,t_uint256))"
      },
      {
        "astId": 759,
        "contract": "contracts/Stampost.sol:Stampost",
        "label": "totalLetters",
        "offset": 0,
        "slot": "12",
        "type": "t_uint256"
      },
      {
        "astId": 764,
        "contract": "contracts/Stampost.sol:Stampost",
        "label": "letters",
        "offset": 0,
        "slot": "13",
        "type": "t_mapping(t_uint256,t_struct(Letter)757_storage)"
      },
      {
        "astId": 768,
        "contract": "contracts/Stampost.sol:Stampost",
        "label": "incomingTotalLetters",
        "offset": 0,
        "slot": "14",
        "type": "t_mapping(t_address,t_uint256)"
      },
      {
        "astId": 772,
        "contract": "contracts/Stampost.sol:Stampost",
        "label": "outcomingTotalLetters",
        "offset": 0,
        "slot": "15",
        "type": "t_mapping(t_address,t_uint256)"
      },
      {
        "astId": 778,
        "contract": "contracts/Stampost.sol:Stampost",
        "label": "incomingLetterById",
        "offset": 0,
        "slot": "16",
        "type": "t_mapping(t_address,t_mapping(t_uint256,t_uint256))"
      },
      {
        "astId": 784,
        "contract": "contracts/Stampost.sol:Stampost",
        "label": "outcomingLetterById",
        "offset": 0,
        "slot": "17",
        "type": "t_mapping(t_address,t_mapping(t_uint256,t_uint256))"
      }
    ],
    "types": {
      "t_address": {
        "encoding": "inplace",
        "label": "address",
        "numberOfBytes": "20"
      },
      "t_bool": {
        "encoding": "inplace",
        "label": "bool",
        "numberOfBytes": "1"
      },
      "t_enum(PublicKeyRequestStatus)684": {
        "encoding": "inplace",
        "label": "enum Stampost.PublicKeyRequestStatus",
        "numberOfBytes": "1"
      },
      "t_mapping(t_address,t_mapping(t_address,t_uint256))": {
        "encoding": "mapping",
        "key": "t_address",
        "label": "mapping(address => mapping(address => uint256))",
        "numberOfBytes": "32",
        "value": "t_mapping(t_address,t_uint256)"
      },
      "t_mapping(t_address,t_mapping(t_uint256,t_uint256))": {
        "encoding": "mapping",
        "key": "t_address",
        "label": "mapping(address => mapping(uint256 => uint256))",
        "numberOfBytes": "32",
        "value": "t_mapping(t_uint256,t_uint256)"
      },
      "t_mapping(t_address,t_struct(PublicKey)680_storage)": {
        "encoding": "mapping",
        "key": "t_address",
        "label": "mapping(address => struct Stampost.PublicKey)",
        "numberOfBytes": "32",
        "value": "t_struct(PublicKey)680_storage"
      },
      "t_mapping(t_address,t_uint256)": {
        "encoding": "mapping",
        "key": "t_address",
        "label": "mapping(address => uint256)",
        "numberOfBytes": "32",
        "value": "t_uint256"
      },
      "t_mapping(t_uint256,t_struct(Letter)757_storage)": {
        "encoding": "mapping",
        "key": "t_uint256",
        "label": "mapping(uint256 => struct Stampost.Letter)",
        "numberOfBytes": "32",
        "value": "t_struct(Letter)757_storage"
      },
      "t_mapping(t_uint256,t_struct(PublicKeyRequest)698_storage)": {
        "encoding": "mapping",
        "key": "t_uint256",
        "label": "mapping(uint256 => struct Stampost.PublicKeyRequest)",
        "numberOfBytes": "32",
        "value": "t_struct(PublicKeyRequest)698_storage"
      },
      "t_mapping(t_uint256,t_uint256)": {
        "encoding": "mapping",
        "key": "t_uint256",
        "label": "mapping(uint256 => uint256)",
        "numberOfBytes": "32",
        "value": "t_uint256"
      },
      "t_string_storage": {
        "encoding": "bytes",
        "label": "string",
        "numberOfBytes": "32"
      },
      "t_struct(Letter)757_storage": {
        "encoding": "inplace",
        "label": "struct Stampost.Letter",
        "members": [
          {
            "astId": 744,
            "contract": "contracts/Stampost.sol:Stampost",
            "label": "timestamp",
            "offset": 0,
            "slot": "0",
            "type": "t_uint256"
          },
          {
            "astId": 746,
            "contract": "contracts/Stampost.sol:Stampost",
            "label": "from",
            "offset": 0,
            "slot": "1",
            "type": "t_address"
          },
          {
            "astId": 748,
            "contract": "contracts/Stampost.sol:Stampost",
            "label": "to",
            "offset": 0,
            "slot": "2",
            "type": "t_address"
          },
          {
            "astId": 750,
            "contract": "contracts/Stampost.sol:Stampost",
            "label": "message",
            "offset": 0,
            "slot": "3",
            "type": "t_string_storage"
          },
          {
            "astId": 752,
            "contract": "contracts/Stampost.sol:Stampost",
            "label": "stamps",
            "offset": 0,
            "slot": "4",
            "type": "t_uint256"
          },
          {
            "astId": 754,
            "contract": "contracts/Stampost.sol:Stampost",
            "label": "opened",
            "offset": 0,
            "slot": "5",
            "type": "t_bool"
          },
          {
            "astId": 756,
            "contract": "contracts/Stampost.sol:Stampost",
            "label": "isSet",
            "offset": 1,
            "slot": "5",
            "type": "t_bool"
          }
        ],
        "numberOfBytes": "192"
      },
      "t_struct(PublicKey)680_storage": {
        "encoding": "inplace",
        "label": "struct Stampost.PublicKey",
        "members": [
          {
            "astId": 677,
            "contract": "contracts/Stampost.sol:Stampost",
            "label": "key",
            "offset": 0,
            "slot": "0",
            "type": "t_string_storage"
          },
          {
            "astId": 679,
            "contract": "contracts/Stampost.sol:Stampost",
            "label": "isSet",
            "offset": 0,
            "slot": "1",
            "type": "t_bool"
          }
        ],
        "numberOfBytes": "64"
      },
      "t_struct(PublicKeyRequest)698_storage": {
        "encoding": "inplace",
        "label": "struct Stampost.PublicKeyRequest",
        "members": [
          {
            "astId": 686,
            "contract": "contracts/Stampost.sol:Stampost",
            "label": "id",
            "offset": 0,
            "slot": "0",
            "type": "t_uint256"
          },
          {
            "astId": 688,
            "contract": "contracts/Stampost.sol:Stampost",
            "label": "timestamp",
            "offset": 0,
            "slot": "1",
            "type": "t_uint256"
          },
          {
            "astId": 690,
            "contract": "contracts/Stampost.sol:Stampost",
            "label": "from",
            "offset": 0,
            "slot": "2",
            "type": "t_address"
          },
          {
            "astId": 692,
            "contract": "contracts/Stampost.sol:Stampost",
            "label": "to",
            "offset": 0,
            "slot": "3",
            "type": "t_address"
          },
          {
            "astId": 694,
            "contract": "contracts/Stampost.sol:Stampost",
            "label": "stamps",
            "offset": 0,
            "slot": "4",
            "type": "t_uint256"
          },
          {
            "astId": 697,
            "contract": "contracts/Stampost.sol:Stampost",
            "label": "status",
            "offset": 0,
            "slot": "5",
            "type": "t_enum(PublicKeyRequestStatus)684"
          }
        ],
        "numberOfBytes": "192"
      },
      "t_uint256": {
        "encoding": "inplace",
        "label": "uint256",
        "numberOfBytes": "32"
      }
    }
  }
}