{
  "address": "0xb1C80e3Db5D9AcA7Ed0fD91C51DC76C98C4004cb",
  "abi": [
    {
      "inputs": [],
      "stateMutability": "nonpayable",
      "type": "constructor"
    },
    {
      "anonymous": false,
      "inputs": [
        {
          "indexed": true,
          "internalType": "address",
          "name": "previousOwner",
          "type": "address"
        },
        {
          "indexed": true,
          "internalType": "address",
          "name": "newOwner",
          "type": "address"
        }
      ],
      "name": "OwnershipTransferred",
      "type": "event"
    },
    {
      "inputs": [
        {
          "internalType": "uint256",
          "name": "requestId",
          "type": "uint256"
        },
        {
          "internalType": "string",
          "name": "publicKey",
          "type": "string"
        }
      ],
      "name": "acceptPublicKeyRequest",
      "outputs": [],
      "stateMutability": "nonpayable",
      "type": "function"
    },
    {
      "inputs": [
        {
          "internalType": "address",
          "name": "user",
          "type": "address"
        }
      ],
      "name": "getAcceptedPublicKey",
      "outputs": [
        {
          "internalType": "string",
          "name": "",
          "type": "string"
        }
      ],
      "stateMutability": "view",
      "type": "function"
    },
    {
      "inputs": [
        {
          "internalType": "uint256",
          "name": "letterId",
          "type": "uint256"
        }
      ],
      "name": "getMail",
      "outputs": [
        {
          "components": [
            {
              "internalType": "uint256",
              "name": "timestamp",
              "type": "uint256"
            },
            {
              "internalType": "address",
              "name": "from",
              "type": "address"
            },
            {
              "internalType": "address",
              "name": "to",
              "type": "address"
            },
            {
              "internalType": "string",
              "name": "message",
              "type": "string"
            },
            {
              "internalType": "uint256",
              "name": "stamps",
              "type": "uint256"
            },
            {
              "internalType": "bool",
              "name": "opened",
              "type": "bool"
            },
            {
              "internalType": "bool",
              "name": "isSet",
              "type": "bool"
            }
          ],
          "internalType": "struct Stampost.Letter",
          "name": "letter",
          "type": "tuple"
        }
      ],
      "stateMutability": "nonpayable",
      "type": "function"
    },
    {
      "inputs": [],
      "name": "getOutcomingRequests",
      "outputs": [
        {
          "components": [
            {
              "internalType": "uint256",
              "name": "id",
              "type": "uint256"
            },
            {
              "internalType": "uint256",
              "name": "timestamp",
              "type": "uint256"
            },
            {
              "internalType": "address",
              "name": "from",
              "type": "address"
            },
            {
              "internalType": "address",
              "name": "to",
              "type": "address"
            },
            {
              "internalType": "uint256",
              "name": "stamps",
              "type": "uint256"
            },
            {
              "internalType": "enum Stampost.PublicKeyRequestStatus",
              "name": "status",
              "type": "uint8"
            },
            {
              "internalType": "string",
              "name": "message",
              "type": "string"
            }
          ],
          "internalType": "struct Stampost.PublicKeyRequest[]",
          "name": "",
          "type": "tuple[]"
        }
      ],
      "stateMutability": "view",
      "type": "function"
    },
    {
      "inputs": [
        {
          "internalType": "address",
          "name": "user",
          "type": "address"
        }
      ],
      "name": "getPublicKey",
      "outputs": [
        {
          "internalType": "string",
          "name": "",
          "type": "string"
        }
      ],
      "stateMutability": "view",
      "type": "function"
    },
    {
      "inputs": [
        {
          "internalType": "address",
          "name": "_recepient",
          "type": "address"
        }
      ],
      "name": "getRequestsForAddress",
      "outputs": [
        {
          "components": [
            {
              "internalType": "uint256",
              "name": "id",
              "type": "uint256"
            },
            {
              "internalType": "uint256",
              "name": "timestamp",
              "type": "uint256"
            },
            {
              "internalType": "address",
              "name": "from",
              "type": "address"
            },
            {
              "internalType": "address",
              "name": "to",
              "type": "address"
            },
            {
              "internalType": "uint256",
              "name": "stamps",
              "type": "uint256"
            },
            {
              "internalType": "enum Stampost.PublicKeyRequestStatus",
              "name": "status",
              "type": "uint8"
            },
            {
              "internalType": "string",
              "name": "message",
              "type": "string"
            }
          ],
          "internalType": "struct Stampost.PublicKeyRequest[]",
          "name": "",
          "type": "tuple[]"
        }
      ],
      "stateMutability": "view",
      "type": "function"
    },
    {
      "inputs": [],
      "name": "getStampTokenAddress",
      "outputs": [
        {
          "internalType": "address",
          "name": "",
          "type": "address"
        }
      ],
      "stateMutability": "view",
      "type": "function"
    },
    {
      "inputs": [],
      "name": "incomingMail",
      "outputs": [
        {
          "components": [
            {
              "internalType": "uint256",
              "name": "timestamp",
              "type": "uint256"
            },
            {
              "internalType": "address",
              "name": "from",
              "type": "address"
            },
            {
              "internalType": "address",
              "name": "to",
              "type": "address"
            },
            {
              "internalType": "string",
              "name": "message",
              "type": "string"
            },
            {
              "internalType": "uint256",
              "name": "stamps",
              "type": "uint256"
            },
            {
              "internalType": "bool",
              "name": "opened",
              "type": "bool"
            },
            {
              "internalType": "bool",
              "name": "isSet",
              "type": "bool"
            }
          ],
          "internalType": "struct Stampost.Letter[]",
          "name": "incomingLetters",
          "type": "tuple[]"
        }
      ],
      "stateMutability": "view",
      "type": "function"
    },
    {
      "inputs": [],
      "name": "outcomingMail",
      "outputs": [
        {
          "components": [
            {
              "internalType": "uint256",
              "name": "timestamp",
              "type": "uint256"
            },
            {
              "internalType": "address",
              "name": "from",
              "type": "address"
            },
            {
              "internalType": "address",
              "name": "to",
              "type": "address"
            },
            {
              "internalType": "string",
              "name": "message",
              "type": "string"
            },
            {
              "internalType": "uint256",
              "name": "stamps",
              "type": "uint256"
            },
            {
              "internalType": "bool",
              "name": "opened",
              "type": "bool"
            },
            {
              "internalType": "bool",
              "name": "isSet",
              "type": "bool"
            }
          ],
          "internalType": "struct Stampost.Letter[]",
          "name": "outcomingLetters",
          "type": "tuple[]"
        }
      ],
      "stateMutability": "view",
      "type": "function"
    },
    {
      "inputs": [],
      "name": "owner",
      "outputs": [
        {
          "internalType": "address",
          "name": "",
          "type": "address"
        }
      ],
      "stateMutability": "view",
      "type": "function"
    },
    {
      "inputs": [
        {
          "internalType": "address",
          "name": "",
          "type": "address"
        }
      ],
      "name": "publicKeys",
      "outputs": [
        {
          "internalType": "string",
          "name": "key",
          "type": "string"
        },
        {
          "internalType": "bool",
          "name": "isSet",
          "type": "bool"
        }
      ],
      "stateMutability": "view",
      "type": "function"
    },
    {
      "inputs": [],
      "name": "renounceOwnership",
      "outputs": [],
      "stateMutability": "nonpayable",
      "type": "function"
    },
    {
      "inputs": [
        {
          "internalType": "uint256",
          "name": "_chainId",
          "type": "uint256"
        },
        {
          "internalType": "address",
          "name": "_recepient",
          "type": "address"
        },
        {
          "internalType": "uint256",
          "name": "_stamps",
          "type": "uint256"
        },
        {
          "internalType": "string",
          "name": "_publicKey",
          "type": "string"
        },
        {
          "internalType": "string",
          "name": "message",
          "type": "string"
        }
      ],
      "name": "requestPublicKey",
      "outputs": [],
      "stateMutability": "nonpayable",
      "type": "function"
    },
    {
      "inputs": [
        {
          "internalType": "uint256",
          "name": "chainId",
          "type": "uint256"
        },
        {
          "internalType": "address",
          "name": "_recepient",
          "type": "address"
        },
        {
          "internalType": "string",
          "name": "_message",
          "type": "string"
        },
        {
          "internalType": "uint256",
          "name": "_stamps",
          "type": "uint256"
        }
      ],
      "name": "sendMail",
      "outputs": [],
      "stateMutability": "nonpayable",
      "type": "function"
    },
    {
      "inputs": [
        {
          "internalType": "address",
          "name": "_stamp_token_address",
          "type": "address"
        }
      ],
      "name": "setStampToken",
      "outputs": [],
      "stateMutability": "nonpayable",
      "type": "function"
    },
    {
      "inputs": [],
      "name": "stamp_token_address",
      "outputs": [
        {
          "internalType": "address",
          "name": "",
          "type": "address"
        }
      ],
      "stateMutability": "view",
      "type": "function"
    },
    {
      "inputs": [
        {
          "internalType": "address",
          "name": "newOwner",
          "type": "address"
        }
      ],
      "name": "transferOwnership",
      "outputs": [],
      "stateMutability": "nonpayable",
      "type": "function"
    }
  ],
  "transactionHash": "0x2a09632b9bd298410dd6d04c31d86fd336a704b3d20bad6dddc76b09c270f308",
  "args": [],
  "numDeployments": 1,
  "solcInputHash": "0cc560ac6b3c06abc471d8645f3e9d2c",
  "bytecode": "0x60806040526729a2241af62c00006002553480156200001d57600080fd5b506200003e620000326200008f60201b60201c565b6200009760201b60201c565b620000896040518060400160405280600b81526020017f636f6e7374727563746f720000000000000000000000000000000000000000008152506200015b60201b62002bb51760201c565b620002ef565b600033905090565b60008060009054906101000a900473ffffffffffffffffffffffffffffffffffffffff169050816000806101000a81548173ffffffffffffffffffffffffffffffffffffffff021916908373ffffffffffffffffffffffffffffffffffffffff1602179055508173ffffffffffffffffffffffffffffffffffffffff168173ffffffffffffffffffffffffffffffffffffffff167f8be0079c531659141344cd1fd0a4f28419497f9722a3daafe3b4186f6b6457e060405160405180910390a35050565b620001fb8160405160240162000172919062000268565b6040516020818303038152906040527f41304fac000000000000000000000000000000000000000000000000000000007bffffffffffffffffffffffffffffffffffffffffffffffffffffffff19166020820180517bffffffffffffffffffffffffffffffffffffffffffffffffffffffff8381831617835250505050620001fe60201b60201c565b50565b60008151905060006a636f6e736f6c652e6c6f679050602083016000808483855afa5050505050565b600062000234826200028c565b62000240818562000297565b935062000252818560208601620002a8565b6200025d81620002de565b840191505092915050565b6000602082019050818103600083015262000284818462000227565b905092915050565b600081519050919050565b600082825260208201905092915050565b60005b83811015620002c8578082015181840152602081019050620002ab565b83811115620002d8576000848401525b50505050565b6000601f19601f8301169050919050565b614b1880620002ff6000396000f3fe608060405234801561001057600080fd5b506004361061010b5760003560e01c8063a3d6f9a9116100a2578063dcec3ec811610071578063dcec3ec814610295578063de4e1c55146102c5578063e2621520146102f5578063f2fde38b14610311578063f813d4371461032d5761010b565b8063a3d6f9a9146101fc578063b0b4de941461022d578063b1b5243c14610249578063dcc53305146102655761010b565b80637fd33fd2116100de5780637fd33fd2146101725780638551f9d514610190578063857cdbb8146101ae5780638da5cb5b146101de5761010b565b80634f0483ea14610110578063522e17091461012e5780635cfcafae1461014c578063715018a614610168575b600080fd5b61011861034b565b604051610125919061417c565b60405180910390f35b610136610371565b604051610143919061417c565b60405180910390f35b610166600480360381019061016191906139f1565b61039b565b005b61017061045b565b005b61017a6104e3565b60405161018791906141f0565b60405180910390f35b6101986109df565b6040516101a591906141ce565b60405180910390f35b6101c860048036038101906101c391906139f1565b610e80565b6040516101d5919061422d565b60405180910390f35b6101e6610f5a565b6040516101f3919061417c565b60405180910390f35b610216600480360381019061021191906139f1565b610f83565b60405161022492919061424f565b60405180910390f35b61024760048036038101906102429190613a6c565b61103c565b005b610263600480360381019061025e9190613aec565b61141a565b005b61027f600480360381019061027a9190613a1a565b61193f565b60405161028c919061444f565b60405180910390f35b6102af60048036038101906102aa91906139f1565b611c50565b6040516102bc91906141f0565b60405180910390f35b6102df60048036038101906102da91906139f1565b61214e565b6040516102ec919061422d565b60405180910390f35b61030f600480360381019061030a9190613b9c565b612228565b005b61032b600480360381019061032691906139f1565b61261c565b005b610335612714565b60405161034291906141ce565b60405180910390f35b600160009054906101000a900473ffffffffffffffffffffffffffffffffffffffff1681565b6000600160009054906101000a900473ffffffffffffffffffffffffffffffffffffffff16905090565b6103a3612c4e565b73ffffffffffffffffffffffffffffffffffffffff166103c1610f5a565b73ffffffffffffffffffffffffffffffffffffffff1614610417576040517f08c379a000000000000000000000000000000000000000000000000000000000815260040161040e906143cf565b60405180910390fd5b80600160006101000a81548173ffffffffffffffffffffffffffffffffffffffff021916908373ffffffffffffffffffffffffffffffffffffffff16021790555050565b610463612c4e565b73ffffffffffffffffffffffffffffffffffffffff16610481610f5a565b73ffffffffffffffffffffffffffffffffffffffff16146104d7576040517f08c379a00000000000000000000000000000000000000000000000000000000081526004016104ce906143cf565b60405180910390fd5b6104e16000612c56565b565b60606000600760003373ffffffffffffffffffffffffffffffffffffffff1673ffffffffffffffffffffffffffffffffffffffff1681526020019081526020016000205490506105686040518060400160405280601881526020017f73656e646572546f74616c5265717565737473436f756e74000000000000000081525082612d1a565b60008114156105f457600067ffffffffffffffff8111156105b2577f4e487b7100000000000000000000000000000000000000000000000000000000600052604160045260246000fd5b6040519080825280602002602001820160405280156105eb57816020015b6105d86137b7565b8152602001906001900390816105d05790505b509150506109dc565b60008167ffffffffffffffff811115610636577f4e487b7100000000000000000000000000000000000000000000000000000000600052604160045260246000fd5b60405190808252806020026020018201604052801561066f57816020015b61065c6137b7565b8152602001906001900390816106545790505b50905060005b82811015610995576000600a60003373ffffffffffffffffffffffffffffffffffffffff1673ffffffffffffffffffffffffffffffffffffffff16815260200190815260200160002060006001846106cd919061452b565b815260200190815260200160002054905061071d6040518060400160405280600981526020017f726571756573744964000000000000000000000000000000000000000000000081525082612d1a565b61073c6005600083815260200190815260200160002060040154612db6565b600560008281526020019081526020016000206040518060e001604052908160008201548152602001600182015481526020016002820160009054906101000a900473ffffffffffffffffffffffffffffffffffffffff1673ffffffffffffffffffffffffffffffffffffffff1673ffffffffffffffffffffffffffffffffffffffff1681526020016003820160009054906101000a900473ffffffffffffffffffffffffffffffffffffffff1673ffffffffffffffffffffffffffffffffffffffff1673ffffffffffffffffffffffffffffffffffffffff168152602001600482015481526020016005820160009054906101000a900460ff16600281111561086f577f4e487b7100000000000000000000000000000000000000000000000000000000600052602160045260246000fd5b60028111156108a7577f4e487b7100000000000000000000000000000000000000000000000000000000600052602160045260246000fd5b81526020016006820180546108bb90614621565b80601f01602080910402602001604051908101604052809291908181526020018280546108e790614621565b80156109345780601f1061090957610100808354040283529160200191610934565b820191906000526020600020905b81548152906001019060200180831161091757829003601f168201915b505050505081525050838381518110610976577f4e487b7100000000000000000000000000000000000000000000000000000000600052603260045260246000fd5b602002602001018190525050808061098d90614653565b915050610675565b506109d66040518060400160405280600d81526020017f726573756c742e6c656e677468000000000000000000000000000000000000008152508251612d1a565b80925050505b90565b60606000600f60003373ffffffffffffffffffffffffffffffffffffffff1673ffffffffffffffffffffffffffffffffffffffff168152602001908152602001600020549050610a646040518060400160405280601581526020017f746f74616c4f7574636f6d696e674c657474657273000000000000000000000081525082612d1a565b6000811415610af057600067ffffffffffffffff811115610aae577f4e487b7100000000000000000000000000000000000000000000000000000000600052604160045260246000fd5b604051908082528060200260200182016040528015610ae757816020015b610ad4613858565b815260200190600190039081610acc5790505b50915050610e7d565b60008167ffffffffffffffff811115610b32577f4e487b7100000000000000000000000000000000000000000000000000000000600052604160045260246000fd5b604051908082528060200260200182016040528015610b6b57816020015b610b58613858565b815260200190600190039081610b505790505b50905060005b82811015610e36576000601160003373ffffffffffffffffffffffffffffffffffffffff1673ffffffffffffffffffffffffffffffffffffffff1681526020019081526020016000206000600184610bc9919061452b565b8152602001908152602001600020549050610c196040518060400160405280600881526020017f6c6574746572496400000000000000000000000000000000000000000000000081525082612d1a565b610c38600d600083815260200190815260200160002060000154612db6565b600d60008281526020019081526020016000206040518060e0016040529081600082015481526020016001820160009054906101000a900473ffffffffffffffffffffffffffffffffffffffff1673ffffffffffffffffffffffffffffffffffffffff1673ffffffffffffffffffffffffffffffffffffffff1681526020016002820160009054906101000a900473ffffffffffffffffffffffffffffffffffffffff1673ffffffffffffffffffffffffffffffffffffffff1673ffffffffffffffffffffffffffffffffffffffff168152602001600382018054610d1c90614621565b80601f0160208091040260200160405190810160405280929190818152602001828054610d4890614621565b8015610d955780601f10610d6a57610100808354040283529160200191610d95565b820191906000526020600020905b815481529060010190602001808311610d7857829003601f168201915b50505050508152602001600482015481526020016005820160009054906101000a900460ff161515151581526020016005820160019054906101000a900460ff161515151581525050838381518110610e17577f4e487b7100000000000000000000000000000000000000000000000000000000600052603260045260246000fd5b6020026020010181905250508080610e2e90614653565b915050610b71565b50610e776040518060400160405280600681526020017f6c656e67746800000000000000000000000000000000000000000000000000008152508251612d1a565b80925050505b90565b60606000600360008473ffffffffffffffffffffffffffffffffffffffff1673ffffffffffffffffffffffffffffffffffffffff1681526020019081526020016000206000018054610ed190614621565b80601f0160208091040260200160405190810160405280929190818152602001828054610efd90614621565b8015610f4a5780601f10610f1f57610100808354040283529160200191610f4a565b820191906000526020600020905b815481529060010190602001808311610f2d57829003601f168201915b5050505050905080915050919050565b60008060009054906101000a900473ffffffffffffffffffffffffffffffffffffffff16905090565b6003602052806000526040600020600091509050806000018054610fa690614621565b80601f0160208091040260200160405190810160405280929190818152602001828054610fd290614621565b801561101f5780601f10610ff45761010080835404028352916020019161101f565b820191906000526020600020905b81548152906001019060200180831161100257829003601f168201915b5050505050908060010160009054906101000a900460ff16905082565b6000600b60003373ffffffffffffffffffffffffffffffffffffffff1673ffffffffffffffffffffffffffffffffffffffff16815260200190815260200160002060008673ffffffffffffffffffffffffffffffffffffffff1673ffffffffffffffffffffffffffffffffffffffff1681526020019081526020016000205490506000811415611101576040517f08c379a00000000000000000000000000000000000000000000000000000000081526004016110f8906142ef565b60405180910390fd5b6001600281111561113b577f4e487b7100000000000000000000000000000000000000000000000000000000600052602160045260246000fd5b6005600083815260200190815260200160002060050160009054906101000a900460ff166002811115611197577f4e487b7100000000000000000000000000000000000000000000000000000000600052602160045260246000fd5b146111d7576040517f08c379a00000000000000000000000000000000000000000000000000000000081526004016111ce906143af565b60405180910390fd5b6000600160009054906101000a900473ffffffffffffffffffffffffffffffffffffffff1673ffffffffffffffffffffffffffffffffffffffff166370a08231336040518263ffffffff1660e01b8152600401611234919061417c565b60206040518083038186803b15801561124c57600080fd5b505afa158015611260573d6000803e3d6000fd5b505050506040513d601f19601f820116820180604052508101906112849190613a43565b9050828110156112c9576040517f08c379a00000000000000000000000000000000000000000000000000000000081526004016112c09061436f565b60405180910390fd5b60006040518060e001604052804281526020013373ffffffffffffffffffffffffffffffffffffffff1681526020018873ffffffffffffffffffffffffffffffffffffffff16815260200187878080601f016020809104026020016040519081016040528093929190818152602001838380828437600081840152601f19601f82011690508083019250505050505050815260200185815260200160001515815260200160011515815250905061137f81612e4f565b600160009054906101000a900473ffffffffffffffffffffffffffffffffffffffff1673ffffffffffffffffffffffffffffffffffffffff16637750c9f03389876040518463ffffffff1660e01b81526004016113de93929190614197565b600060405180830381600087803b1580156113f857600080fd5b505af115801561140c573d6000803e3d6000fd5b505050505050505050505050565b60025485101561145f576040517f08c379a00000000000000000000000000000000000000000000000000000000081526004016114569061440f565b60405180910390fd5b6000600160009054906101000a900473ffffffffffffffffffffffffffffffffffffffff1673ffffffffffffffffffffffffffffffffffffffff166370a08231336040518263ffffffff1660e01b81526004016114bc919061417c565b60206040518083038186803b1580156114d457600080fd5b505afa1580156114e8573d6000803e3d6000fd5b505050506040513d601f19601f8201168201806040525081019061150c9190613a43565b905085811015611551576040517f08c379a00000000000000000000000000000000000000000000000000000000081526004016115489061436f565b60405180910390fd5b8673ffffffffffffffffffffffffffffffffffffffff163373ffffffffffffffffffffffffffffffffffffffff1614156115c0576040517f08c379a00000000000000000000000000000000000000000000000000000000081526004016115b7906142af565b60405180910390fd5b6000600960008973ffffffffffffffffffffffffffffffffffffffff1673ffffffffffffffffffffffffffffffffffffffff16815260200190815260200160002060003373ffffffffffffffffffffffffffffffffffffffff1673ffffffffffffffffffffffffffffffffffffffff1681526020019081526020016000205490506116806040518060400160405280600981526020017f726571756573744944000000000000000000000000000000000000000000000081525082612d1a565b600081146116c3576040517f08c379a00000000000000000000000000000000000000000000000000000000081526004016116ba9061442f565b60405180910390fd5b604051806040016040528087878080601f016020809104026020016040519081016040528093929190818152602001838380828437600081840152601f19601f82011690508083019250505050505050815260200160011515815250600360003373ffffffffffffffffffffffffffffffffffffffff1673ffffffffffffffffffffffffffffffffffffffff168152602001908152602001600020600082015181600001908051906020019061177a9291906138c5565b5060208201518160010160006101000a81548160ff021916908315150217905550905050600460008154809291906117b190614653565b919050555060006040518060e0016040528060045481526020014281526020013373ffffffffffffffffffffffffffffffffffffffff1681526020018a73ffffffffffffffffffffffffffffffffffffffff16815260200189815260200160006002811115611849577f4e487b7100000000000000000000000000000000000000000000000000000000600052602160045260246000fd5b815260200186868080601f016020809104026020016040519081016040528093929190818152602001838380828437600081840152601f19601f8201169050808301925050505050505081525090506118a289826132d1565b600160009054906101000a900473ffffffffffffffffffffffffffffffffffffffff1673ffffffffffffffffffffffffffffffffffffffff16637750c9f0338b8b6040518463ffffffff1660e01b815260040161190193929190614197565b600060405180830381600087803b15801561191b57600080fd5b505af115801561192f573d6000803e3d6000fd5b5050505050505050505050505050565b611947613858565b600d60008381526020019081526020016000206040518060e0016040529081600082015481526020016001820160009054906101000a900473ffffffffffffffffffffffffffffffffffffffff1673ffffffffffffffffffffffffffffffffffffffff1673ffffffffffffffffffffffffffffffffffffffff1681526020016002820160009054906101000a900473ffffffffffffffffffffffffffffffffffffffff1673ffffffffffffffffffffffffffffffffffffffff1673ffffffffffffffffffffffffffffffffffffffff168152602001600382018054611a2b90614621565b80601f0160208091040260200160405190810160405280929190818152602001828054611a5790614621565b8015611aa45780601f10611a7957610100808354040283529160200191611aa4565b820191906000526020600020905b815481529060010190602001808311611a8757829003601f168201915b50505050508152602001600482015481526020016005820160009054906101000a900460ff161515151581526020016005820160019054906101000a900460ff1615151515815250509050611afc8160c001516136f5565b8060c00151611b40576040517f08c379a0000000000000000000000000000000000000000000000000000000008152600401611b379061432f565b60405180910390fd5b3373ffffffffffffffffffffffffffffffffffffffff16816040015173ffffffffffffffffffffffffffffffffffffffff1614611bb2576040517f08c379a0000000000000000000000000000000000000000000000000000000008152600401611ba99061434f565b60405180910390fd5b600160009054906101000a900473ffffffffffffffffffffffffffffffffffffffff1673ffffffffffffffffffffffffffffffffffffffff166359508f8f82602001513384608001516040518463ffffffff1660e01b8152600401611c1993929190614197565b600060405180830381600087803b158015611c3357600080fd5b505af1158015611c47573d6000803e3d6000fd5b50505050919050565b60606000600660008473ffffffffffffffffffffffffffffffffffffffff1673ffffffffffffffffffffffffffffffffffffffff168152602001908152602001600020549050611cd56040518060400160405280601681526020017f726563657069656e74546f74616c52657175657374730000000000000000000081525082612d1a565b6000811415611d6157600067ffffffffffffffff811115611d1f577f4e487b7100000000000000000000000000000000000000000000000000000000600052604160045260246000fd5b604051908082528060200260200182016040528015611d5857816020015b611d456137b7565b815260200190600190039081611d3d5790505b50915050612149565b60008167ffffffffffffffff811115611da3577f4e487b7100000000000000000000000000000000000000000000000000000000600052604160045260246000fd5b604051908082528060200260200182016040528015611ddc57816020015b611dc96137b7565b815260200190600190039081611dc15790505b50905060005b82811015612102576000600860008773ffffffffffffffffffffffffffffffffffffffff1673ffffffffffffffffffffffffffffffffffffffff1681526020019081526020016000206000600184611e3a919061452b565b8152602001908152602001600020549050611e8a6040518060400160405280600981526020017f726571756573744964000000000000000000000000000000000000000000000081525082612d1a565b611ea96005600083815260200190815260200160002060040154612db6565b600560008281526020019081526020016000206040518060e001604052908160008201548152602001600182015481526020016002820160009054906101000a900473ffffffffffffffffffffffffffffffffffffffff1673ffffffffffffffffffffffffffffffffffffffff1673ffffffffffffffffffffffffffffffffffffffff1681526020016003820160009054906101000a900473ffffffffffffffffffffffffffffffffffffffff1673ffffffffffffffffffffffffffffffffffffffff1673ffffffffffffffffffffffffffffffffffffffff168152602001600482015481526020016005820160009054906101000a900460ff166002811115611fdc577f4e487b7100000000000000000000000000000000000000000000000000000000600052602160045260246000fd5b6002811115612014577f4e487b7100000000000000000000000000000000000000000000000000000000600052602160045260246000fd5b815260200160068201805461202890614621565b80601f016020809104026020016040519081016040528092919081815260200182805461205490614621565b80156120a15780601f10612076576101008083540402835291602001916120a1565b820191906000526020600020905b81548152906001019060200180831161208457829003601f168201915b5050505050815250508383815181106120e3577f4e487b7100000000000000000000000000000000000000000000000000000000600052603260045260246000fd5b60200260200101819052505080806120fa90614653565b915050611de2565b506121436040518060400160405280600681526020017f6c656e67746800000000000000000000000000000000000000000000000000008152508251612d1a565b80925050505b919050565b60606000600360008473ffffffffffffffffffffffffffffffffffffffff1673ffffffffffffffffffffffffffffffffffffffff168152602001908152602001600020600001805461219f90614621565b80601f01602080910402602001604051908101604052809291908181526020018280546121cb90614621565b80156122185780601f106121ed57610100808354040283529160200191612218565b820191906000526020600020905b8154815290600101906020018083116121fb57829003601f168201915b5050505050905080915050919050565b60045483111561226d576040517f08c379a0000000000000000000000000000000000000000000000000000000008152600401612264906142cf565b60405180910390fd5b60006005600085815260200190815260200160002090503373ffffffffffffffffffffffffffffffffffffffff168160030160009054906101000a900473ffffffffffffffffffffffffffffffffffffffff1673ffffffffffffffffffffffffffffffffffffffff1614612316576040517f08c379a000000000000000000000000000000000000000000000000000000000815260040161230d9061438f565b60405180910390fd5b60006002811115612350577f4e487b7100000000000000000000000000000000000000000000000000000000600052602160045260246000fd5b8160050160009054906101000a900460ff16600281111561239a577f4e487b7100000000000000000000000000000000000000000000000000000000600052602160045260246000fd5b146123da576040517f08c379a00000000000000000000000000000000000000000000000000000000081526004016123d1906143ef565b60405180910390fd5b600360003373ffffffffffffffffffffffffffffffffffffffff1673ffffffffffffffffffffffffffffffffffffffff16815260200190815260200160002060010160009054906101000a900460ff1661250a57604051806040016040528084848080601f016020809104026020016040519081016040528093929190818152602001838380828437600081840152601f19601f82011690508083019250505050505050815260200160011515815250600360003373ffffffffffffffffffffffffffffffffffffffff1673ffffffffffffffffffffffffffffffffffffffff16815260200190815260200160002060008201518160000190805190602001906124e59291906138c5565b5060208201518160010160006101000a81548160ff0219169083151502179055509050505b60018160050160006101000a81548160ff02191690836002811115612558577f4e487b7100000000000000000000000000000000000000000000000000000000600052602160045260246000fd5b0217905550600160009054906101000a900473ffffffffffffffffffffffffffffffffffffffff1673ffffffffffffffffffffffffffffffffffffffff166359508f8f8260020160009054906101000a900473ffffffffffffffffffffffffffffffffffffffff163384600401546040518463ffffffff1660e01b81526004016125e493929190614197565b600060405180830381600087803b1580156125fe57600080fd5b505af1158015612612573d6000803e3d6000fd5b5050505050505050565b612624612c4e565b73ffffffffffffffffffffffffffffffffffffffff16612642610f5a565b73ffffffffffffffffffffffffffffffffffffffff1614612698576040517f08c379a000000000000000000000000000000000000000000000000000000000815260040161268f906143cf565b60405180910390fd5b600073ffffffffffffffffffffffffffffffffffffffff168173ffffffffffffffffffffffffffffffffffffffff161415612708576040517f08c379a00000000000000000000000000000000000000000000000000000000081526004016126ff9061430f565b60405180910390fd5b61271181612c56565b50565b60606000600e60003373ffffffffffffffffffffffffffffffffffffffff1673ffffffffffffffffffffffffffffffffffffffff1681526020019081526020016000205490506127996040518060400160405280601481526020017f746f74616c496e636f6d696e674c65747465727300000000000000000000000081525082612d1a565b600081141561282557600067ffffffffffffffff8111156127e3577f4e487b7100000000000000000000000000000000000000000000000000000000600052604160045260246000fd5b60405190808252806020026020018201604052801561281c57816020015b612809613858565b8152602001906001900390816128015790505b50915050612bb2565b60008167ffffffffffffffff811115612867577f4e487b7100000000000000000000000000000000000000000000000000000000600052604160045260246000fd5b6040519080825280602002602001820160405280156128a057816020015b61288d613858565b8152602001906001900390816128855790505b50905060005b82811015612b6b576000601060003373ffffffffffffffffffffffffffffffffffffffff1673ffffffffffffffffffffffffffffffffffffffff16815260200190815260200160002060006001846128fe919061452b565b815260200190815260200160002054905061294e6040518060400160405280600881526020017f6c6574746572496400000000000000000000000000000000000000000000000081525082612d1a565b61296d600d600083815260200190815260200160002060000154612db6565b600d60008281526020019081526020016000206040518060e0016040529081600082015481526020016001820160009054906101000a900473ffffffffffffffffffffffffffffffffffffffff1673ffffffffffffffffffffffffffffffffffffffff1673ffffffffffffffffffffffffffffffffffffffff1681526020016002820160009054906101000a900473ffffffffffffffffffffffffffffffffffffffff1673ffffffffffffffffffffffffffffffffffffffff1673ffffffffffffffffffffffffffffffffffffffff168152602001600382018054612a5190614621565b80601f0160208091040260200160405190810160405280929190818152602001828054612a7d90614621565b8015612aca5780601f10612a9f57610100808354040283529160200191612aca565b820191906000526020600020905b815481529060010190602001808311612aad57829003601f168201915b50505050508152602001600482015481526020016005820160009054906101000a900460ff161515151581526020016005820160019054906101000a900460ff161515151581525050838381518110612b4c577f4e487b7100000000000000000000000000000000000000000000000000000000600052603260045260246000fd5b6020026020010181905250508080612b6390614653565b9150506128a6565b50612bac6040518060400160405280600681526020017f6c656e67746800000000000000000000000000000000000000000000000000008152508251612d1a565b80925050505b90565b612c4b81604051602401612bc9919061422d565b6040516020818303038152906040527f41304fac000000000000000000000000000000000000000000000000000000007bffffffffffffffffffffffffffffffffffffffffffffffffffffffff19166020820180517bffffffffffffffffffffffffffffffffffffffffffffffffffffffff838183161783525050505061378e565b50565b600033905090565b60008060009054906101000a900473ffffffffffffffffffffffffffffffffffffffff169050816000806101000a81548173ffffffffffffffffffffffffffffffffffffffff021916908373ffffffffffffffffffffffffffffffffffffffff1602179055508173ffffffffffffffffffffffffffffffffffffffff168173ffffffffffffffffffffffffffffffffffffffff167f8be0079c531659141344cd1fd0a4f28419497f9722a3daafe3b4186f6b6457e060405160405180910390a35050565b612db28282604051602401612d3092919061427f565b6040516020818303038152906040527f9710a9d0000000000000000000000000000000000000000000000000000000007bffffffffffffffffffffffffffffffffffffffffffffffffffffffff19166020820180517bffffffffffffffffffffffffffffffffffffffffffffffffffffffff838183161783525050505061378e565b5050565b612e4c81604051602401612dca9190614471565b6040516020818303038152906040527ff5b1bba9000000000000000000000000000000000000000000000000000000007bffffffffffffffffffffffffffffffffffffffffffffffffffffffff19166020820180517bffffffffffffffffffffffffffffffffffffffffffffffffffffffff838183161783525050505061378e565b50565b600081604001519050612e9b6040518060400160405280601081526020017f6c65747465722074696d657374616d70000000000000000000000000000000008152508360000151612d1a565b600c6000815480929190612eae90614653565b919050555081600d6000600c5481526020019081526020016000206000820151816000015560208201518160010160006101000a81548173ffffffffffffffffffffffffffffffffffffffff021916908373ffffffffffffffffffffffffffffffffffffffff16021790555060408201518160020160006101000a81548173ffffffffffffffffffffffffffffffffffffffff021916908373ffffffffffffffffffffffffffffffffffffffff1602179055506060820151816003019080519060200190612f7d9291906138c5565b506080820151816004015560a08201518160050160006101000a81548160ff02191690831515021790555060c08201518160050160016101000a81548160ff021916908315150217905550905050600e60008273ffffffffffffffffffffffffffffffffffffffff1673ffffffffffffffffffffffffffffffffffffffff168152602001908152602001600020600081548092919061301b90614653565b9190505550600f60003373ffffffffffffffffffffffffffffffffffffffff1673ffffffffffffffffffffffffffffffffffffffff168152602001908152602001600020600081548092919061307090614653565b91905055506130b66040518060400160405280600c81526020017f746f74616c4c6574746572730000000000000000000000000000000000000000815250600c54612d1a565b6131346040518060400160405280601881526020017f696e636f6d696e67546f74616c4c6574746572735b746f5d0000000000000000815250600e60008473ffffffffffffffffffffffffffffffffffffffff1673ffffffffffffffffffffffffffffffffffffffff16815260200190815260200160002054612d1a565b613195604051806060016040528060218152602001614ac260219139600f60003373ffffffffffffffffffffffffffffffffffffffff1673ffffffffffffffffffffffffffffffffffffffff16815260200190815260200160002054612d1a565b6000600e60008373ffffffffffffffffffffffffffffffffffffffff1673ffffffffffffffffffffffffffffffffffffffff1681526020019081526020016000205490506000600f60003373ffffffffffffffffffffffffffffffffffffffff1673ffffffffffffffffffffffffffffffffffffffff168152602001908152602001600020549050600c54601060008573ffffffffffffffffffffffffffffffffffffffff1673ffffffffffffffffffffffffffffffffffffffff168152602001908152602001600020600083815260200190815260200160002081905550600c54601160003373ffffffffffffffffffffffffffffffffffffffff1673ffffffffffffffffffffffffffffffffffffffff16815260200190815260200160002060008481526020019081526020016000208190555050505050565b80600560006004548152602001908152602001600020600082015181600001556020820151816001015560408201518160020160006101000a81548173ffffffffffffffffffffffffffffffffffffffff021916908373ffffffffffffffffffffffffffffffffffffffff16021790555060608201518160030160006101000a81548173ffffffffffffffffffffffffffffffffffffffff021916908373ffffffffffffffffffffffffffffffffffffffff1602179055506080820151816004015560a08201518160050160006101000a81548160ff021916908360028111156133e4577f4e487b7100000000000000000000000000000000000000000000000000000000600052602160045260246000fd5b021790555060c08201518160060190805190602001906134059291906138c5565b50905050600660008373ffffffffffffffffffffffffffffffffffffffff1673ffffffffffffffffffffffffffffffffffffffff168152602001908152602001600020600081548092919061345990614653565b9190505550600760003373ffffffffffffffffffffffffffffffffffffffff1673ffffffffffffffffffffffffffffffffffffffff16815260200190815260200160002060008154809291906134ae90614653565b91905055506000600660008473ffffffffffffffffffffffffffffffffffffffff1673ffffffffffffffffffffffffffffffffffffffff1681526020019081526020016000205490506000600760003373ffffffffffffffffffffffffffffffffffffffff1673ffffffffffffffffffffffffffffffffffffffff168152602001908152602001600020549050600454600860008673ffffffffffffffffffffffffffffffffffffffff1673ffffffffffffffffffffffffffffffffffffffff168152602001908152602001600020600084815260200190815260200160002081905550600454600960008673ffffffffffffffffffffffffffffffffffffffff1673ffffffffffffffffffffffffffffffffffffffff16815260200190815260200160002060003373ffffffffffffffffffffffffffffffffffffffff1673ffffffffffffffffffffffffffffffffffffffff16815260200190815260200160002081905550600454600a60003373ffffffffffffffffffffffffffffffffffffffff1673ffffffffffffffffffffffffffffffffffffffff168152602001908152602001600020600083815260200190815260200160002081905550600454600b60003373ffffffffffffffffffffffffffffffffffffffff1673ffffffffffffffffffffffffffffffffffffffff16815260200190815260200160002060008673ffffffffffffffffffffffffffffffffffffffff1673ffffffffffffffffffffffffffffffffffffffff1681526020019081526020016000208190555050505050565b61378b816040516024016137099190614212565b6040516020818303038152906040527f32458eed000000000000000000000000000000000000000000000000000000007bffffffffffffffffffffffffffffffffffffffffffffffffffffffff19166020820180517bffffffffffffffffffffffffffffffffffffffffffffffffffffffff838183161783525050505061378e565b50565b60008151905060006a636f6e736f6c652e6c6f679050602083016000808483855afa5050505050565b6040518060e001604052806000815260200160008152602001600073ffffffffffffffffffffffffffffffffffffffff168152602001600073ffffffffffffffffffffffffffffffffffffffff168152602001600081526020016000600281111561384b577f4e487b7100000000000000000000000000000000000000000000000000000000600052602160045260246000fd5b8152602001606081525090565b6040518060e0016040528060008152602001600073ffffffffffffffffffffffffffffffffffffffff168152602001600073ffffffffffffffffffffffffffffffffffffffff16815260200160608152602001600081526020016000151581526020016000151581525090565b8280546138d190614621565b90600052602060002090601f0160209004810192826138f3576000855561393a565b82601f1061390c57805160ff191683800117855561393a565b8280016001018555821561393a579182015b8281111561393957825182559160200191906001019061391e565b5b509050613947919061394b565b5090565b5b8082111561396457600081600090555060010161394c565b5090565b60008135905061397781614a93565b92915050565b60008083601f84011261398f57600080fd5b8235905067ffffffffffffffff8111156139a857600080fd5b6020830191508360018202830111156139c057600080fd5b9250929050565b6000813590506139d681614aaa565b92915050565b6000815190506139eb81614aaa565b92915050565b600060208284031215613a0357600080fd5b6000613a1184828501613968565b91505092915050565b600060208284031215613a2c57600080fd5b6000613a3a848285016139c7565b91505092915050565b600060208284031215613a5557600080fd5b6000613a63848285016139dc565b91505092915050565b600080600080600060808688031215613a8457600080fd5b6000613a92888289016139c7565b9550506020613aa388828901613968565b945050604086013567ffffffffffffffff811115613ac057600080fd5b613acc8882890161397d565b93509350506060613adf888289016139c7565b9150509295509295909350565b600080600080600080600060a0888a031215613b0757600080fd5b6000613b158a828b016139c7565b9750506020613b268a828b01613968565b9650506040613b378a828b016139c7565b955050606088013567ffffffffffffffff811115613b5457600080fd5b613b608a828b0161397d565b9450945050608088013567ffffffffffffffff811115613b7f57600080fd5b613b8b8a828b0161397d565b925092505092959891949750929550565b600080600060408486031215613bb157600080fd5b6000613bbf868287016139c7565b935050602084013567ffffffffffffffff811115613bdc57600080fd5b613be88682870161397d565b92509250509250925092565b6000613c008383613f8a565b905092915050565b6000613c1483836140c2565b905092915050565b613c2581614581565b82525050565b613c3481614581565b82525050565b6000613c45826144ac565b613c4f81856144e7565b935083602082028501613c618561448c565b8060005b85811015613c9d5784840389528151613c7e8582613bf4565b9450613c89836144cd565b925060208a01995050600181019050613c65565b50829750879550505050505092915050565b6000613cba826144b7565b613cc481856144f8565b935083602082028501613cd68561449c565b8060005b85811015613d125784840389528151613cf38582613c08565b9450613cfe836144da565b925060208a01995050600181019050613cda565b50829750879550505050505092915050565b613d2d81614593565b82525050565b613d3c81614593565b82525050565b613d4b816145dc565b82525050565b6000613d5c826144c2565b613d668185614509565b9350613d768185602086016145ee565b613d7f81614729565b840191505092915050565b6000613d95826144c2565b613d9f818561451a565b9350613daf8185602086016145ee565b613db881614729565b840191505092915050565b6000613dd060238361451a565b9150613ddb8261473a565b604082019050919050565b6000613df360158361451a565b9150613dfe82614789565b602082019050919050565b6000613e1660278361451a565b9150613e21826147b2565b604082019050919050565b6000613e3960268361451a565b9150613e4482614801565b604082019050919050565b6000613e5c60168361451a565b9150613e6782614850565b602082019050919050565b6000613e7f600f8361451a565b9150613e8a82614879565b602082019050919050565b6000613ea260398361451a565b9150613ead826148a2565b604082019050919050565b6000613ec5601b8361451a565b9150613ed0826148f1565b602082019050919050565b6000613ee8602b8361451a565b9150613ef38261491a565b604082019050919050565b6000613f0b60208361451a565b9150613f1682614969565b602082019050919050565b6000613f2e602d8361451a565b9150613f3982614992565b604082019050919050565b6000613f5160238361451a565b9150613f5c826149e1565b604082019050919050565b6000613f7460278361451a565b9150613f7f82614a30565b604082019050919050565b600060e083016000830151613fa2600086018261415e565b506020830151613fb56020860182613c1c565b506040830151613fc86040860182613c1c565b5060608301518482036060860152613fe08282613d51565b9150506080830151613ff5608086018261415e565b5060a083015161400860a0860182613d24565b5060c083015161401b60c0860182613d24565b508091505092915050565b600060e08301600083015161403e600086018261415e565b5060208301516140516020860182613c1c565b5060408301516140646040860182613c1c565b506060830151848203606086015261407c8282613d51565b9150506080830151614091608086018261415e565b5060a08301516140a460a0860182613d24565b5060c08301516140b760c0860182613d24565b508091505092915050565b600060e0830160008301516140da600086018261415e565b5060208301516140ed602086018261415e565b5060408301516141006040860182613c1c565b5060608301516141136060860182613c1c565b506080830151614126608086018261415e565b5060a083015161413960a0860182613d42565b5060c083015184820360c08601526141518282613d51565b9150508091505092915050565b614167816145d2565b82525050565b614176816145d2565b82525050565b60006020820190506141916000830184613c2b565b92915050565b60006060820190506141ac6000830186613c2b565b6141b96020830185613c2b565b6141c6604083018461416d565b949350505050565b600060208201905081810360008301526141e88184613c3a565b905092915050565b6000602082019050818103600083015261420a8184613caf565b905092915050565b60006020820190506142276000830184613d33565b92915050565b600060208201905081810360008301526142478184613d8a565b905092915050565b600060408201905081810360008301526142698185613d8a565b90506142786020830184613d33565b9392505050565b600060408201905081810360008301526142998185613d8a565b90506142a8602083018461416d565b9392505050565b600060208201905081810360008301526142c881613dc3565b9050919050565b600060208201905081810360008301526142e881613de6565b9050919050565b6000602082019050818103600083015261430881613e09565b9050919050565b6000602082019050818103600083015261432881613e2c565b9050919050565b6000602082019050818103600083015261434881613e4f565b9050919050565b6000602082019050818103600083015261436881613e72565b9050919050565b6000602082019050818103600083015261438881613e95565b9050919050565b600060208201905081810360008301526143a881613eb8565b9050919050565b600060208201905081810360008301526143c881613edb565b9050919050565b600060208201905081810360008301526143e881613efe565b9050919050565b6000602082019050818103600083015261440881613f21565b9050919050565b6000602082019050818103600083015261442881613f44565b9050919050565b6000602082019050818103600083015261444881613f67565b9050919050565b600060208201905081810360008301526144698184614026565b905092915050565b6000602082019050614486600083018461416d565b92915050565b6000819050602082019050919050565b6000819050602082019050919050565b600081519050919050565b600081519050919050565b600081519050919050565b6000602082019050919050565b6000602082019050919050565b600082825260208201905092915050565b600082825260208201905092915050565b600082825260208201905092915050565b600082825260208201905092915050565b6000614536826145d2565b9150614541836145d2565b9250827fffffffffffffffffffffffffffffffffffffffffffffffffffffffffffffffff038211156145765761457561469c565b5b828201905092915050565b600061458c826145b2565b9050919050565b60008115159050919050565b60008190506145ad82614a7f565b919050565b600073ffffffffffffffffffffffffffffffffffffffff82169050919050565b6000819050919050565b60006145e78261459f565b9050919050565b60005b8381101561460c5780820151818401526020810190506145f1565b8381111561461b576000848401525b50505050565b6000600282049050600182168061463957607f821691505b6020821081141561464d5761464c6146fa565b5b50919050565b600061465e826145d2565b91507fffffffffffffffffffffffffffffffffffffffffffffffffffffffffffffffff8214156146915761469061469c565b5b600182019050919050565b7f4e487b7100000000000000000000000000000000000000000000000000000000600052601160045260246000fd5b7f4e487b7100000000000000000000000000000000000000000000000000000000600052602160045260246000fd5b7f4e487b7100000000000000000000000000000000000000000000000000000000600052602260045260246000fd5b6000601f19601f8301169050919050565b7f596f752063616e206e6f742073656e64207265717565737420746f20796f757360008201527f656c660000000000000000000000000000000000000000000000000000000000602082015250565b7f5265717565737420646f65736e27742065786973740000000000000000000000600082015250565b7f596f752068617665206e6f74207265717565737465642074686973206164647260008201527f6573732079657400000000000000000000000000000000000000000000000000602082015250565b7f4f776e61626c653a206e6577206f776e657220697320746865207a65726f206160008201527f6464726573730000000000000000000000000000000000000000000000000000602082015250565b7f4e6f206c65747465722077697468207468697320696400000000000000000000600082015250565b7f4e6f7420796f7572206c65747465720000000000000000000000000000000000600082015250565b7f596f752068617665206e6f7420656e6f756768207374616d707320696e20796f60008201527f752077616c6c65742c20627579206d6f7265206f6e2044455800000000000000602082015250565b7f546869732072657175657374206973206e6f7420666f7220796f750000000000600082015250565b7f526563657069656e7420686173206e6f7420616363657074656420796f75722060008201527f7265717565737420796574000000000000000000000000000000000000000000602082015250565b7f4f776e61626c653a2063616c6c6572206973206e6f7420746865206f776e6572600082015250565b7f5265717565737420686173206265656e20616c7265616479206163636570746560008201527f64206f72206465636c696e656400000000000000000000000000000000000000602082015250565b7f4174746163686564207374616d707320636f756e74206973206e6f7420656e6f60008201527f7567680000000000000000000000000000000000000000000000000000000000602082015250565b7f596f75206861766520616c72656164792072657175657374656420746869732060008201527f6164647265737300000000000000000000000000000000000000000000000000602082015250565b60038110614a9057614a8f6146cb565b5b50565b614a9c81614581565b8114614aa757600080fd5b50565b614ab3816145d2565b8114614abe57600080fd5b5056fe6f7574636f6d696e67546f74616c4c6574746572735b6d73672e73656e6465725da2646970667358221220379dc4b2f2c33dd9e15f46f0369c867bd00ae4a5827ebaff762bb3fde00d89ef64736f6c63430008040033",
  "devdoc": {
    "kind": "dev",
    "methods": {
      "owner()": {
        "details": "Returns the address of the current owner."
      },
      "renounceOwnership()": {
        "details": "Leaves the contract without owner. It will not be possible to call `onlyOwner` functions anymore. Can only be called by the current owner. NOTE: Renouncing ownership will leave the contract without an owner, thereby removing any functionality that is only available to the owner."
      },
      "transferOwnership(address)": {
        "details": "Transfers ownership of the contract to a new account (`newOwner`). Can only be called by the current owner."
      }
    },
    "version": 1
  },
  "userdoc": {
    "kind": "user",
    "methods": {},
    "version": 1
  },
  "storageLayout": {
    "storage": [
      {
        "astId": 7,
        "contract": "contracts/Stampost.sol:Stampost",
        "label": "_owner",
        "offset": 0,
        "slot": "0",
        "type": "t_address"
      },
      {
        "astId": 672,
        "contract": "contracts/Stampost.sol:Stampost",
        "label": "stamp_token_address",
        "offset": 0,
        "slot": "1",
        "type": "t_address"
      },
      {
        "astId": 675,
        "contract": "contracts/Stampost.sol:Stampost",
        "label": "requestMininalFee",
        "offset": 0,
        "slot": "2",
        "type": "t_uint256"
      },
      {
        "astId": 705,
        "contract": "contracts/Stampost.sol:Stampost",
        "label": "publicKeys",
        "offset": 0,
        "slot": "3",
        "type": "t_mapping(t_address,t_struct(PublicKey)680_storage)"
      },
      {
        "astId": 707,
        "contract": "contracts/Stampost.sol:Stampost",
        "label": "totalRequests",
        "offset": 0,
        "slot": "4",
        "type": "t_uint256"
      },
      {
        "astId": 712,
        "contract": "contracts/Stampost.sol:Stampost",
        "label": "requests",
        "offset": 0,
        "slot": "5",
        "type": "t_mapping(t_uint256,t_struct(PublicKeyRequest)700_storage)"
      },
      {
        "astId": 716,
        "contract": "contracts/Stampost.sol:Stampost",
        "label": "addressTotalRequests",
        "offset": 0,
        "slot": "6",
        "type": "t_mapping(t_address,t_uint256)"
      },
      {
        "astId": 720,
        "contract": "contracts/Stampost.sol:Stampost",
        "label": "senderTotalRequests",
        "offset": 0,
        "slot": "7",
        "type": "t_mapping(t_address,t_uint256)"
      },
      {
        "astId": 726,
        "contract": "contracts/Stampost.sol:Stampost",
        "label": "userRequestById",
        "offset": 0,
        "slot": "8",
        "type": "t_mapping(t_address,t_mapping(t_uint256,t_uint256))"
      },
      {
        "astId": 732,
        "contract": "contracts/Stampost.sol:Stampost",
        "label": "userRequestByAddress",
        "offset": 0,
        "slot": "9",
        "type": "t_mapping(t_address,t_mapping(t_address,t_uint256))"
      },
      {
        "astId": 738,
        "contract": "contracts/Stampost.sol:Stampost",
        "label": "senderRequestById",
        "offset": 0,
        "slot": "10",
        "type": "t_mapping(t_address,t_mapping(t_uint256,t_uint256))"
      },
      {
        "astId": 744,
        "contract": "contracts/Stampost.sol:Stampost",
        "label": "senderRequestByAddress",
        "offset": 0,
        "slot": "11",
        "type": "t_mapping(t_address,t_mapping(t_address,t_uint256))"
      },
      {
        "astId": 761,
        "contract": "contracts/Stampost.sol:Stampost",
        "label": "totalLetters",
        "offset": 0,
        "slot": "12",
        "type": "t_uint256"
      },
      {
        "astId": 766,
        "contract": "contracts/Stampost.sol:Stampost",
        "label": "letters",
        "offset": 0,
        "slot": "13",
        "type": "t_mapping(t_uint256,t_struct(Letter)759_storage)"
      },
      {
        "astId": 770,
        "contract": "contracts/Stampost.sol:Stampost",
        "label": "incomingTotalLetters",
        "offset": 0,
        "slot": "14",
        "type": "t_mapping(t_address,t_uint256)"
      },
      {
        "astId": 774,
        "contract": "contracts/Stampost.sol:Stampost",
        "label": "outcomingTotalLetters",
        "offset": 0,
        "slot": "15",
        "type": "t_mapping(t_address,t_uint256)"
      },
      {
        "astId": 780,
        "contract": "contracts/Stampost.sol:Stampost",
        "label": "incomingLetterById",
        "offset": 0,
        "slot": "16",
        "type": "t_mapping(t_address,t_mapping(t_uint256,t_uint256))"
      },
      {
        "astId": 786,
        "contract": "contracts/Stampost.sol:Stampost",
        "label": "outcomingLetterById",
        "offset": 0,
        "slot": "17",
        "type": "t_mapping(t_address,t_mapping(t_uint256,t_uint256))"
      }
    ],
    "types": {
      "t_address": {
        "encoding": "inplace",
        "label": "address",
        "numberOfBytes": "20"
      },
      "t_bool": {
        "encoding": "inplace",
        "label": "bool",
        "numberOfBytes": "1"
      },
      "t_enum(PublicKeyRequestStatus)684": {
        "encoding": "inplace",
        "label": "enum Stampost.PublicKeyRequestStatus",
        "numberOfBytes": "1"
      },
      "t_mapping(t_address,t_mapping(t_address,t_uint256))": {
        "encoding": "mapping",
        "key": "t_address",
        "label": "mapping(address => mapping(address => uint256))",
        "numberOfBytes": "32",
        "value": "t_mapping(t_address,t_uint256)"
      },
      "t_mapping(t_address,t_mapping(t_uint256,t_uint256))": {
        "encoding": "mapping",
        "key": "t_address",
        "label": "mapping(address => mapping(uint256 => uint256))",
        "numberOfBytes": "32",
        "value": "t_mapping(t_uint256,t_uint256)"
      },
      "t_mapping(t_address,t_struct(PublicKey)680_storage)": {
        "encoding": "mapping",
        "key": "t_address",
        "label": "mapping(address => struct Stampost.PublicKey)",
        "numberOfBytes": "32",
        "value": "t_struct(PublicKey)680_storage"
      },
      "t_mapping(t_address,t_uint256)": {
        "encoding": "mapping",
        "key": "t_address",
        "label": "mapping(address => uint256)",
        "numberOfBytes": "32",
        "value": "t_uint256"
      },
      "t_mapping(t_uint256,t_struct(Letter)759_storage)": {
        "encoding": "mapping",
        "key": "t_uint256",
        "label": "mapping(uint256 => struct Stampost.Letter)",
        "numberOfBytes": "32",
        "value": "t_struct(Letter)759_storage"
      },
      "t_mapping(t_uint256,t_struct(PublicKeyRequest)700_storage)": {
        "encoding": "mapping",
        "key": "t_uint256",
        "label": "mapping(uint256 => struct Stampost.PublicKeyRequest)",
        "numberOfBytes": "32",
        "value": "t_struct(PublicKeyRequest)700_storage"
      },
      "t_mapping(t_uint256,t_uint256)": {
        "encoding": "mapping",
        "key": "t_uint256",
        "label": "mapping(uint256 => uint256)",
        "numberOfBytes": "32",
        "value": "t_uint256"
      },
      "t_string_storage": {
        "encoding": "bytes",
        "label": "string",
        "numberOfBytes": "32"
      },
      "t_struct(Letter)759_storage": {
        "encoding": "inplace",
        "label": "struct Stampost.Letter",
        "members": [
          {
            "astId": 746,
            "contract": "contracts/Stampost.sol:Stampost",
            "label": "timestamp",
            "offset": 0,
            "slot": "0",
            "type": "t_uint256"
          },
          {
            "astId": 748,
            "contract": "contracts/Stampost.sol:Stampost",
            "label": "from",
            "offset": 0,
            "slot": "1",
            "type": "t_address"
          },
          {
            "astId": 750,
            "contract": "contracts/Stampost.sol:Stampost",
            "label": "to",
            "offset": 0,
            "slot": "2",
            "type": "t_address"
          },
          {
            "astId": 752,
            "contract": "contracts/Stampost.sol:Stampost",
            "label": "message",
            "offset": 0,
            "slot": "3",
            "type": "t_string_storage"
          },
          {
            "astId": 754,
            "contract": "contracts/Stampost.sol:Stampost",
            "label": "stamps",
            "offset": 0,
            "slot": "4",
            "type": "t_uint256"
          },
          {
            "astId": 756,
            "contract": "contracts/Stampost.sol:Stampost",
            "label": "opened",
            "offset": 0,
            "slot": "5",
            "type": "t_bool"
          },
          {
            "astId": 758,
            "contract": "contracts/Stampost.sol:Stampost",
            "label": "isSet",
            "offset": 1,
            "slot": "5",
            "type": "t_bool"
          }
        ],
        "numberOfBytes": "192"
      },
      "t_struct(PublicKey)680_storage": {
        "encoding": "inplace",
        "label": "struct Stampost.PublicKey",
        "members": [
          {
            "astId": 677,
            "contract": "contracts/Stampost.sol:Stampost",
            "label": "key",
            "offset": 0,
            "slot": "0",
            "type": "t_string_storage"
          },
          {
            "astId": 679,
            "contract": "contracts/Stampost.sol:Stampost",
            "label": "isSet",
            "offset": 0,
            "slot": "1",
            "type": "t_bool"
          }
        ],
        "numberOfBytes": "64"
      },
      "t_struct(PublicKeyRequest)700_storage": {
        "encoding": "inplace",
        "label": "struct Stampost.PublicKeyRequest",
        "members": [
          {
            "astId": 686,
            "contract": "contracts/Stampost.sol:Stampost",
            "label": "id",
            "offset": 0,
            "slot": "0",
            "type": "t_uint256"
          },
          {
            "astId": 688,
            "contract": "contracts/Stampost.sol:Stampost",
            "label": "timestamp",
            "offset": 0,
            "slot": "1",
            "type": "t_uint256"
          },
          {
            "astId": 690,
            "contract": "contracts/Stampost.sol:Stampost",
            "label": "from",
            "offset": 0,
            "slot": "2",
            "type": "t_address"
          },
          {
            "astId": 692,
            "contract": "contracts/Stampost.sol:Stampost",
            "label": "to",
            "offset": 0,
            "slot": "3",
            "type": "t_address"
          },
          {
            "astId": 694,
            "contract": "contracts/Stampost.sol:Stampost",
            "label": "stamps",
            "offset": 0,
            "slot": "4",
            "type": "t_uint256"
          },
          {
            "astId": 697,
            "contract": "contracts/Stampost.sol:Stampost",
            "label": "status",
            "offset": 0,
            "slot": "5",
            "type": "t_enum(PublicKeyRequestStatus)684"
          },
          {
            "astId": 699,
            "contract": "contracts/Stampost.sol:Stampost",
            "label": "message",
            "offset": 0,
            "slot": "6",
            "type": "t_string_storage"
          }
        ],
        "numberOfBytes": "224"
      },
      "t_uint256": {
        "encoding": "inplace",
        "label": "uint256",
        "numberOfBytes": "32"
      }
    }
  }
}