{
  "_format": "hh-sol-artifact-1",
  "contractName": "Stampost",
  "sourceName": "contracts/Stampost.sol",
  "abi": [
    {
      "inputs": [
        {
          "internalType": "address",
          "name": "_recepient",
          "type": "address"
        }
      ],
      "name": "getAcceptedPublicKey",
      "outputs": [
        {
          "internalType": "string",
          "name": "",
          "type": "string"
        }
      ],
      "stateMutability": "view",
      "type": "function"
    },
    {
      "inputs": [
        {
          "internalType": "address",
          "name": "",
          "type": "address"
        }
      ],
      "name": "publicKeys",
      "outputs": [
        {
          "internalType": "string",
          "name": "key",
          "type": "string"
        }
      ],
      "stateMutability": "view",
      "type": "function"
    },
    {
      "inputs": [
        {
          "internalType": "uint256",
          "name": "_chainId",
          "type": "uint256"
        },
        {
          "internalType": "address",
          "name": "_recepient",
          "type": "address"
        },
        {
          "internalType": "uint256",
          "name": "_stamps",
          "type": "uint256"
        },
        {
          "internalType": "string",
          "name": "_publicKey",
          "type": "string"
        }
      ],
      "name": "requestPublicKey",
      "outputs": [],
      "stateMutability": "nonpayable",
      "type": "function"
    }
  ],
  "bytecode": "0x608060405234801561001057600080fd5b506106e0806100206000396000f3fe608060405234801561001057600080fd5b50600436106100415760003560e01c8063a3d6f9a914610046578063bcdae1ec14610076578063de4e1c5514610092575b600080fd5b610060600480360381019061005b919061047b565b6100c2565b60405161006d919061055d565b60405180910390f35b610090600480360381019061008b91906104a4565b610168565b005b6100ac60048036038101906100a7919061047b565b6101c0565b6040516100b9919061055d565b60405180910390f35b60006020528060005260406000206000915090508060000180546100e59061060a565b80601f01602080910402602001604051908101604052809291908181526020018280546101119061060a565b801561015e5780601f106101335761010080835404028352916020019161015e565b820191906000526020600020905b81548152906001019060200180831161014157829003601f168201915b5050505050905081565b81816000803373ffffffffffffffffffffffffffffffffffffffff1673ffffffffffffffffffffffffffffffffffffffff16815260200190815260200160002060000191906101b8929190610364565b505050505050565b606060008060008473ffffffffffffffffffffffffffffffffffffffff1673ffffffffffffffffffffffffffffffffffffffff16815260200190815260200160002060000180546102109061060a565b80601f016020809104026020016040519081016040528092919081815260200182805461023c9061060a565b80156102895780601f1061025e57610100808354040283529160200191610289565b820191906000526020600020905b81548152906001019060200180831161026c57829003601f168201915b50505050509050610299816102a2565b80915050919050565b610338816040516024016102b6919061055d565b6040516020818303038152906040527f41304fac000000000000000000000000000000000000000000000000000000007bffffffffffffffffffffffffffffffffffffffffffffffffffffffff19166020820180517bffffffffffffffffffffffffffffffffffffffffffffffffffffffff838183161783525050505061033b565b50565b60008151905060006a636f6e736f6c652e6c6f679050602083016000808483855afa5050505050565b8280546103709061060a565b90600052602060002090601f01602090048101928261039257600085556103d9565b82601f106103ab57803560ff19168380011785556103d9565b828001600101855582156103d9579182015b828111156103d85782358255916020019190600101906103bd565b5b5090506103e691906103ea565b5090565b5b808211156104035760008160009055506001016103eb565b5090565b6000813590506104168161067c565b92915050565b60008083601f84011261042e57600080fd5b8235905067ffffffffffffffff81111561044757600080fd5b60208301915083600182028301111561045f57600080fd5b9250929050565b60008135905061047581610693565b92915050565b60006020828403121561048d57600080fd5b600061049b84828501610407565b91505092915050565b6000806000806000608086880312156104bc57600080fd5b60006104ca88828901610466565b95505060206104db88828901610407565b94505060406104ec88828901610466565b935050606086013567ffffffffffffffff81111561050957600080fd5b6105158882890161041c565b92509250509295509295909350565b600061052f8261057f565b610539818561058a565b93506105498185602086016105d7565b6105528161066b565b840191505092915050565b600060208201905081810360008301526105778184610524565b905092915050565b600081519050919050565b600082825260208201905092915050565b60006105a6826105ad565b9050919050565b600073ffffffffffffffffffffffffffffffffffffffff82169050919050565b6000819050919050565b60005b838110156105f55780820151818401526020810190506105da565b83811115610604576000848401525b50505050565b6000600282049050600182168061062257607f821691505b602082108114156106365761063561063c565b5b50919050565b7f4e487b7100000000000000000000000000000000000000000000000000000000600052602260045260246000fd5b6000601f19601f8301169050919050565b6106858161059b565b811461069057600080fd5b50565b61069c816105cd565b81146106a757600080fd5b5056fea2646970667358221220d4b78ad47daa8145ee415c7d1fb359aa0da38185196f968c2ecd50d86ab6626f64736f6c63430008040033",
  "linkReferences": {},
  "deployedLinkReferences": {}
}