{
  "contracts/Verifier.sol": {
    "Verifier": {
      "abi": [
        {
          "inputs": [
            {
              "internalType": "string",
              "name": "message",
              "type": "string"
            },
            {
              "internalType": "uint8",
              "name": "v",
              "type": "uint8"
            },
            {
              "internalType": "bytes32",
              "name": "r",
              "type": "bytes32"
            },
            {
              "internalType": "bytes32",
              "name": "s",
              "type": "bytes32"
            }
          ],
          "name": "completeMission",
          "outputs": [
            {
              "internalType": "address",
              "name": "signer",
              "type": "address"
            }
          ],
          "stateMutability": "pure",
          "type": "function"
        }
      ],
      "evm": {
        "bytecode": {
          "linkReferences": {},
          "object": "608060405234801561001057600080fd5b50610790806100206000396000f3fe608060405234801561001057600080fd5b506004361061002b5760003560e01c80631342b8fa14610030575b600080fd5b61004a600480360381019061004591906102a1565b610060565b604051610057919061039e565b60405180910390f35b6000806040518060400160405280602081526020017f19457468657265756d205369676e6564204d6573736167653a0a303030303030815250905060008087519050603983019150620f423f8111156100b857600080fd5b600080620186a090505b6000811461015e57600081846100d891906104c0565b9050600081141561010257600083141561010157600a826100f991906104c0565b9150506100c2565b5b828061010d90610645565b935050818161011c91906104f1565b84610127919061054b565b9350600a8261013691906104c0565b9150603081610145919061046a565b9050848061015290610645565b955050808553506100c2565b600082141561017057601b9150610180565b601a8261017d919061046a565b91505b8185526000858b60405160200161019892919061037a565b6040516020818303038152906040528051906020012090506001818b8b8b604051600081526020016040526040516101d394939291906103b9565b6020604051602081039080840390855afa1580156101f5573d6000803e3d6000fd5b505050602060405103519650505050505050949350505050565b600061022261021d84610423565b6103fe565b90508281526020810184848401111561023a57600080fd5b6102458482856105d2565b509392505050565b60008135905061025c8161072c565b92915050565b600082601f83011261027357600080fd5b813561028384826020860161020f565b91505092915050565b60008135905061029b81610743565b92915050565b600080600080608085870312156102b757600080fd5b600085013567ffffffffffffffff8111156102d157600080fd5b6102dd87828801610262565b94505060206102ee8782880161028c565b93505060406102ff8782880161024d565b92505060606103108782880161024d565b91505092959194509250565b6103258161057f565b82525050565b61033481610591565b82525050565b600061034582610454565b61034f818561045f565b935061035f8185602086016105e1565b80840191505092915050565b610374816105c5565b82525050565b6000610386828561033a565b9150610392828461033a565b91508190509392505050565b60006020820190506103b3600083018461031c565b92915050565b60006080820190506103ce600083018761032b565b6103db602083018661036b565b6103e8604083018561032b565b6103f5606083018461032b565b95945050505050565b6000610408610419565b90506104148282610614565b919050565b6000604051905090565b600067ffffffffffffffff82111561043e5761043d6106ec565b5b6104478261071b565b9050602081019050919050565b600081519050919050565b600081905092915050565b6000610475826105bb565b9150610480836105bb565b9250827fffffffffffffffffffffffffffffffffffffffffffffffffffffffffffffffff038211156104b5576104b461068e565b5b828201905092915050565b60006104cb826105bb565b91506104d6836105bb565b9250826104e6576104e56106bd565b5b828204905092915050565b60006104fc826105bb565b9150610507836105bb565b9250817fffffffffffffffffffffffffffffffffffffffffffffffffffffffffffffffff04831182151516156105405761053f61068e565b5b828202905092915050565b6000610556826105bb565b9150610561836105bb565b9250828210156105745761057361068e565b5b828203905092915050565b600061058a8261059b565b9050919050565b6000819050919050565b600073ffffffffffffffffffffffffffffffffffffffff82169050919050565b6000819050919050565b600060ff82169050919050565b82818337600083830152505050565b60005b838110156105ff5780820151818401526020810190506105e4565b8381111561060e576000848401525b50505050565b61061d8261071b565b810181811067ffffffffffffffff8211171561063c5761063b6106ec565b5b80604052505050565b6000610650826105bb565b91507fffffffffffffffffffffffffffffffffffffffffffffffffffffffffffffffff8214156106835761068261068e565b5b600182019050919050565b7f4e487b7100000000000000000000000000000000000000000000000000000000600052601160045260246000fd5b7f4e487b7100000000000000000000000000000000000000000000000000000000600052601260045260246000fd5b7f4e487b7100000000000000000000000000000000000000000000000000000000600052604160045260246000fd5b6000601f19601f8301169050919050565b61073581610591565b811461074057600080fd5b50565b61074c816105c5565b811461075757600080fd5b5056fea264697066735822122039780d49cf00cb85c10e58974975023f6782603d09cf62cbf4405eca8599d61364736f6c63430008040033",
          "opcodes": "PUSH1 0x80 PUSH1 0x40 MSTORE CALLVALUE DUP1 ISZERO PUSH2 0x10 JUMPI PUSH1 0x0 DUP1 REVERT JUMPDEST POP PUSH2 0x790 DUP1 PUSH2 0x20 PUSH1 0x0 CODECOPY PUSH1 0x0 RETURN INVALID PUSH1 0x80 PUSH1 0x40 MSTORE CALLVALUE DUP1 ISZERO PUSH2 0x10 JUMPI PUSH1 0x0 DUP1 REVERT JUMPDEST POP PUSH1 0x4 CALLDATASIZE LT PUSH2 0x2B JUMPI PUSH1 0x0 CALLDATALOAD PUSH1 0xE0 SHR DUP1 PUSH4 0x1342B8FA EQ PUSH2 0x30 JUMPI JUMPDEST PUSH1 0x0 DUP1 REVERT JUMPDEST PUSH2 0x4A PUSH1 0x4 DUP1 CALLDATASIZE SUB DUP2 ADD SWAP1 PUSH2 0x45 SWAP2 SWAP1 PUSH2 0x2A1 JUMP JUMPDEST PUSH2 0x60 JUMP JUMPDEST PUSH1 0x40 MLOAD PUSH2 0x57 SWAP2 SWAP1 PUSH2 0x39E JUMP JUMPDEST PUSH1 0x40 MLOAD DUP1 SWAP2 SUB SWAP1 RETURN JUMPDEST PUSH1 0x0 DUP1 PUSH1 0x40 MLOAD DUP1 PUSH1 0x40 ADD PUSH1 0x40 MSTORE DUP1 PUSH1 0x20 DUP2 MSTORE PUSH1 0x20 ADD PUSH32 0x19457468657265756D205369676E6564204D6573736167653A0A303030303030 DUP2 MSTORE POP SWAP1 POP PUSH1 0x0 DUP1 DUP8 MLOAD SWAP1 POP PUSH1 0x39 DUP4 ADD SWAP2 POP PUSH3 0xF423F DUP2 GT ISZERO PUSH2 0xB8 JUMPI PUSH1 0x0 DUP1 REVERT JUMPDEST PUSH1 0x0 DUP1 PUSH3 0x186A0 SWAP1 POP JUMPDEST PUSH1 0x0 DUP2 EQ PUSH2 0x15E JUMPI PUSH1 0x0 DUP2 DUP5 PUSH2 0xD8 SWAP2 SWAP1 PUSH2 0x4C0 JUMP JUMPDEST SWAP1 POP PUSH1 0x0 DUP2 EQ ISZERO PUSH2 0x102 JUMPI PUSH1 0x0 DUP4 EQ ISZERO PUSH2 0x101 JUMPI PUSH1 0xA DUP3 PUSH2 0xF9 SWAP2 SWAP1 PUSH2 0x4C0 JUMP JUMPDEST SWAP2 POP POP PUSH2 0xC2 JUMP JUMPDEST JUMPDEST DUP3 DUP1 PUSH2 0x10D SWAP1 PUSH2 0x645 JUMP JUMPDEST SWAP4 POP POP DUP2 DUP2 PUSH2 0x11C SWAP2 SWAP1 PUSH2 0x4F1 JUMP JUMPDEST DUP5 PUSH2 0x127 SWAP2 SWAP1 PUSH2 0x54B JUMP JUMPDEST SWAP4 POP PUSH1 0xA DUP3 PUSH2 0x136 SWAP2 SWAP1 PUSH2 0x4C0 JUMP JUMPDEST SWAP2 POP PUSH1 0x30 DUP2 PUSH2 0x145 SWAP2 SWAP1 PUSH2 0x46A JUMP JUMPDEST SWAP1 POP DUP5 DUP1 PUSH2 0x152 SWAP1 PUSH2 0x645 JUMP JUMPDEST SWAP6 POP POP DUP1 DUP6 MSTORE8 POP PUSH2 0xC2 JUMP JUMPDEST PUSH1 0x0 DUP3 EQ ISZERO PUSH2 0x170 JUMPI PUSH1 0x1B SWAP2 POP PUSH2 0x180 JUMP JUMPDEST PUSH1 0x1A DUP3 PUSH2 0x17D SWAP2 SWAP1 PUSH2 0x46A JUMP JUMPDEST SWAP2 POP JUMPDEST DUP2 DUP6 MSTORE PUSH1 0x0 DUP6 DUP12 PUSH1 0x40 MLOAD PUSH1 0x20 ADD PUSH2 0x198 SWAP3 SWAP2 SWAP1 PUSH2 0x37A JUMP JUMPDEST PUSH1 0x40 MLOAD PUSH1 0x20 DUP2 DUP4 SUB SUB DUP2 MSTORE SWAP1 PUSH1 0x40 MSTORE DUP1 MLOAD SWAP1 PUSH1 0x20 ADD KECCAK256 SWAP1 POP PUSH1 0x1 DUP2 DUP12 DUP12 DUP12 PUSH1 0x40 MLOAD PUSH1 0x0 DUP2 MSTORE PUSH1 0x20 ADD PUSH1 0x40 MSTORE PUSH1 0x40 MLOAD PUSH2 0x1D3 SWAP5 SWAP4 SWAP3 SWAP2 SWAP1 PUSH2 0x3B9 JUMP JUMPDEST PUSH1 0x20 PUSH1 0x40 MLOAD PUSH1 0x20 DUP2 SUB SWAP1 DUP1 DUP5 SUB SWAP1 DUP6 GAS STATICCALL ISZERO DUP1 ISZERO PUSH2 0x1F5 JUMPI RETURNDATASIZE PUSH1 0x0 DUP1 RETURNDATACOPY RETURNDATASIZE PUSH1 0x0 REVERT JUMPDEST POP POP POP PUSH1 0x20 PUSH1 0x40 MLOAD SUB MLOAD SWAP7 POP POP POP POP POP POP POP SWAP5 SWAP4 POP POP POP POP JUMP JUMPDEST PUSH1 0x0 PUSH2 0x222 PUSH2 0x21D DUP5 PUSH2 0x423 JUMP JUMPDEST PUSH2 0x3FE JUMP JUMPDEST SWAP1 POP DUP3 DUP2 MSTORE PUSH1 0x20 DUP2 ADD DUP5 DUP5 DUP5 ADD GT ISZERO PUSH2 0x23A JUMPI PUSH1 0x0 DUP1 REVERT JUMPDEST PUSH2 0x245 DUP5 DUP3 DUP6 PUSH2 0x5D2 JUMP JUMPDEST POP SWAP4 SWAP3 POP POP POP JUMP JUMPDEST PUSH1 0x0 DUP2 CALLDATALOAD SWAP1 POP PUSH2 0x25C DUP2 PUSH2 0x72C JUMP JUMPDEST SWAP3 SWAP2 POP POP JUMP JUMPDEST PUSH1 0x0 DUP3 PUSH1 0x1F DUP4 ADD SLT PUSH2 0x273 JUMPI PUSH1 0x0 DUP1 REVERT JUMPDEST DUP2 CALLDATALOAD PUSH2 0x283 DUP5 DUP3 PUSH1 0x20 DUP7 ADD PUSH2 0x20F JUMP JUMPDEST SWAP2 POP POP SWAP3 SWAP2 POP POP JUMP JUMPDEST PUSH1 0x0 DUP2 CALLDATALOAD SWAP1 POP PUSH2 0x29B DUP2 PUSH2 0x743 JUMP JUMPDEST SWAP3 SWAP2 POP POP JUMP JUMPDEST PUSH1 0x0 DUP1 PUSH1 0x0 DUP1 PUSH1 0x80 DUP6 DUP8 SUB SLT ISZERO PUSH2 0x2B7 JUMPI PUSH1 0x0 DUP1 REVERT JUMPDEST PUSH1 0x0 DUP6 ADD CALLDATALOAD PUSH8 0xFFFFFFFFFFFFFFFF DUP2 GT ISZERO PUSH2 0x2D1 JUMPI PUSH1 0x0 DUP1 REVERT JUMPDEST PUSH2 0x2DD DUP8 DUP3 DUP9 ADD PUSH2 0x262 JUMP JUMPDEST SWAP5 POP POP PUSH1 0x20 PUSH2 0x2EE DUP8 DUP3 DUP9 ADD PUSH2 0x28C JUMP JUMPDEST SWAP4 POP POP PUSH1 0x40 PUSH2 0x2FF DUP8 DUP3 DUP9 ADD PUSH2 0x24D JUMP JUMPDEST SWAP3 POP POP PUSH1 0x60 PUSH2 0x310 DUP8 DUP3 DUP9 ADD PUSH2 0x24D JUMP JUMPDEST SWAP2 POP POP SWAP3 SWAP6 SWAP2 SWAP5 POP SWAP3 POP JUMP JUMPDEST PUSH2 0x325 DUP2 PUSH2 0x57F JUMP JUMPDEST DUP3 MSTORE POP POP JUMP JUMPDEST PUSH2 0x334 DUP2 PUSH2 0x591 JUMP JUMPDEST DUP3 MSTORE POP POP JUMP JUMPDEST PUSH1 0x0 PUSH2 0x345 DUP3 PUSH2 0x454 JUMP JUMPDEST PUSH2 0x34F DUP2 DUP6 PUSH2 0x45F JUMP JUMPDEST SWAP4 POP PUSH2 0x35F DUP2 DUP6 PUSH1 0x20 DUP7 ADD PUSH2 0x5E1 JUMP JUMPDEST DUP1 DUP5 ADD SWAP2 POP POP SWAP3 SWAP2 POP POP JUMP JUMPDEST PUSH2 0x374 DUP2 PUSH2 0x5C5 JUMP JUMPDEST DUP3 MSTORE POP POP JUMP JUMPDEST PUSH1 0x0 PUSH2 0x386 DUP3 DUP6 PUSH2 0x33A JUMP JUMPDEST SWAP2 POP PUSH2 0x392 DUP3 DUP5 PUSH2 0x33A JUMP JUMPDEST SWAP2 POP DUP2 SWAP1 POP SWAP4 SWAP3 POP POP POP JUMP JUMPDEST PUSH1 0x0 PUSH1 0x20 DUP3 ADD SWAP1 POP PUSH2 0x3B3 PUSH1 0x0 DUP4 ADD DUP5 PUSH2 0x31C JUMP JUMPDEST SWAP3 SWAP2 POP POP JUMP JUMPDEST PUSH1 0x0 PUSH1 0x80 DUP3 ADD SWAP1 POP PUSH2 0x3CE PUSH1 0x0 DUP4 ADD DUP8 PUSH2 0x32B JUMP JUMPDEST PUSH2 0x3DB PUSH1 0x20 DUP4 ADD DUP7 PUSH2 0x36B JUMP JUMPDEST PUSH2 0x3E8 PUSH1 0x40 DUP4 ADD DUP6 PUSH2 0x32B JUMP JUMPDEST PUSH2 0x3F5 PUSH1 0x60 DUP4 ADD DUP5 PUSH2 0x32B JUMP JUMPDEST SWAP6 SWAP5 POP POP POP POP POP JUMP JUMPDEST PUSH1 0x0 PUSH2 0x408 PUSH2 0x419 JUMP JUMPDEST SWAP1 POP PUSH2 0x414 DUP3 DUP3 PUSH2 0x614 JUMP JUMPDEST SWAP2 SWAP1 POP JUMP JUMPDEST PUSH1 0x0 PUSH1 0x40 MLOAD SWAP1 POP SWAP1 JUMP JUMPDEST PUSH1 0x0 PUSH8 0xFFFFFFFFFFFFFFFF DUP3 GT ISZERO PUSH2 0x43E JUMPI PUSH2 0x43D PUSH2 0x6EC JUMP JUMPDEST JUMPDEST PUSH2 0x447 DUP3 PUSH2 0x71B JUMP JUMPDEST SWAP1 POP PUSH1 0x20 DUP2 ADD SWAP1 POP SWAP2 SWAP1 POP JUMP JUMPDEST PUSH1 0x0 DUP2 MLOAD SWAP1 POP SWAP2 SWAP1 POP JUMP JUMPDEST PUSH1 0x0 DUP2 SWAP1 POP SWAP3 SWAP2 POP POP JUMP JUMPDEST PUSH1 0x0 PUSH2 0x475 DUP3 PUSH2 0x5BB JUMP JUMPDEST SWAP2 POP PUSH2 0x480 DUP4 PUSH2 0x5BB JUMP JUMPDEST SWAP3 POP DUP3 PUSH32 0xFFFFFFFFFFFFFFFFFFFFFFFFFFFFFFFFFFFFFFFFFFFFFFFFFFFFFFFFFFFFFFFF SUB DUP3 GT ISZERO PUSH2 0x4B5 JUMPI PUSH2 0x4B4 PUSH2 0x68E JUMP JUMPDEST JUMPDEST DUP3 DUP3 ADD SWAP1 POP SWAP3 SWAP2 POP POP JUMP JUMPDEST PUSH1 0x0 PUSH2 0x4CB DUP3 PUSH2 0x5BB JUMP JUMPDEST SWAP2 POP PUSH2 0x4D6 DUP4 PUSH2 0x5BB JUMP JUMPDEST SWAP3 POP DUP3 PUSH2 0x4E6 JUMPI PUSH2 0x4E5 PUSH2 0x6BD JUMP JUMPDEST JUMPDEST DUP3 DUP3 DIV SWAP1 POP SWAP3 SWAP2 POP POP JUMP JUMPDEST PUSH1 0x0 PUSH2 0x4FC DUP3 PUSH2 0x5BB JUMP JUMPDEST SWAP2 POP PUSH2 0x507 DUP4 PUSH2 0x5BB JUMP JUMPDEST SWAP3 POP DUP2 PUSH32 0xFFFFFFFFFFFFFFFFFFFFFFFFFFFFFFFFFFFFFFFFFFFFFFFFFFFFFFFFFFFFFFFF DIV DUP4 GT DUP3 ISZERO ISZERO AND ISZERO PUSH2 0x540 JUMPI PUSH2 0x53F PUSH2 0x68E JUMP JUMPDEST JUMPDEST DUP3 DUP3 MUL SWAP1 POP SWAP3 SWAP2 POP POP JUMP JUMPDEST PUSH1 0x0 PUSH2 0x556 DUP3 PUSH2 0x5BB JUMP JUMPDEST SWAP2 POP PUSH2 0x561 DUP4 PUSH2 0x5BB JUMP JUMPDEST SWAP3 POP DUP3 DUP3 LT ISZERO PUSH2 0x574 JUMPI PUSH2 0x573 PUSH2 0x68E JUMP JUMPDEST JUMPDEST DUP3 DUP3 SUB SWAP1 POP SWAP3 SWAP2 POP POP JUMP JUMPDEST PUSH1 0x0 PUSH2 0x58A DUP3 PUSH2 0x59B JUMP JUMPDEST SWAP1 POP SWAP2 SWAP1 POP JUMP JUMPDEST PUSH1 0x0 DUP2 SWAP1 POP SWAP2 SWAP1 POP JUMP JUMPDEST PUSH1 0x0 PUSH20 0xFFFFFFFFFFFFFFFFFFFFFFFFFFFFFFFFFFFFFFFF DUP3 AND SWAP1 POP SWAP2 SWAP1 POP JUMP JUMPDEST PUSH1 0x0 DUP2 SWAP1 POP SWAP2 SWAP1 POP JUMP JUMPDEST PUSH1 0x0 PUSH1 0xFF DUP3 AND SWAP1 POP SWAP2 SWAP1 POP JUMP JUMPDEST DUP3 DUP2 DUP4 CALLDATACOPY PUSH1 0x0 DUP4 DUP4 ADD MSTORE POP POP POP JUMP JUMPDEST PUSH1 0x0 JUMPDEST DUP4 DUP2 LT ISZERO PUSH2 0x5FF JUMPI DUP1 DUP3 ADD MLOAD DUP2 DUP5 ADD MSTORE PUSH1 0x20 DUP2 ADD SWAP1 POP PUSH2 0x5E4 JUMP JUMPDEST DUP4 DUP2 GT ISZERO PUSH2 0x60E JUMPI PUSH1 0x0 DUP5 DUP5 ADD MSTORE JUMPDEST POP POP POP POP JUMP JUMPDEST PUSH2 0x61D DUP3 PUSH2 0x71B JUMP JUMPDEST DUP2 ADD DUP2 DUP2 LT PUSH8 0xFFFFFFFFFFFFFFFF DUP3 GT OR ISZERO PUSH2 0x63C JUMPI PUSH2 0x63B PUSH2 0x6EC JUMP JUMPDEST JUMPDEST DUP1 PUSH1 0x40 MSTORE POP POP POP JUMP JUMPDEST PUSH1 0x0 PUSH2 0x650 DUP3 PUSH2 0x5BB JUMP JUMPDEST SWAP2 POP PUSH32 0xFFFFFFFFFFFFFFFFFFFFFFFFFFFFFFFFFFFFFFFFFFFFFFFFFFFFFFFFFFFFFFFF DUP3 EQ ISZERO PUSH2 0x683 JUMPI PUSH2 0x682 PUSH2 0x68E JUMP JUMPDEST JUMPDEST PUSH1 0x1 DUP3 ADD SWAP1 POP SWAP2 SWAP1 POP JUMP JUMPDEST PUSH32 0x4E487B7100000000000000000000000000000000000000000000000000000000 PUSH1 0x0 MSTORE PUSH1 0x11 PUSH1 0x4 MSTORE PUSH1 0x24 PUSH1 0x0 REVERT JUMPDEST PUSH32 0x4E487B7100000000000000000000000000000000000000000000000000000000 PUSH1 0x0 MSTORE PUSH1 0x12 PUSH1 0x4 MSTORE PUSH1 0x24 PUSH1 0x0 REVERT JUMPDEST PUSH32 0x4E487B7100000000000000000000000000000000000000000000000000000000 PUSH1 0x0 MSTORE PUSH1 0x41 PUSH1 0x4 MSTORE PUSH1 0x24 PUSH1 0x0 REVERT JUMPDEST PUSH1 0x0 PUSH1 0x1F NOT PUSH1 0x1F DUP4 ADD AND SWAP1 POP SWAP2 SWAP1 POP JUMP JUMPDEST PUSH2 0x735 DUP2 PUSH2 0x591 JUMP JUMPDEST DUP2 EQ PUSH2 0x740 JUMPI PUSH1 0x0 DUP1 REVERT JUMPDEST POP JUMP JUMPDEST PUSH2 0x74C DUP2 PUSH2 0x5C5 JUMP JUMPDEST DUP2 EQ PUSH2 0x757 JUMPI PUSH1 0x0 DUP1 REVERT JUMPDEST POP JUMP INVALID LOG2 PUSH5 0x6970667358 0x22 SLT KECCAK256 CODECOPY PUSH25 0xD49CF00CB85C10E58974975023F6782603D09CF62CBF4405E 0xCA DUP6 SWAP10 0xD6 SGT PUSH5 0x736F6C6343 STOP ADDMOD DIV STOP CALLER "
        },
        "methodIdentifiers": {
          "completeMission(string,uint8,bytes32,bytes32)": "1342b8fa"
        }
      }
    }
  }
}