{
  "_format": "hh-sol-artifact-1",
  "contractName": "Stampost",
  "sourceName": "contracts/Stampost.sol",
  "abi": [
    {
      "inputs": [],
      "stateMutability": "nonpayable",
      "type": "constructor"
    },
    {
      "anonymous": false,
      "inputs": [
        {
          "indexed": true,
          "internalType": "address",
          "name": "previousOwner",
          "type": "address"
        },
        {
          "indexed": true,
          "internalType": "address",
          "name": "newOwner",
          "type": "address"
        }
      ],
      "name": "OwnershipTransferred",
      "type": "event"
    },
    {
      "inputs": [
        {
          "internalType": "uint256",
          "name": "requestId",
          "type": "uint256"
        },
        {
          "internalType": "string",
          "name": "publicKey",
          "type": "string"
        }
      ],
      "name": "acceptPublicKeyRequest",
      "outputs": [],
      "stateMutability": "nonpayable",
      "type": "function"
    },
    {
      "inputs": [
        {
          "internalType": "address",
          "name": "user",
          "type": "address"
        }
      ],
      "name": "getAcceptedPublicKey",
      "outputs": [
        {
          "internalType": "string",
          "name": "",
          "type": "string"
        }
      ],
      "stateMutability": "view",
      "type": "function"
    },
    {
      "inputs": [],
      "name": "getOutcomingRequests",
      "outputs": [
        {
          "components": [
            {
              "internalType": "uint256",
              "name": "timestamp",
              "type": "uint256"
            },
            {
              "internalType": "address",
              "name": "from",
              "type": "address"
            },
            {
              "internalType": "address",
              "name": "to",
              "type": "address"
            },
            {
              "internalType": "uint256",
              "name": "stamps",
              "type": "uint256"
            },
            {
              "internalType": "enum Stampost.PublicKeyRequestStatus",
              "name": "status",
              "type": "uint8"
            }
          ],
          "internalType": "struct Stampost.PublicKeyRequest[]",
          "name": "",
          "type": "tuple[]"
        }
      ],
      "stateMutability": "view",
      "type": "function"
    },
    {
      "inputs": [
        {
          "internalType": "address",
          "name": "user",
          "type": "address"
        }
      ],
      "name": "getPublicKey",
      "outputs": [
        {
          "internalType": "string",
          "name": "",
          "type": "string"
        }
      ],
      "stateMutability": "view",
      "type": "function"
    },
    {
      "inputs": [
        {
          "internalType": "address",
          "name": "_recepient",
          "type": "address"
        }
      ],
      "name": "getRequestsForAddress",
      "outputs": [
        {
          "components": [
            {
              "internalType": "uint256",
              "name": "timestamp",
              "type": "uint256"
            },
            {
              "internalType": "address",
              "name": "from",
              "type": "address"
            },
            {
              "internalType": "address",
              "name": "to",
              "type": "address"
            },
            {
              "internalType": "uint256",
              "name": "stamps",
              "type": "uint256"
            },
            {
              "internalType": "enum Stampost.PublicKeyRequestStatus",
              "name": "status",
              "type": "uint8"
            }
          ],
          "internalType": "struct Stampost.PublicKeyRequest[]",
          "name": "",
          "type": "tuple[]"
        }
      ],
      "stateMutability": "view",
      "type": "function"
    },
    {
      "inputs": [],
      "name": "getStampTokenAddress",
      "outputs": [
        {
          "internalType": "address",
          "name": "",
          "type": "address"
        }
      ],
      "stateMutability": "view",
      "type": "function"
    },
    {
      "inputs": [],
      "name": "incomingMail",
      "outputs": [
        {
          "components": [
            {
              "internalType": "uint256",
              "name": "timestamp",
              "type": "uint256"
            },
            {
              "internalType": "address",
              "name": "from",
              "type": "address"
            },
            {
              "internalType": "address",
              "name": "to",
              "type": "address"
            },
            {
              "internalType": "string",
              "name": "message",
              "type": "string"
            },
            {
              "internalType": "uint256",
              "name": "stamps",
              "type": "uint256"
            },
            {
              "internalType": "bool",
              "name": "opened",
              "type": "bool"
            },
            {
              "internalType": "bool",
              "name": "isSet",
              "type": "bool"
            }
          ],
          "internalType": "struct Stampost.Letter[]",
          "name": "incomingLetters",
          "type": "tuple[]"
        }
      ],
      "stateMutability": "view",
      "type": "function"
    },
    {
      "inputs": [],
      "name": "outcomingMail",
      "outputs": [
        {
          "components": [
            {
              "internalType": "uint256",
              "name": "timestamp",
              "type": "uint256"
            },
            {
              "internalType": "address",
              "name": "from",
              "type": "address"
            },
            {
              "internalType": "address",
              "name": "to",
              "type": "address"
            },
            {
              "internalType": "string",
              "name": "message",
              "type": "string"
            },
            {
              "internalType": "uint256",
              "name": "stamps",
              "type": "uint256"
            },
            {
              "internalType": "bool",
              "name": "opened",
              "type": "bool"
            },
            {
              "internalType": "bool",
              "name": "isSet",
              "type": "bool"
            }
          ],
          "internalType": "struct Stampost.Letter[]",
          "name": "outcomingLetters",
          "type": "tuple[]"
        }
      ],
      "stateMutability": "view",
      "type": "function"
    },
    {
      "inputs": [],
      "name": "owner",
      "outputs": [
        {
          "internalType": "address",
          "name": "",
          "type": "address"
        }
      ],
      "stateMutability": "view",
      "type": "function"
    },
    {
      "inputs": [
        {
          "internalType": "address",
          "name": "",
          "type": "address"
        }
      ],
      "name": "publicKeys",
      "outputs": [
        {
          "internalType": "string",
          "name": "key",
          "type": "string"
        },
        {
          "internalType": "bool",
          "name": "isSet",
          "type": "bool"
        }
      ],
      "stateMutability": "view",
      "type": "function"
    },
    {
      "inputs": [],
      "name": "renounceOwnership",
      "outputs": [],
      "stateMutability": "nonpayable",
      "type": "function"
    },
    {
      "inputs": [
        {
          "internalType": "uint256",
          "name": "_chainId",
          "type": "uint256"
        },
        {
          "internalType": "address",
          "name": "_recepient",
          "type": "address"
        },
        {
          "internalType": "uint256",
          "name": "_stamps",
          "type": "uint256"
        },
        {
          "internalType": "string",
          "name": "_publicKey",
          "type": "string"
        }
      ],
      "name": "requestPublicKey",
      "outputs": [],
      "stateMutability": "nonpayable",
      "type": "function"
    },
    {
      "inputs": [
        {
          "internalType": "uint256",
          "name": "chainId",
          "type": "uint256"
        },
        {
          "internalType": "address",
          "name": "_recepient",
          "type": "address"
        },
        {
          "internalType": "string",
          "name": "_message",
          "type": "string"
        },
        {
          "internalType": "uint256",
          "name": "_stamps",
          "type": "uint256"
        }
      ],
      "name": "sendMail",
      "outputs": [],
      "stateMutability": "nonpayable",
      "type": "function"
    },
    {
      "inputs": [
        {
          "internalType": "address",
          "name": "_stamp_token_address",
          "type": "address"
        }
      ],
      "name": "setStampToken",
      "outputs": [],
      "stateMutability": "nonpayable",
      "type": "function"
    },
    {
      "inputs": [],
      "name": "stamp_token_address",
      "outputs": [
        {
          "internalType": "address",
          "name": "",
          "type": "address"
        }
      ],
      "stateMutability": "view",
      "type": "function"
    },
    {
      "inputs": [
        {
          "internalType": "address",
          "name": "newOwner",
          "type": "address"
        }
      ],
      "name": "transferOwnership",
      "outputs": [],
      "stateMutability": "nonpayable",
      "type": "function"
    }
  ],
  "bytecode": "0x60806040526729a2241af62c00006002553480156200001d57600080fd5b506200003e620000326200008f60201b60201c565b6200009760201b60201c565b620000896040518060400160405280600b81526020017f636f6e7374727563746f720000000000000000000000000000000000000000008152506200015b60201b620024ea1760201c565b620002ef565b600033905090565b60008060009054906101000a900473ffffffffffffffffffffffffffffffffffffffff169050816000806101000a81548173ffffffffffffffffffffffffffffffffffffffff021916908373ffffffffffffffffffffffffffffffffffffffff1602179055508173ffffffffffffffffffffffffffffffffffffffff168173ffffffffffffffffffffffffffffffffffffffff167f8be0079c531659141344cd1fd0a4f28419497f9722a3daafe3b4186f6b6457e060405160405180910390a35050565b620001fb8160405160240162000172919062000268565b6040516020818303038152906040527f41304fac000000000000000000000000000000000000000000000000000000007bffffffffffffffffffffffffffffffffffffffffffffffffffffffff19166020820180517bffffffffffffffffffffffffffffffffffffffffffffffffffffffff8381831617835250505050620001fe60201b60201c565b50565b60008151905060006a636f6e736f6c652e6c6f679050602083016000808483855afa5050505050565b600062000234826200028c565b62000240818562000297565b935062000252818560208601620002a8565b6200025d81620002de565b840191505092915050565b6000602082019050818103600083015262000284818462000227565b905092915050565b600081519050919050565b600082825260208201905092915050565b60005b83811015620002c8578082015181840152602081019050620002ab565b83811115620002d8576000848401525b50505050565b6000601f19601f8301169050919050565b61410f80620002ff6000396000f3fe608060405234801561001057600080fd5b50600436106101005760003560e01c8063a3d6f9a911610097578063de4e1c5511610066578063de4e1c551461028a578063e2621520146102ba578063f2fde38b146102d6578063f813d437146102f257610100565b8063a3d6f9a9146101f1578063b0b4de9414610222578063bcdae1ec1461023e578063dcec3ec81461025a57610100565b80637fd33fd2116100d35780637fd33fd2146101675780638551f9d514610185578063857cdbb8146101a35780638da5cb5b146101d357610100565b80634f0483ea14610105578063522e1709146101235780635cfcafae14610141578063715018a61461015d575b600080fd5b61010d610310565b60405161011a9190613879565b60405180910390f35b61012b610336565b6040516101389190613879565b60405180910390f35b61015b60048036038101906101569190613270565b610360565b005b610165610420565b005b61016f6104a8565b60405161017c91906138b6565b60405180910390f35b61018d610908565b60405161019a9190613894565b60405180910390f35b6101bd60048036038101906101b89190613270565b610da9565b6040516101ca91906138d8565b60405180910390f35b6101db610e83565b6040516101e89190613879565b60405180910390f35b61020b60048036038101906102069190613270565b610eac565b6040516102199291906138fa565b60405180910390f35b61023c600480360381019061023791906132c2565b610f65565b005b61025860048036038101906102539190613342565b6112b2565b005b610274600480360381019061026f9190613270565b6116da565b60405161028191906138b6565b60405180910390f35b6102a4600480360381019061029f9190613270565b611b3c565b6040516102b191906138d8565b60405180910390f35b6102d460048036038101906102cf91906133c2565b611c16565b005b6102f060048036038101906102eb9190613270565b611f51565b005b6102fa612049565b6040516103079190613894565b60405180910390f35b600160009054906101000a900473ffffffffffffffffffffffffffffffffffffffff1681565b6000600160009054906101000a900473ffffffffffffffffffffffffffffffffffffffff16905090565b610368612583565b73ffffffffffffffffffffffffffffffffffffffff16610386610e83565b73ffffffffffffffffffffffffffffffffffffffff16146103dc576040517f08c379a00000000000000000000000000000000000000000000000000000000081526004016103d390613a3a565b60405180910390fd5b80600160006101000a81548173ffffffffffffffffffffffffffffffffffffffff021916908373ffffffffffffffffffffffffffffffffffffffff16021790555050565b610428612583565b73ffffffffffffffffffffffffffffffffffffffff16610446610e83565b73ffffffffffffffffffffffffffffffffffffffff161461049c576040517f08c379a000000000000000000000000000000000000000000000000000000000815260040161049390613a3a565b60405180910390fd5b6104a6600061258b565b565b60606000600760003373ffffffffffffffffffffffffffffffffffffffff1673ffffffffffffffffffffffffffffffffffffffff16815260200190815260200160002054905061052d6040518060400160405280601381526020017f73656e646572546f74616c5265717565737473000000000000000000000000008152508261264f565b60008114156105b957600067ffffffffffffffff811115610577577f4e487b7100000000000000000000000000000000000000000000000000000000600052604160045260246000fd5b6040519080825280602002602001820160405280156105b057816020015b61059d613044565b8152602001906001900390816105955790505b50915050610905565b60008167ffffffffffffffff8111156105fb577f4e487b7100000000000000000000000000000000000000000000000000000000600052604160045260246000fd5b60405190808252806020026020018201604052801561063457816020015b610621613044565b8152602001906001900390816106195790505b50905060005b828110156108be576000600a60003373ffffffffffffffffffffffffffffffffffffffff1673ffffffffffffffffffffffffffffffffffffffff16815260200190815260200160002060006001846106929190613b74565b81526020019081526020016000205490506106e26040518060400160405280600981526020017f72657175657374496400000000000000000000000000000000000000000000008152508261264f565b61070160056000838152602001908152602001600020600301546126eb565b600560008281526020019081526020016000206040518060a0016040529081600082015481526020016001820160009054906101000a900473ffffffffffffffffffffffffffffffffffffffff1673ffffffffffffffffffffffffffffffffffffffff1673ffffffffffffffffffffffffffffffffffffffff1681526020016002820160009054906101000a900473ffffffffffffffffffffffffffffffffffffffff1673ffffffffffffffffffffffffffffffffffffffff1673ffffffffffffffffffffffffffffffffffffffff168152602001600382015481526020016004820160009054906101000a900460ff16600281111561082a577f4e487b7100000000000000000000000000000000000000000000000000000000600052602160045260246000fd5b6002811115610862577f4e487b7100000000000000000000000000000000000000000000000000000000600052602160045260246000fd5b8152505083838151811061089f577f4e487b7100000000000000000000000000000000000000000000000000000000600052603260045260246000fd5b60200260200101819052505080806108b690613c9c565b91505061063a565b506108ff6040518060400160405280600681526020017f6c656e6774680000000000000000000000000000000000000000000000000000815250825161264f565b80925050505b90565b60606000600f60003373ffffffffffffffffffffffffffffffffffffffff1673ffffffffffffffffffffffffffffffffffffffff16815260200190815260200160002054905061098d6040518060400160405280601581526020017f746f74616c4f7574636f6d696e674c65747465727300000000000000000000008152508261264f565b6000811415610a1957600067ffffffffffffffff8111156109d7577f4e487b7100000000000000000000000000000000000000000000000000000000600052604160045260246000fd5b604051908082528060200260200182016040528015610a1057816020015b6109fd6130d7565b8152602001906001900390816109f55790505b50915050610da6565b60008167ffffffffffffffff811115610a5b577f4e487b7100000000000000000000000000000000000000000000000000000000600052604160045260246000fd5b604051908082528060200260200182016040528015610a9457816020015b610a816130d7565b815260200190600190039081610a795790505b50905060005b82811015610d5f576000601160003373ffffffffffffffffffffffffffffffffffffffff1673ffffffffffffffffffffffffffffffffffffffff1681526020019081526020016000206000600184610af29190613b74565b8152602001908152602001600020549050610b426040518060400160405280600881526020017f6c657474657249640000000000000000000000000000000000000000000000008152508261264f565b610b61600d6000838152602001908152602001600020600001546126eb565b600d60008281526020019081526020016000206040518060e0016040529081600082015481526020016001820160009054906101000a900473ffffffffffffffffffffffffffffffffffffffff1673ffffffffffffffffffffffffffffffffffffffff1673ffffffffffffffffffffffffffffffffffffffff1681526020016002820160009054906101000a900473ffffffffffffffffffffffffffffffffffffffff1673ffffffffffffffffffffffffffffffffffffffff1673ffffffffffffffffffffffffffffffffffffffff168152602001600382018054610c4590613c6a565b80601f0160208091040260200160405190810160405280929190818152602001828054610c7190613c6a565b8015610cbe5780601f10610c9357610100808354040283529160200191610cbe565b820191906000526020600020905b815481529060010190602001808311610ca157829003601f168201915b50505050508152602001600482015481526020016005820160009054906101000a900460ff161515151581526020016005820160019054906101000a900460ff161515151581525050838381518110610d40577f4e487b7100000000000000000000000000000000000000000000000000000000600052603260045260246000fd5b6020026020010181905250508080610d5790613c9c565b915050610a9a565b50610da06040518060400160405280600681526020017f6c656e6774680000000000000000000000000000000000000000000000000000815250825161264f565b80925050505b90565b60606000600360008473ffffffffffffffffffffffffffffffffffffffff1673ffffffffffffffffffffffffffffffffffffffff1681526020019081526020016000206000018054610dfa90613c6a565b80601f0160208091040260200160405190810160405280929190818152602001828054610e2690613c6a565b8015610e735780601f10610e4857610100808354040283529160200191610e73565b820191906000526020600020905b815481529060010190602001808311610e5657829003601f168201915b5050505050905080915050919050565b60008060009054906101000a900473ffffffffffffffffffffffffffffffffffffffff16905090565b6003602052806000526040600020600091509050806000018054610ecf90613c6a565b80601f0160208091040260200160405190810160405280929190818152602001828054610efb90613c6a565b8015610f485780601f10610f1d57610100808354040283529160200191610f48565b820191906000526020600020905b815481529060010190602001808311610f2b57829003601f168201915b5050505050908060010160009054906101000a900460ff16905082565b6000600b60003373ffffffffffffffffffffffffffffffffffffffff1673ffffffffffffffffffffffffffffffffffffffff16815260200190815260200160002060008673ffffffffffffffffffffffffffffffffffffffff1673ffffffffffffffffffffffffffffffffffffffff168152602001908152602001600020549050600081141561102a576040517f08c379a00000000000000000000000000000000000000000000000000000000081526004016110219061399a565b60405180910390fd5b60016002811115611064577f4e487b7100000000000000000000000000000000000000000000000000000000600052602160045260246000fd5b6005600083815260200190815260200160002060040160009054906101000a900460ff1660028111156110c0577f4e487b7100000000000000000000000000000000000000000000000000000000600052602160045260246000fd5b14611100576040517f08c379a00000000000000000000000000000000000000000000000000000000081526004016110f790613a1a565b60405180910390fd5b6000600160009054906101000a900473ffffffffffffffffffffffffffffffffffffffff1673ffffffffffffffffffffffffffffffffffffffff166370a08231336040518263ffffffff1660e01b815260040161115d9190613879565b60206040518083038186803b15801561117557600080fd5b505afa158015611189573d6000803e3d6000fd5b505050506040513d601f19601f820116820180604052508101906111ad9190613299565b9050828110156111f2576040517f08c379a00000000000000000000000000000000000000000000000000000000081526004016111e9906139da565b60405180910390fd5b60006040518060e001604052804281526020013373ffffffffffffffffffffffffffffffffffffffff1681526020018873ffffffffffffffffffffffffffffffffffffffff16815260200187878080601f016020809104026020016040519081016040528093929190818152602001838380828437600081840152601f19601f8201169050808301925050505050505081526020018581526020016000151581526020016001151581525090506112a881612784565b5050505050505050565b6002548310156112f7576040517f08c379a00000000000000000000000000000000000000000000000000000000081526004016112ee90613a7a565b60405180910390fd5b6000600160009054906101000a900473ffffffffffffffffffffffffffffffffffffffff1673ffffffffffffffffffffffffffffffffffffffff166370a08231336040518263ffffffff1660e01b81526004016113549190613879565b60206040518083038186803b15801561136c57600080fd5b505afa158015611380573d6000803e3d6000fd5b505050506040513d601f19601f820116820180604052508101906113a49190613299565b9050838110156113e9576040517f08c379a00000000000000000000000000000000000000000000000000000000081526004016113e0906139da565b60405180910390fd5b8473ffffffffffffffffffffffffffffffffffffffff163373ffffffffffffffffffffffffffffffffffffffff161415611458576040517f08c379a000000000000000000000000000000000000000000000000000000000815260040161144f9061395a565b60405180910390fd5b6000600960008773ffffffffffffffffffffffffffffffffffffffff1673ffffffffffffffffffffffffffffffffffffffff16815260200190815260200160002060003373ffffffffffffffffffffffffffffffffffffffff1673ffffffffffffffffffffffffffffffffffffffff1681526020019081526020016000205490506115186040518060400160405280600981526020017f72657175657374494400000000000000000000000000000000000000000000008152508261264f565b6000811461155b576040517f08c379a000000000000000000000000000000000000000000000000000000000815260040161155290613a9a565b60405180910390fd5b604051806040016040528085858080601f016020809104026020016040519081016040528093929190818152602001838380828437600081840152601f19601f82011690508083019250505050505050815260200160011515815250600360003373ffffffffffffffffffffffffffffffffffffffff1673ffffffffffffffffffffffffffffffffffffffff1681526020019081526020016000206000820151816000019080519060200190611612929190613144565b5060208201518160010160006101000a81548160ff02191690831515021790555090505060006040518060a001604052804281526020013373ffffffffffffffffffffffffffffffffffffffff1681526020018873ffffffffffffffffffffffffffffffffffffffff168152602001878152602001600060028111156116c1577f4e487b7100000000000000000000000000000000000000000000000000000000600052602160045260246000fd5b81525090506116d08782612c06565b5050505050505050565b60606000600660008473ffffffffffffffffffffffffffffffffffffffff1673ffffffffffffffffffffffffffffffffffffffff16815260200190815260200160002054905061175f6040518060400160405280601681526020017f726563657069656e74546f74616c5265717565737473000000000000000000008152508261264f565b60008114156117eb57600067ffffffffffffffff8111156117a9577f4e487b7100000000000000000000000000000000000000000000000000000000600052604160045260246000fd5b6040519080825280602002602001820160405280156117e257816020015b6117cf613044565b8152602001906001900390816117c75790505b50915050611b37565b60008167ffffffffffffffff81111561182d577f4e487b7100000000000000000000000000000000000000000000000000000000600052604160045260246000fd5b60405190808252806020026020018201604052801561186657816020015b611853613044565b81526020019060019003908161184b5790505b50905060005b82811015611af0576000600860008773ffffffffffffffffffffffffffffffffffffffff1673ffffffffffffffffffffffffffffffffffffffff16815260200190815260200160002060006001846118c49190613b74565b81526020019081526020016000205490506119146040518060400160405280600981526020017f72657175657374496400000000000000000000000000000000000000000000008152508261264f565b61193360056000838152602001908152602001600020600301546126eb565b600560008281526020019081526020016000206040518060a0016040529081600082015481526020016001820160009054906101000a900473ffffffffffffffffffffffffffffffffffffffff1673ffffffffffffffffffffffffffffffffffffffff1673ffffffffffffffffffffffffffffffffffffffff1681526020016002820160009054906101000a900473ffffffffffffffffffffffffffffffffffffffff1673ffffffffffffffffffffffffffffffffffffffff1673ffffffffffffffffffffffffffffffffffffffff168152602001600382015481526020016004820160009054906101000a900460ff166002811115611a5c577f4e487b7100000000000000000000000000000000000000000000000000000000600052602160045260246000fd5b6002811115611a94577f4e487b7100000000000000000000000000000000000000000000000000000000600052602160045260246000fd5b81525050838381518110611ad1577f4e487b7100000000000000000000000000000000000000000000000000000000600052603260045260246000fd5b6020026020010181905250508080611ae890613c9c565b91505061186c565b50611b316040518060400160405280600681526020017f6c656e6774680000000000000000000000000000000000000000000000000000815250825161264f565b80925050505b919050565b60606000600360008473ffffffffffffffffffffffffffffffffffffffff1673ffffffffffffffffffffffffffffffffffffffff1681526020019081526020016000206000018054611b8d90613c6a565b80601f0160208091040260200160405190810160405280929190818152602001828054611bb990613c6a565b8015611c065780601f10611bdb57610100808354040283529160200191611c06565b820191906000526020600020905b815481529060010190602001808311611be957829003601f168201915b5050505050905080915050919050565b600454831115611c5b576040517f08c379a0000000000000000000000000000000000000000000000000000000008152600401611c529061397a565b60405180910390fd5b60006005600085815260200190815260200160002090503373ffffffffffffffffffffffffffffffffffffffff168160020160009054906101000a900473ffffffffffffffffffffffffffffffffffffffff1673ffffffffffffffffffffffffffffffffffffffff1614611d04576040517f08c379a0000000000000000000000000000000000000000000000000000000008152600401611cfb906139fa565b60405180910390fd5b60006002811115611d3e577f4e487b7100000000000000000000000000000000000000000000000000000000600052602160045260246000fd5b8160040160009054906101000a900460ff166002811115611d88577f4e487b7100000000000000000000000000000000000000000000000000000000600052602160045260246000fd5b14611dc8576040517f08c379a0000000000000000000000000000000000000000000000000000000008152600401611dbf90613a5a565b60405180910390fd5b600360003373ffffffffffffffffffffffffffffffffffffffff1673ffffffffffffffffffffffffffffffffffffffff16815260200190815260200160002060010160009054906101000a900460ff16611ef857604051806040016040528084848080601f016020809104026020016040519081016040528093929190818152602001838380828437600081840152601f19601f82011690508083019250505050505050815260200160011515815250600360003373ffffffffffffffffffffffffffffffffffffffff1673ffffffffffffffffffffffffffffffffffffffff1681526020019081526020016000206000820151816000019080519060200190611ed3929190613144565b5060208201518160010160006101000a81548160ff0219169083151502179055509050505b60018160040160006101000a81548160ff02191690836002811115611f46577f4e487b7100000000000000000000000000000000000000000000000000000000600052602160045260246000fd5b021790555050505050565b611f59612583565b73ffffffffffffffffffffffffffffffffffffffff16611f77610e83565b73ffffffffffffffffffffffffffffffffffffffff1614611fcd576040517f08c379a0000000000000000000000000000000000000000000000000000000008152600401611fc490613a3a565b60405180910390fd5b600073ffffffffffffffffffffffffffffffffffffffff168173ffffffffffffffffffffffffffffffffffffffff16141561203d576040517f08c379a0000000000000000000000000000000000000000000000000000000008152600401612034906139ba565b60405180910390fd5b6120468161258b565b50565b60606000600e60003373ffffffffffffffffffffffffffffffffffffffff1673ffffffffffffffffffffffffffffffffffffffff1681526020019081526020016000205490506120ce6040518060400160405280601481526020017f746f74616c496e636f6d696e674c6574746572730000000000000000000000008152508261264f565b600081141561215a57600067ffffffffffffffff811115612118577f4e487b7100000000000000000000000000000000000000000000000000000000600052604160045260246000fd5b60405190808252806020026020018201604052801561215157816020015b61213e6130d7565b8152602001906001900390816121365790505b509150506124e7565b60008167ffffffffffffffff81111561219c577f4e487b7100000000000000000000000000000000000000000000000000000000600052604160045260246000fd5b6040519080825280602002602001820160405280156121d557816020015b6121c26130d7565b8152602001906001900390816121ba5790505b50905060005b828110156124a0576000601060003373ffffffffffffffffffffffffffffffffffffffff1673ffffffffffffffffffffffffffffffffffffffff16815260200190815260200160002060006001846122339190613b74565b81526020019081526020016000205490506122836040518060400160405280600881526020017f6c657474657249640000000000000000000000000000000000000000000000008152508261264f565b6122a2600d6000838152602001908152602001600020600001546126eb565b600d60008281526020019081526020016000206040518060e0016040529081600082015481526020016001820160009054906101000a900473ffffffffffffffffffffffffffffffffffffffff1673ffffffffffffffffffffffffffffffffffffffff1673ffffffffffffffffffffffffffffffffffffffff1681526020016002820160009054906101000a900473ffffffffffffffffffffffffffffffffffffffff1673ffffffffffffffffffffffffffffffffffffffff1673ffffffffffffffffffffffffffffffffffffffff16815260200160038201805461238690613c6a565b80601f01602080910402602001604051908101604052809291908181526020018280546123b290613c6a565b80156123ff5780601f106123d4576101008083540402835291602001916123ff565b820191906000526020600020905b8154815290600101906020018083116123e257829003601f168201915b50505050508152602001600482015481526020016005820160009054906101000a900460ff161515151581526020016005820160019054906101000a900460ff161515151581525050838381518110612481577f4e487b7100000000000000000000000000000000000000000000000000000000600052603260045260246000fd5b602002602001018190525050808061249890613c9c565b9150506121db565b506124e16040518060400160405280600681526020017f6c656e6774680000000000000000000000000000000000000000000000000000815250825161264f565b80925050505b90565b612580816040516024016124fe91906138d8565b6040516020818303038152906040527f41304fac000000000000000000000000000000000000000000000000000000007bffffffffffffffffffffffffffffffffffffffffffffffffffffffff19166020820180517bffffffffffffffffffffffffffffffffffffffffffffffffffffffff838183161783525050505061301b565b50565b600033905090565b60008060009054906101000a900473ffffffffffffffffffffffffffffffffffffffff169050816000806101000a81548173ffffffffffffffffffffffffffffffffffffffff021916908373ffffffffffffffffffffffffffffffffffffffff1602179055508173ffffffffffffffffffffffffffffffffffffffff168173ffffffffffffffffffffffffffffffffffffffff167f8be0079c531659141344cd1fd0a4f28419497f9722a3daafe3b4186f6b6457e060405160405180910390a35050565b6126e7828260405160240161266592919061392a565b6040516020818303038152906040527f9710a9d0000000000000000000000000000000000000000000000000000000007bffffffffffffffffffffffffffffffffffffffffffffffffffffffff19166020820180517bffffffffffffffffffffffffffffffffffffffffffffffffffffffff838183161783525050505061301b565b5050565b612781816040516024016126ff9190613aba565b6040516020818303038152906040527ff5b1bba9000000000000000000000000000000000000000000000000000000007bffffffffffffffffffffffffffffffffffffffffffffffffffffffff19166020820180517bffffffffffffffffffffffffffffffffffffffffffffffffffffffff838183161783525050505061301b565b50565b6000816040015190506127d06040518060400160405280601081526020017f6c65747465722074696d657374616d7000000000000000000000000000000000815250836000015161264f565b600c60008154809291906127e390613c9c565b919050555081600d6000600c5481526020019081526020016000206000820151816000015560208201518160010160006101000a81548173ffffffffffffffffffffffffffffffffffffffff021916908373ffffffffffffffffffffffffffffffffffffffff16021790555060408201518160020160006101000a81548173ffffffffffffffffffffffffffffffffffffffff021916908373ffffffffffffffffffffffffffffffffffffffff16021790555060608201518160030190805190602001906128b2929190613144565b506080820151816004015560a08201518160050160006101000a81548160ff02191690831515021790555060c08201518160050160016101000a81548160ff021916908315150217905550905050600e60008273ffffffffffffffffffffffffffffffffffffffff1673ffffffffffffffffffffffffffffffffffffffff168152602001908152602001600020600081548092919061295090613c9c565b9190505550600f60003373ffffffffffffffffffffffffffffffffffffffff1673ffffffffffffffffffffffffffffffffffffffff16815260200190815260200160002060008154809291906129a590613c9c565b91905055506129eb6040518060400160405280600c81526020017f746f74616c4c6574746572730000000000000000000000000000000000000000815250600c5461264f565b612a696040518060400160405280601881526020017f696e636f6d696e67546f74616c4c6574746572735b746f5d0000000000000000815250600e60008473ffffffffffffffffffffffffffffffffffffffff1673ffffffffffffffffffffffffffffffffffffffff1681526020019081526020016000205461264f565b612aca6040518060600160405280602181526020016140b960219139600f60003373ffffffffffffffffffffffffffffffffffffffff1673ffffffffffffffffffffffffffffffffffffffff1681526020019081526020016000205461264f565b6000600e60008373ffffffffffffffffffffffffffffffffffffffff1673ffffffffffffffffffffffffffffffffffffffff1681526020019081526020016000205490506000600f60003373ffffffffffffffffffffffffffffffffffffffff1673ffffffffffffffffffffffffffffffffffffffff168152602001908152602001600020549050600c54601060008573ffffffffffffffffffffffffffffffffffffffff1673ffffffffffffffffffffffffffffffffffffffff168152602001908152602001600020600083815260200190815260200160002081905550600c54601160003373ffffffffffffffffffffffffffffffffffffffff1673ffffffffffffffffffffffffffffffffffffffff16815260200190815260200160002060008481526020019081526020016000208190555050505050565b60046000815480929190612c1990613c9c565b9190505550806005600060045481526020019081526020016000206000820151816000015560208201518160010160006101000a81548173ffffffffffffffffffffffffffffffffffffffff021916908373ffffffffffffffffffffffffffffffffffffffff16021790555060408201518160020160006101000a81548173ffffffffffffffffffffffffffffffffffffffff021916908373ffffffffffffffffffffffffffffffffffffffff1602179055506060820151816003015560808201518160040160006101000a81548160ff02191690836002811115612d27577f4e487b7100000000000000000000000000000000000000000000000000000000600052602160045260246000fd5b0217905550905050600660008373ffffffffffffffffffffffffffffffffffffffff1673ffffffffffffffffffffffffffffffffffffffff1681526020019081526020016000206000815480929190612d7f90613c9c565b9190505550600760003373ffffffffffffffffffffffffffffffffffffffff1673ffffffffffffffffffffffffffffffffffffffff1681526020019081526020016000206000815480929190612dd490613c9c565b91905055506000600660008473ffffffffffffffffffffffffffffffffffffffff1673ffffffffffffffffffffffffffffffffffffffff1681526020019081526020016000205490506000600760003373ffffffffffffffffffffffffffffffffffffffff1673ffffffffffffffffffffffffffffffffffffffff168152602001908152602001600020549050600454600860008673ffffffffffffffffffffffffffffffffffffffff1673ffffffffffffffffffffffffffffffffffffffff168152602001908152602001600020600084815260200190815260200160002081905550600454600960008673ffffffffffffffffffffffffffffffffffffffff1673ffffffffffffffffffffffffffffffffffffffff16815260200190815260200160002060003373ffffffffffffffffffffffffffffffffffffffff1673ffffffffffffffffffffffffffffffffffffffff16815260200190815260200160002081905550600454600a60003373ffffffffffffffffffffffffffffffffffffffff1673ffffffffffffffffffffffffffffffffffffffff168152602001908152602001600020600083815260200190815260200160002081905550600454600b60003373ffffffffffffffffffffffffffffffffffffffff1673ffffffffffffffffffffffffffffffffffffffff16815260200190815260200160002060008673ffffffffffffffffffffffffffffffffffffffff1673ffffffffffffffffffffffffffffffffffffffff1681526020019081526020016000208190555050505050565b60008151905060006a636f6e736f6c652e6c6f679050602083016000808483855afa5050505050565b6040518060a0016040528060008152602001600073ffffffffffffffffffffffffffffffffffffffff168152602001600073ffffffffffffffffffffffffffffffffffffffff16815260200160008152602001600060028111156130d1577f4e487b7100000000000000000000000000000000000000000000000000000000600052602160045260246000fd5b81525090565b6040518060e0016040528060008152602001600073ffffffffffffffffffffffffffffffffffffffff168152602001600073ffffffffffffffffffffffffffffffffffffffff16815260200160608152602001600081526020016000151581526020016000151581525090565b82805461315090613c6a565b90600052602060002090601f01602090048101928261317257600085556131b9565b82601f1061318b57805160ff19168380011785556131b9565b828001600101855582156131b9579182015b828111156131b857825182559160200191906001019061319d565b5b5090506131c691906131ca565b5090565b5b808211156131e35760008160009055506001016131cb565b5090565b6000813590506131f68161408a565b92915050565b60008083601f84011261320e57600080fd5b8235905067ffffffffffffffff81111561322757600080fd5b60208301915083600182028301111561323f57600080fd5b9250929050565b600081359050613255816140a1565b92915050565b60008151905061326a816140a1565b92915050565b60006020828403121561328257600080fd5b6000613290848285016131e7565b91505092915050565b6000602082840312156132ab57600080fd5b60006132b98482850161325b565b91505092915050565b6000806000806000608086880312156132da57600080fd5b60006132e888828901613246565b95505060206132f9888289016131e7565b945050604086013567ffffffffffffffff81111561331657600080fd5b613322888289016131fc565b9350935050606061333588828901613246565b9150509295509295909350565b60008060008060006080868803121561335a57600080fd5b600061336888828901613246565b9550506020613379888289016131e7565b945050604061338a88828901613246565b935050606086013567ffffffffffffffff8111156133a757600080fd5b6133b3888289016131fc565b92509250509295509295909350565b6000806000604084860312156133d757600080fd5b60006133e586828701613246565b935050602084013567ffffffffffffffff81111561340257600080fd5b61340e868287016131fc565b92509250509250925092565b60006134268383613757565b905092915050565b600061343a83836137f3565b60a08301905092915050565b61344f81613bca565b82525050565b61345e81613bca565b82525050565b600061346f82613af5565b6134798185613b30565b93508360208202850161348b85613ad5565b8060005b858110156134c757848403895281516134a8858261341a565b94506134b383613b16565b925060208a0199505060018101905061348f565b50829750879550505050505092915050565b60006134e482613b00565b6134ee8185613b41565b93506134f983613ae5565b8060005b8381101561352a578151613511888261342e565b975061351c83613b23565b9250506001810190506134fd565b5085935050505092915050565b61354081613bdc565b82525050565b61354f81613bdc565b82525050565b61355e81613c25565b82525050565b600061356f82613b0b565b6135798185613b52565b9350613589818560208601613c37565b61359281613d72565b840191505092915050565b60006135a882613b0b565b6135b28185613b63565b93506135c2818560208601613c37565b6135cb81613d72565b840191505092915050565b60006135e3602383613b63565b91506135ee82613d83565b604082019050919050565b6000613606601583613b63565b915061361182613dd2565b602082019050919050565b6000613629602783613b63565b915061363482613dfb565b604082019050919050565b600061364c602683613b63565b915061365782613e4a565b604082019050919050565b600061366f603983613b63565b915061367a82613e99565b604082019050919050565b6000613692601b83613b63565b915061369d82613ee8565b602082019050919050565b60006136b5602b83613b63565b91506136c082613f11565b604082019050919050565b60006136d8602083613b63565b91506136e382613f60565b602082019050919050565b60006136fb602d83613b63565b915061370682613f89565b604082019050919050565b600061371e602383613b63565b915061372982613fd8565b604082019050919050565b6000613741602783613b63565b915061374c82614027565b604082019050919050565b600060e08301600083015161376f600086018261385b565b5060208301516137826020860182613446565b5060408301516137956040860182613446565b50606083015184820360608601526137ad8282613564565b91505060808301516137c2608086018261385b565b5060a08301516137d560a0860182613537565b5060c08301516137e860c0860182613537565b508091505092915050565b60a082016000820151613809600085018261385b565b50602082015161381c6020850182613446565b50604082015161382f6040850182613446565b506060820151613842606085018261385b565b5060808201516138556080850182613555565b50505050565b61386481613c1b565b82525050565b61387381613c1b565b82525050565b600060208201905061388e6000830184613455565b92915050565b600060208201905081810360008301526138ae8184613464565b905092915050565b600060208201905081810360008301526138d081846134d9565b905092915050565b600060208201905081810360008301526138f2818461359d565b905092915050565b60006040820190508181036000830152613914818561359d565b90506139236020830184613546565b9392505050565b60006040820190508181036000830152613944818561359d565b9050613953602083018461386a565b9392505050565b60006020820190508181036000830152613973816135d6565b9050919050565b60006020820190508181036000830152613993816135f9565b9050919050565b600060208201905081810360008301526139b38161361c565b9050919050565b600060208201905081810360008301526139d38161363f565b9050919050565b600060208201905081810360008301526139f381613662565b9050919050565b60006020820190508181036000830152613a1381613685565b9050919050565b60006020820190508181036000830152613a33816136a8565b9050919050565b60006020820190508181036000830152613a53816136cb565b9050919050565b60006020820190508181036000830152613a73816136ee565b9050919050565b60006020820190508181036000830152613a9381613711565b9050919050565b60006020820190508181036000830152613ab381613734565b9050919050565b6000602082019050613acf600083018461386a565b92915050565b6000819050602082019050919050565b6000819050602082019050919050565b600081519050919050565b600081519050919050565b600081519050919050565b6000602082019050919050565b6000602082019050919050565b600082825260208201905092915050565b600082825260208201905092915050565b600082825260208201905092915050565b600082825260208201905092915050565b6000613b7f82613c1b565b9150613b8a83613c1b565b9250827fffffffffffffffffffffffffffffffffffffffffffffffffffffffffffffffff03821115613bbf57613bbe613ce5565b5b828201905092915050565b6000613bd582613bfb565b9050919050565b60008115159050919050565b6000819050613bf682614076565b919050565b600073ffffffffffffffffffffffffffffffffffffffff82169050919050565b6000819050919050565b6000613c3082613be8565b9050919050565b60005b83811015613c55578082015181840152602081019050613c3a565b83811115613c64576000848401525b50505050565b60006002820490506001821680613c8257607f821691505b60208210811415613c9657613c95613d43565b5b50919050565b6000613ca782613c1b565b91507fffffffffffffffffffffffffffffffffffffffffffffffffffffffffffffffff821415613cda57613cd9613ce5565b5b600182019050919050565b7f4e487b7100000000000000000000000000000000000000000000000000000000600052601160045260246000fd5b7f4e487b7100000000000000000000000000000000000000000000000000000000600052602160045260246000fd5b7f4e487b7100000000000000000000000000000000000000000000000000000000600052602260045260246000fd5b6000601f19601f8301169050919050565b7f596f752063616e206e6f742073656e64207265717565737420746f20796f757360008201527f656c660000000000000000000000000000000000000000000000000000000000602082015250565b7f5265717565737420646f65736e27742065786973740000000000000000000000600082015250565b7f596f752068617665206e6f74207265717565737465642074686973206164647260008201527f6573732079657400000000000000000000000000000000000000000000000000602082015250565b7f4f776e61626c653a206e6577206f776e657220697320746865207a65726f206160008201527f6464726573730000000000000000000000000000000000000000000000000000602082015250565b7f596f752068617665206e6f7420656e6f756768207374616d707320696e20796f60008201527f752077616c6c65742c20627579206d6f7265206f6e2044455800000000000000602082015250565b7f546869732072657175657374206973206e6f7420666f7220796f750000000000600082015250565b7f526563657069656e7420686173206e6f7420616363657074656420796f75722060008201527f7265717565737420796574000000000000000000000000000000000000000000602082015250565b7f4f776e61626c653a2063616c6c6572206973206e6f7420746865206f776e6572600082015250565b7f5265717565737420686173206265656e20616c7265616479206163636570746560008201527f64206f72206465636c696e656400000000000000000000000000000000000000602082015250565b7f4174746163686564207374616d707320636f756e74206973206e6f7420656e6f60008201527f7567680000000000000000000000000000000000000000000000000000000000602082015250565b7f596f75206861766520616c72656164792072657175657374656420746869732060008201527f6164647265737300000000000000000000000000000000000000000000000000602082015250565b6003811061408757614086613d14565b5b50565b61409381613bca565b811461409e57600080fd5b50565b6140aa81613c1b565b81146140b557600080fd5b5056fe6f7574636f6d696e67546f74616c4c6574746572735b6d73672e73656e6465725da26469706673582212208fc0c41fce09cdb095a11ce721dd910d0e3ea7696da68d077c8609ea924b10a064736f6c63430008040033",
  "linkReferences": {},
  "deployedLinkReferences": {}
}