{
  "_format": "hh-sol-artifact-1",
  "contractName": "Stampost",
  "sourceName": "contracts/Stampost.sol",
  "abi": [
    {
      "inputs": [],
      "stateMutability": "nonpayable",
      "type": "constructor"
    },
    {
      "anonymous": false,
      "inputs": [
        {
          "indexed": true,
          "internalType": "address",
          "name": "previousOwner",
          "type": "address"
        },
        {
          "indexed": true,
          "internalType": "address",
          "name": "newOwner",
          "type": "address"
        }
      ],
      "name": "OwnershipTransferred",
      "type": "event"
    },
    {
      "inputs": [
        {
          "internalType": "uint256",
          "name": "requestId",
          "type": "uint256"
        },
        {
          "internalType": "bytes32",
          "name": "publicKey",
          "type": "bytes32"
        }
      ],
      "name": "acceptPublicKeyRequest",
      "outputs": [],
      "stateMutability": "nonpayable",
      "type": "function"
    },
    {
      "inputs": [
        {
          "internalType": "address",
          "name": "user",
          "type": "address"
        }
      ],
      "name": "getAcceptedPublicKey",
      "outputs": [
        {
          "internalType": "bytes32",
          "name": "",
          "type": "bytes32"
        }
      ],
      "stateMutability": "view",
      "type": "function"
    },
    {
      "inputs": [
        {
          "internalType": "uint256",
          "name": "letterId",
          "type": "uint256"
        }
      ],
      "name": "getMail",
      "outputs": [
        {
          "components": [
            {
              "internalType": "uint256",
              "name": "id",
              "type": "uint256"
            },
            {
              "internalType": "uint256",
              "name": "timestamp",
              "type": "uint256"
            },
            {
              "internalType": "address",
              "name": "from",
              "type": "address"
            },
            {
              "internalType": "address",
              "name": "to",
              "type": "address"
            },
            {
              "internalType": "bytes",
              "name": "message",
              "type": "bytes"
            },
            {
              "internalType": "uint256",
              "name": "stamps",
              "type": "uint256"
            },
            {
              "internalType": "bool",
              "name": "opened",
              "type": "bool"
            },
            {
              "internalType": "bool",
              "name": "isSet",
              "type": "bool"
            }
          ],
          "internalType": "struct Stampost.Letter",
          "name": "letter",
          "type": "tuple"
        }
      ],
      "stateMutability": "view",
      "type": "function"
    },
    {
      "inputs": [],
      "name": "getOutcomingRequests",
      "outputs": [
        {
          "components": [
            {
              "internalType": "uint256",
              "name": "id",
              "type": "uint256"
            },
            {
              "internalType": "uint256",
              "name": "timestamp",
              "type": "uint256"
            },
            {
              "internalType": "address",
              "name": "from",
              "type": "address"
            },
            {
              "internalType": "address",
              "name": "to",
              "type": "address"
            },
            {
              "internalType": "uint256",
              "name": "stamps",
              "type": "uint256"
            },
            {
              "internalType": "enum Stampost.PublicKeyRequestStatus",
              "name": "status",
              "type": "uint8"
            },
            {
              "internalType": "string",
              "name": "message",
              "type": "string"
            }
          ],
          "internalType": "struct Stampost.PublicKeyRequest[]",
          "name": "",
          "type": "tuple[]"
        }
      ],
      "stateMutability": "view",
      "type": "function"
    },
    {
      "inputs": [
        {
          "internalType": "address",
          "name": "user",
          "type": "address"
        }
      ],
      "name": "getPublicKey",
      "outputs": [
        {
          "internalType": "bytes32",
          "name": "",
          "type": "bytes32"
        }
      ],
      "stateMutability": "view",
      "type": "function"
    },
    {
      "inputs": [
        {
          "internalType": "address",
          "name": "_recepient",
          "type": "address"
        }
      ],
      "name": "getRequestsForAddress",
      "outputs": [
        {
          "components": [
            {
              "internalType": "uint256",
              "name": "id",
              "type": "uint256"
            },
            {
              "internalType": "uint256",
              "name": "timestamp",
              "type": "uint256"
            },
            {
              "internalType": "address",
              "name": "from",
              "type": "address"
            },
            {
              "internalType": "address",
              "name": "to",
              "type": "address"
            },
            {
              "internalType": "uint256",
              "name": "stamps",
              "type": "uint256"
            },
            {
              "internalType": "enum Stampost.PublicKeyRequestStatus",
              "name": "status",
              "type": "uint8"
            },
            {
              "internalType": "string",
              "name": "message",
              "type": "string"
            }
          ],
          "internalType": "struct Stampost.PublicKeyRequest[]",
          "name": "",
          "type": "tuple[]"
        }
      ],
      "stateMutability": "view",
      "type": "function"
    },
    {
      "inputs": [],
      "name": "getStampTokenAddress",
      "outputs": [
        {
          "internalType": "address",
          "name": "",
          "type": "address"
        }
      ],
      "stateMutability": "view",
      "type": "function"
    },
    {
      "inputs": [],
      "name": "incomingMail",
      "outputs": [
        {
          "components": [
            {
              "internalType": "uint256",
              "name": "id",
              "type": "uint256"
            },
            {
              "internalType": "uint256",
              "name": "timestamp",
              "type": "uint256"
            },
            {
              "internalType": "address",
              "name": "from",
              "type": "address"
            },
            {
              "internalType": "address",
              "name": "to",
              "type": "address"
            },
            {
              "internalType": "bytes",
              "name": "message",
              "type": "bytes"
            },
            {
              "internalType": "uint256",
              "name": "stamps",
              "type": "uint256"
            },
            {
              "internalType": "bool",
              "name": "opened",
              "type": "bool"
            },
            {
              "internalType": "bool",
              "name": "isSet",
              "type": "bool"
            }
          ],
          "internalType": "struct Stampost.Letter[]",
          "name": "incomingLetters",
          "type": "tuple[]"
        }
      ],
      "stateMutability": "view",
      "type": "function"
    },
    {
      "inputs": [
        {
          "internalType": "uint256",
          "name": "letterId",
          "type": "uint256"
        }
      ],
      "name": "markAsOpened",
      "outputs": [
        {
          "components": [
            {
              "internalType": "uint256",
              "name": "id",
              "type": "uint256"
            },
            {
              "internalType": "uint256",
              "name": "timestamp",
              "type": "uint256"
            },
            {
              "internalType": "address",
              "name": "from",
              "type": "address"
            },
            {
              "internalType": "address",
              "name": "to",
              "type": "address"
            },
            {
              "internalType": "bytes",
              "name": "message",
              "type": "bytes"
            },
            {
              "internalType": "uint256",
              "name": "stamps",
              "type": "uint256"
            },
            {
              "internalType": "bool",
              "name": "opened",
              "type": "bool"
            },
            {
              "internalType": "bool",
              "name": "isSet",
              "type": "bool"
            }
          ],
          "internalType": "struct Stampost.Letter",
          "name": "letter",
          "type": "tuple"
        }
      ],
      "stateMutability": "nonpayable",
      "type": "function"
    },
    {
      "inputs": [],
      "name": "outcomingMail",
      "outputs": [
        {
          "components": [
            {
              "internalType": "uint256",
              "name": "id",
              "type": "uint256"
            },
            {
              "internalType": "uint256",
              "name": "timestamp",
              "type": "uint256"
            },
            {
              "internalType": "address",
              "name": "from",
              "type": "address"
            },
            {
              "internalType": "address",
              "name": "to",
              "type": "address"
            },
            {
              "internalType": "bytes",
              "name": "message",
              "type": "bytes"
            },
            {
              "internalType": "uint256",
              "name": "stamps",
              "type": "uint256"
            },
            {
              "internalType": "bool",
              "name": "opened",
              "type": "bool"
            },
            {
              "internalType": "bool",
              "name": "isSet",
              "type": "bool"
            }
          ],
          "internalType": "struct Stampost.Letter[]",
          "name": "outcomingLetters",
          "type": "tuple[]"
        }
      ],
      "stateMutability": "view",
      "type": "function"
    },
    {
      "inputs": [],
      "name": "owner",
      "outputs": [
        {
          "internalType": "address",
          "name": "",
          "type": "address"
        }
      ],
      "stateMutability": "view",
      "type": "function"
    },
    {
      "inputs": [
        {
          "internalType": "address",
          "name": "",
          "type": "address"
        }
      ],
      "name": "publicKeys",
      "outputs": [
        {
          "internalType": "bytes32",
          "name": "key",
          "type": "bytes32"
        },
        {
          "internalType": "bool",
          "name": "isSet",
          "type": "bool"
        }
      ],
      "stateMutability": "view",
      "type": "function"
    },
    {
      "inputs": [],
      "name": "renounceOwnership",
      "outputs": [],
      "stateMutability": "nonpayable",
      "type": "function"
    },
    {
      "inputs": [
        {
          "internalType": "uint256",
          "name": "_chainId",
          "type": "uint256"
        },
        {
          "internalType": "address",
          "name": "_recepient",
          "type": "address"
        },
        {
          "internalType": "uint256",
          "name": "_stamps",
          "type": "uint256"
        },
        {
          "internalType": "bytes32",
          "name": "_publicKey",
          "type": "bytes32"
        },
        {
          "internalType": "string",
          "name": "message",
          "type": "string"
        }
      ],
      "name": "requestPublicKey",
      "outputs": [],
      "stateMutability": "nonpayable",
      "type": "function"
    },
    {
      "inputs": [
        {
          "internalType": "uint256",
          "name": "chainId",
          "type": "uint256"
        },
        {
          "internalType": "address",
          "name": "_recepient",
          "type": "address"
        },
        {
          "internalType": "bytes",
          "name": "_message",
          "type": "bytes"
        },
        {
          "internalType": "uint256",
          "name": "_stamps",
          "type": "uint256"
        }
      ],
      "name": "sendMail",
      "outputs": [],
      "stateMutability": "nonpayable",
      "type": "function"
    },
    {
      "inputs": [
        {
          "internalType": "address",
          "name": "_stamp_token_address",
          "type": "address"
        }
      ],
      "name": "setStampToken",
      "outputs": [],
      "stateMutability": "nonpayable",
      "type": "function"
    },
    {
      "inputs": [],
      "name": "stamp_token_address",
      "outputs": [
        {
          "internalType": "address",
          "name": "",
          "type": "address"
        }
      ],
      "stateMutability": "view",
      "type": "function"
    },
    {
      "inputs": [
        {
          "internalType": "address",
          "name": "newOwner",
          "type": "address"
        }
      ],
      "name": "transferOwnership",
      "outputs": [],
      "stateMutability": "nonpayable",
      "type": "function"
    }
  ],
  "bytecode": "0x60806040526729a2241af62c00006002553480156200001d57600080fd5b506200003e620000326200008f60201b60201c565b6200009760201b60201c565b620000896040518060400160405280600b81526020017f636f6e7374727563746f720000000000000000000000000000000000000000008152506200015b60201b62002c521760201c565b620002ef565b600033905090565b60008060009054906101000a900473ffffffffffffffffffffffffffffffffffffffff169050816000806101000a81548173ffffffffffffffffffffffffffffffffffffffff021916908373ffffffffffffffffffffffffffffffffffffffff1602179055508173ffffffffffffffffffffffffffffffffffffffff168173ffffffffffffffffffffffffffffffffffffffff167f8be0079c531659141344cd1fd0a4f28419497f9722a3daafe3b4186f6b6457e060405160405180910390a35050565b620001fb8160405160240162000172919062000268565b6040516020818303038152906040527f41304fac000000000000000000000000000000000000000000000000000000007bffffffffffffffffffffffffffffffffffffffffffffffffffffffff19166020820180517bffffffffffffffffffffffffffffffffffffffffffffffffffffffff8381831617835250505050620001fe60201b60201c565b50565b60008151905060006a636f6e736f6c652e6c6f679050602083016000808483855afa5050505050565b600062000234826200028c565b62000240818562000297565b935062000252818560208601620002a8565b6200025d81620002de565b840191505092915050565b6000602082019050818103600083015262000284818462000227565b905092915050565b600081519050919050565b600082825260208201905092915050565b60005b83811015620002c8578082015181840152602081019050620002ab565b83811115620002d8576000848401525b50505050565b6000601f19601f8301169050919050565b614d3380620002ff6000396000f3fe608060405234801561001057600080fd5b50600436106101165760003560e01c8063857cdbb8116100a2578063dcec3ec811610071578063dcec3ec8146102d0578063de4e1c5514610300578063ec35a87d14610330578063f2fde38b1461034c578063f813d4371461036857610116565b8063857cdbb8146102215780638da5cb5b14610251578063a3d6f9a91461026f578063dcc53305146102a057610116565b80635b6c623b116100e95780635b6c623b146101a35780635cfcafae146101bf578063715018a6146101db5780637fd33fd2146101e55780638551f9d51461020357610116565b8063239b9d2a1461011b578063471c606f1461014b5780634f0483ea14610167578063522e170914610185575b600080fd5b61013560048036038101906101309190613bae565b610386565b604051610142919061462d565b60405180910390f35b61016560048036038101906101609190613c80565b6106a2565b005b61016f610b6f565b60405161017c9190614346565b60405180910390f35b61018d610b95565b60405161019a9190614346565b60405180910390f35b6101bd60048036038101906101b89190613c00565b610bbf565b005b6101d960048036038101906101d49190613b85565b610fb2565b005b6101e3611072565b005b6101ed6110fa565b6040516101fa91906143ba565b60405180910390f35b61020b6115f6565b6040516102189190614398565b60405180910390f35b61023b60048036038101906102369190613b85565b611aa2565b60405161024891906143f7565b60405180910390f35b610259611af3565b6040516102669190614346565b60405180910390f35b61028960048036038101906102849190613b85565b611b1c565b604051610297929190614412565b60405180910390f35b6102ba60048036038101906102b59190613bae565b611b4d565b6040516102c7919061462d565b60405180910390f35b6102ea60048036038101906102e59190613b85565b611dc3565b6040516102f791906143ba565b60405180910390f35b61031a60048036038101906103159190613b85565b6122c1565b60405161032791906143f7565b60405180910390f35b61034a60048036038101906103459190613d12565b612312565b005b61036660048036038101906103619190613b85565b6126ae565b005b6103706127a6565b60405161037d9190614398565b60405180910390f35b61038e61385e565b600d60008381526020019081526020016000206040518061010001604052908160008201548152602001600182015481526020016002820160009054906101000a900473ffffffffffffffffffffffffffffffffffffffff1673ffffffffffffffffffffffffffffffffffffffff1673ffffffffffffffffffffffffffffffffffffffff1681526020016003820160009054906101000a900473ffffffffffffffffffffffffffffffffffffffff1673ffffffffffffffffffffffffffffffffffffffff1673ffffffffffffffffffffffffffffffffffffffff16815260200160048201805461047d90614825565b80601f01602080910402602001604051908101604052809291908181526020018280546104a990614825565b80156104f65780601f106104cb576101008083540402835291602001916104f6565b820191906000526020600020905b8154815290600101906020018083116104d957829003601f168201915b50505050508152602001600582015481526020016006820160009054906101000a900460ff161515151581526020016006820160019054906101000a900460ff161515151581525050905061054e8160e00151612ceb565b8060e00151610592576040517f08c379a00000000000000000000000000000000000000000000000000000000081526004016105899061450d565b60405180910390fd5b3373ffffffffffffffffffffffffffffffffffffffff16816060015173ffffffffffffffffffffffffffffffffffffffff1614610604576040517f08c379a00000000000000000000000000000000000000000000000000000000081526004016105fb9061452d565b60405180910390fd5b600160009054906101000a900473ffffffffffffffffffffffffffffffffffffffff1673ffffffffffffffffffffffffffffffffffffffff166359508f8f8260400151338460a001516040518463ffffffff1660e01b815260040161066b93929190614361565b600060405180830381600087803b15801561068557600080fd5b505af1158015610699573d6000803e3d6000fd5b50505050919050565b6002548410156106e7576040517f08c379a00000000000000000000000000000000000000000000000000000000081526004016106de906145ed565b60405180910390fd5b6000600160009054906101000a900473ffffffffffffffffffffffffffffffffffffffff1673ffffffffffffffffffffffffffffffffffffffff166370a08231336040518263ffffffff1660e01b81526004016107449190614346565b60206040518083038186803b15801561075c57600080fd5b505afa158015610770573d6000803e3d6000fd5b505050506040513d601f19601f820116820180604052508101906107949190613bd7565b9050848110156107d9576040517f08c379a00000000000000000000000000000000000000000000000000000000081526004016107d09061454d565b60405180910390fd5b8573ffffffffffffffffffffffffffffffffffffffff163373ffffffffffffffffffffffffffffffffffffffff161415610848576040517f08c379a000000000000000000000000000000000000000000000000000000000815260040161083f9061448d565b60405180910390fd5b6000600960008873ffffffffffffffffffffffffffffffffffffffff1673ffffffffffffffffffffffffffffffffffffffff16815260200190815260200160002060003373ffffffffffffffffffffffffffffffffffffffff1673ffffffffffffffffffffffffffffffffffffffff1681526020019081526020016000205490506109086040518060400160405280600981526020017f726571756573744944000000000000000000000000000000000000000000000081525082612d84565b6000811461094b576040517f08c379a00000000000000000000000000000000000000000000000000000000081526004016109429061460d565b60405180910390fd5b604051806040016040528086815260200160011515815250600360003373ffffffffffffffffffffffffffffffffffffffff1673ffffffffffffffffffffffffffffffffffffffff1681526020019081526020016000206000820151816000015560208201518160010160006101000a81548160ff021916908315150217905550905050600460008154809291906109e290614857565b919050555060006040518060e0016040528060045481526020014281526020013373ffffffffffffffffffffffffffffffffffffffff1681526020018973ffffffffffffffffffffffffffffffffffffffff16815260200188815260200160006002811115610a7a577f4e487b7100000000000000000000000000000000000000000000000000000000600052602160045260246000fd5b815260200186868080601f016020809104026020016040519081016040528093929190818152602001838380828437600081840152601f19601f820116905080830192505050505050508152509050610ad38882612e20565b600160009054906101000a900473ffffffffffffffffffffffffffffffffffffffff1673ffffffffffffffffffffffffffffffffffffffff16637750c9f0338a8a6040518463ffffffff1660e01b8152600401610b3293929190614361565b600060405180830381600087803b158015610b4c57600080fd5b505af1158015610b60573d6000803e3d6000fd5b50505050505050505050505050565b600160009054906101000a900473ffffffffffffffffffffffffffffffffffffffff1681565b6000600160009054906101000a900473ffffffffffffffffffffffffffffffffffffffff16905090565b6000600b60003373ffffffffffffffffffffffffffffffffffffffff1673ffffffffffffffffffffffffffffffffffffffff16815260200190815260200160002060008673ffffffffffffffffffffffffffffffffffffffff1673ffffffffffffffffffffffffffffffffffffffff1681526020019081526020016000205490506000811415610c84576040517f08c379a0000000000000000000000000000000000000000000000000000000008152600401610c7b906144cd565b60405180910390fd5b60016002811115610cbe577f4e487b7100000000000000000000000000000000000000000000000000000000600052602160045260246000fd5b6005600083815260200190815260200160002060050160009054906101000a900460ff166002811115610d1a577f4e487b7100000000000000000000000000000000000000000000000000000000600052602160045260246000fd5b14610d5a576040517f08c379a0000000000000000000000000000000000000000000000000000000008152600401610d519061458d565b60405180910390fd5b6000600160009054906101000a900473ffffffffffffffffffffffffffffffffffffffff1673ffffffffffffffffffffffffffffffffffffffff166370a08231336040518263ffffffff1660e01b8152600401610db79190614346565b60206040518083038186803b158015610dcf57600080fd5b505afa158015610de3573d6000803e3d6000fd5b505050506040513d601f19601f82011682018060405250810190610e079190613bd7565b905082811015610e4c576040517f08c379a0000000000000000000000000000000000000000000000000000000008152600401610e439061454d565b60405180910390fd5b60006040518061010001604052806001600c54610e699190614725565b81526020014281526020013373ffffffffffffffffffffffffffffffffffffffff1681526020018873ffffffffffffffffffffffffffffffffffffffff16815260200187878080601f016020809104026020016040519081016040528093929190818152602001838380828437600081840152601f19601f820116905080830192505050505050508152602001858152602001600015158152602001600115158152509050610f1781613244565b600160009054906101000a900473ffffffffffffffffffffffffffffffffffffffff1673ffffffffffffffffffffffffffffffffffffffff16637750c9f03389876040518463ffffffff1660e01b8152600401610f7693929190614361565b600060405180830381600087803b158015610f9057600080fd5b505af1158015610fa4573d6000803e3d6000fd5b505050505050505050505050565b610fba6136d0565b73ffffffffffffffffffffffffffffffffffffffff16610fd8611af3565b73ffffffffffffffffffffffffffffffffffffffff161461102e576040517f08c379a0000000000000000000000000000000000000000000000000000000008152600401611025906145ad565b60405180910390fd5b80600160006101000a81548173ffffffffffffffffffffffffffffffffffffffff021916908373ffffffffffffffffffffffffffffffffffffffff16021790555050565b61107a6136d0565b73ffffffffffffffffffffffffffffffffffffffff16611098611af3565b73ffffffffffffffffffffffffffffffffffffffff16146110ee576040517f08c379a00000000000000000000000000000000000000000000000000000000081526004016110e5906145ad565b60405180910390fd5b6110f860006136d8565b565b60606000600760003373ffffffffffffffffffffffffffffffffffffffff1673ffffffffffffffffffffffffffffffffffffffff16815260200190815260200160002054905061117f6040518060400160405280601881526020017f73656e646572546f74616c5265717565737473436f756e74000000000000000081525082612d84565b600081141561120b57600067ffffffffffffffff8111156111c9577f4e487b7100000000000000000000000000000000000000000000000000000000600052604160045260246000fd5b60405190808252806020026020018201604052801561120257816020015b6111ef6138d3565b8152602001906001900390816111e75790505b509150506115f3565b60008167ffffffffffffffff81111561124d577f4e487b7100000000000000000000000000000000000000000000000000000000600052604160045260246000fd5b60405190808252806020026020018201604052801561128657816020015b6112736138d3565b81526020019060019003908161126b5790505b50905060005b828110156115ac576000600a60003373ffffffffffffffffffffffffffffffffffffffff1673ffffffffffffffffffffffffffffffffffffffff16815260200190815260200160002060006001846112e49190614725565b81526020019081526020016000205490506113346040518060400160405280600981526020017f726571756573744964000000000000000000000000000000000000000000000081525082612d84565b611353600560008381526020019081526020016000206004015461379c565b600560008281526020019081526020016000206040518060e001604052908160008201548152602001600182015481526020016002820160009054906101000a900473ffffffffffffffffffffffffffffffffffffffff1673ffffffffffffffffffffffffffffffffffffffff1673ffffffffffffffffffffffffffffffffffffffff1681526020016003820160009054906101000a900473ffffffffffffffffffffffffffffffffffffffff1673ffffffffffffffffffffffffffffffffffffffff1673ffffffffffffffffffffffffffffffffffffffff168152602001600482015481526020016005820160009054906101000a900460ff166002811115611486577f4e487b7100000000000000000000000000000000000000000000000000000000600052602160045260246000fd5b60028111156114be577f4e487b7100000000000000000000000000000000000000000000000000000000600052602160045260246000fd5b81526020016006820180546114d290614825565b80601f01602080910402602001604051908101604052809291908181526020018280546114fe90614825565b801561154b5780601f106115205761010080835404028352916020019161154b565b820191906000526020600020905b81548152906001019060200180831161152e57829003601f168201915b50505050508152505083838151811061158d577f4e487b7100000000000000000000000000000000000000000000000000000000600052603260045260246000fd5b60200260200101819052505080806115a490614857565b91505061128c565b506115ed6040518060400160405280600e81526020017f726573756c742e6c656e677468200000000000000000000000000000000000008152508251612d84565b80925050505b90565b60606000600f60003373ffffffffffffffffffffffffffffffffffffffff1673ffffffffffffffffffffffffffffffffffffffff16815260200190815260200160002054905061167b6040518060400160405280601581526020017f746f74616c4f7574636f6d696e674c657474657273000000000000000000000081525082612d84565b600081141561170757600067ffffffffffffffff8111156116c5577f4e487b7100000000000000000000000000000000000000000000000000000000600052604160045260246000fd5b6040519080825280602002602001820160405280156116fe57816020015b6116eb61385e565b8152602001906001900390816116e35790505b50915050611a9f565b60008167ffffffffffffffff811115611749577f4e487b7100000000000000000000000000000000000000000000000000000000600052604160045260246000fd5b60405190808252806020026020018201604052801561178257816020015b61176f61385e565b8152602001906001900390816117675790505b50905060005b82811015611a58576000601160003373ffffffffffffffffffffffffffffffffffffffff1673ffffffffffffffffffffffffffffffffffffffff16815260200190815260200160002060006001846117e09190614725565b81526020019081526020016000205490506118306040518060400160405280600881526020017f6c6574746572496400000000000000000000000000000000000000000000000081525082612d84565b61184f600d60008381526020019081526020016000206001015461379c565b600d60008281526020019081526020016000206040518061010001604052908160008201548152602001600182015481526020016002820160009054906101000a900473ffffffffffffffffffffffffffffffffffffffff1673ffffffffffffffffffffffffffffffffffffffff1673ffffffffffffffffffffffffffffffffffffffff1681526020016003820160009054906101000a900473ffffffffffffffffffffffffffffffffffffffff1673ffffffffffffffffffffffffffffffffffffffff1673ffffffffffffffffffffffffffffffffffffffff16815260200160048201805461193e90614825565b80601f016020809104026020016040519081016040528092919081815260200182805461196a90614825565b80156119b75780601f1061198c576101008083540402835291602001916119b7565b820191906000526020600020905b81548152906001019060200180831161199a57829003601f168201915b50505050508152602001600582015481526020016006820160009054906101000a900460ff161515151581526020016006820160019054906101000a900460ff161515151581525050838381518110611a39577f4e487b7100000000000000000000000000000000000000000000000000000000600052603260045260246000fd5b6020026020010181905250508080611a5090614857565b915050611788565b50611a996040518060400160405280600681526020017f6c656e67746800000000000000000000000000000000000000000000000000008152508251612d84565b80925050505b90565b600080600360008473ffffffffffffffffffffffffffffffffffffffff1673ffffffffffffffffffffffffffffffffffffffff16815260200190815260200160002060000154905080915050919050565b60008060009054906101000a900473ffffffffffffffffffffffffffffffffffffffff16905090565b60036020528060005260406000206000915090508060000154908060010160009054906101000a900460ff16905082565b611b5561385e565b600d60008381526020019081526020016000206040518061010001604052908160008201548152602001600182015481526020016002820160009054906101000a900473ffffffffffffffffffffffffffffffffffffffff1673ffffffffffffffffffffffffffffffffffffffff1673ffffffffffffffffffffffffffffffffffffffff1681526020016003820160009054906101000a900473ffffffffffffffffffffffffffffffffffffffff1673ffffffffffffffffffffffffffffffffffffffff1673ffffffffffffffffffffffffffffffffffffffff168152602001600482018054611c4490614825565b80601f0160208091040260200160405190810160405280929190818152602001828054611c7090614825565b8015611cbd5780601f10611c9257610100808354040283529160200191611cbd565b820191906000526020600020905b815481529060010190602001808311611ca057829003601f168201915b50505050508152602001600582015481526020016006820160009054906101000a900460ff161515151581526020016006820160019054906101000a900460ff16151515158152505090508060e00151611d4c576040517f08c379a0000000000000000000000000000000000000000000000000000000008152600401611d439061450d565b60405180910390fd5b3373ffffffffffffffffffffffffffffffffffffffff16816060015173ffffffffffffffffffffffffffffffffffffffff1614611dbe576040517f08c379a0000000000000000000000000000000000000000000000000000000008152600401611db59061452d565b60405180910390fd5b919050565b60606000600660008473ffffffffffffffffffffffffffffffffffffffff1673ffffffffffffffffffffffffffffffffffffffff168152602001908152602001600020549050611e486040518060400160405280601681526020017f726563657069656e74546f74616c52657175657374730000000000000000000081525082612d84565b6000811415611ed457600067ffffffffffffffff811115611e92577f4e487b7100000000000000000000000000000000000000000000000000000000600052604160045260246000fd5b604051908082528060200260200182016040528015611ecb57816020015b611eb86138d3565b815260200190600190039081611eb05790505b509150506122bc565b60008167ffffffffffffffff811115611f16577f4e487b7100000000000000000000000000000000000000000000000000000000600052604160045260246000fd5b604051908082528060200260200182016040528015611f4f57816020015b611f3c6138d3565b815260200190600190039081611f345790505b50905060005b82811015612275576000600860008773ffffffffffffffffffffffffffffffffffffffff1673ffffffffffffffffffffffffffffffffffffffff1681526020019081526020016000206000600184611fad9190614725565b8152602001908152602001600020549050611ffd6040518060400160405280600981526020017f726571756573744964000000000000000000000000000000000000000000000081525082612d84565b61201c600560008381526020019081526020016000206004015461379c565b600560008281526020019081526020016000206040518060e001604052908160008201548152602001600182015481526020016002820160009054906101000a900473ffffffffffffffffffffffffffffffffffffffff1673ffffffffffffffffffffffffffffffffffffffff1673ffffffffffffffffffffffffffffffffffffffff1681526020016003820160009054906101000a900473ffffffffffffffffffffffffffffffffffffffff1673ffffffffffffffffffffffffffffffffffffffff1673ffffffffffffffffffffffffffffffffffffffff168152602001600482015481526020016005820160009054906101000a900460ff16600281111561214f577f4e487b7100000000000000000000000000000000000000000000000000000000600052602160045260246000fd5b6002811115612187577f4e487b7100000000000000000000000000000000000000000000000000000000600052602160045260246000fd5b815260200160068201805461219b90614825565b80601f01602080910402602001604051908101604052809291908181526020018280546121c790614825565b80156122145780601f106121e957610100808354040283529160200191612214565b820191906000526020600020905b8154815290600101906020018083116121f757829003601f168201915b505050505081525050838381518110612256577f4e487b7100000000000000000000000000000000000000000000000000000000600052603260045260246000fd5b602002602001018190525050808061226d90614857565b915050611f55565b506122b66040518060400160405280600d81526020017f6c656e67746820726573756c74000000000000000000000000000000000000008152508251612d84565b80925050505b919050565b600080600360008473ffffffffffffffffffffffffffffffffffffffff1673ffffffffffffffffffffffffffffffffffffffff16815260200190815260200160002060000154905080915050919050565b600454821115612357576040517f08c379a000000000000000000000000000000000000000000000000000000000815260040161234e906144ad565b60405180910390fd5b60006005600084815260200190815260200160002090503373ffffffffffffffffffffffffffffffffffffffff168160030160009054906101000a900473ffffffffffffffffffffffffffffffffffffffff1673ffffffffffffffffffffffffffffffffffffffff1614612400576040517f08c379a00000000000000000000000000000000000000000000000000000000081526004016123f79061456d565b60405180910390fd5b6000600281111561243a577f4e487b7100000000000000000000000000000000000000000000000000000000600052602160045260246000fd5b8160050160009054906101000a900460ff166002811115612484577f4e487b7100000000000000000000000000000000000000000000000000000000600052602160045260246000fd5b146124c4576040517f08c379a00000000000000000000000000000000000000000000000000000000081526004016124bb906145cd565b60405180910390fd5b600360003373ffffffffffffffffffffffffffffffffffffffff1673ffffffffffffffffffffffffffffffffffffffff16815260200190815260200160002060010160009054906101000a900460ff1661259d57604051806040016040528083815260200160011515815250600360003373ffffffffffffffffffffffffffffffffffffffff1673ffffffffffffffffffffffffffffffffffffffff1681526020019081526020016000206000820151816000015560208201518160010160006101000a81548160ff0219169083151502179055509050505b60018160050160006101000a81548160ff021916908360028111156125eb577f4e487b7100000000000000000000000000000000000000000000000000000000600052602160045260246000fd5b0217905550600160009054906101000a900473ffffffffffffffffffffffffffffffffffffffff1673ffffffffffffffffffffffffffffffffffffffff166359508f8f8260020160009054906101000a900473ffffffffffffffffffffffffffffffffffffffff163384600401546040518463ffffffff1660e01b815260040161267793929190614361565b600060405180830381600087803b15801561269157600080fd5b505af11580156126a5573d6000803e3d6000fd5b50505050505050565b6126b66136d0565b73ffffffffffffffffffffffffffffffffffffffff166126d4611af3565b73ffffffffffffffffffffffffffffffffffffffff161461272a576040517f08c379a0000000000000000000000000000000000000000000000000000000008152600401612721906145ad565b60405180910390fd5b600073ffffffffffffffffffffffffffffffffffffffff168173ffffffffffffffffffffffffffffffffffffffff16141561279a576040517f08c379a0000000000000000000000000000000000000000000000000000000008152600401612791906144ed565b60405180910390fd5b6127a3816136d8565b50565b60606000600e60003373ffffffffffffffffffffffffffffffffffffffff1673ffffffffffffffffffffffffffffffffffffffff16815260200190815260200160002054905061282b6040518060400160405280601481526020017f746f74616c496e636f6d696e674c65747465727300000000000000000000000081525082612d84565b60008114156128b757600067ffffffffffffffff811115612875577f4e487b7100000000000000000000000000000000000000000000000000000000600052604160045260246000fd5b6040519080825280602002602001820160405280156128ae57816020015b61289b61385e565b8152602001906001900390816128935790505b50915050612c4f565b60008167ffffffffffffffff8111156128f9577f4e487b7100000000000000000000000000000000000000000000000000000000600052604160045260246000fd5b60405190808252806020026020018201604052801561293257816020015b61291f61385e565b8152602001906001900390816129175790505b50905060005b82811015612c08576000601060003373ffffffffffffffffffffffffffffffffffffffff1673ffffffffffffffffffffffffffffffffffffffff16815260200190815260200160002060006001846129909190614725565b81526020019081526020016000205490506129e06040518060400160405280600881526020017f6c6574746572496400000000000000000000000000000000000000000000000081525082612d84565b6129ff600d60008381526020019081526020016000206001015461379c565b600d60008281526020019081526020016000206040518061010001604052908160008201548152602001600182015481526020016002820160009054906101000a900473ffffffffffffffffffffffffffffffffffffffff1673ffffffffffffffffffffffffffffffffffffffff1673ffffffffffffffffffffffffffffffffffffffff1681526020016003820160009054906101000a900473ffffffffffffffffffffffffffffffffffffffff1673ffffffffffffffffffffffffffffffffffffffff1673ffffffffffffffffffffffffffffffffffffffff168152602001600482018054612aee90614825565b80601f0160208091040260200160405190810160405280929190818152602001828054612b1a90614825565b8015612b675780601f10612b3c57610100808354040283529160200191612b67565b820191906000526020600020905b815481529060010190602001808311612b4a57829003601f168201915b50505050508152602001600582015481526020016006820160009054906101000a900460ff161515151581526020016006820160019054906101000a900460ff161515151581525050838381518110612be9577f4e487b7100000000000000000000000000000000000000000000000000000000600052603260045260246000fd5b6020026020010181905250508080612c0090614857565b915050612938565b50612c496040518060400160405280600681526020017f6c656e67746800000000000000000000000000000000000000000000000000008152508251612d84565b80925050505b90565b612ce881604051602401612c66919061443b565b6040516020818303038152906040527f41304fac000000000000000000000000000000000000000000000000000000007bffffffffffffffffffffffffffffffffffffffffffffffffffffffff19166020820180517bffffffffffffffffffffffffffffffffffffffffffffffffffffffff8381831617835250505050613835565b50565b612d8181604051602401612cff91906143dc565b6040516020818303038152906040527f32458eed000000000000000000000000000000000000000000000000000000007bffffffffffffffffffffffffffffffffffffffffffffffffffffffff19166020820180517bffffffffffffffffffffffffffffffffffffffffffffffffffffffff8381831617835250505050613835565b50565b612e1c8282604051602401612d9a92919061445d565b6040516020818303038152906040527f9710a9d0000000000000000000000000000000000000000000000000000000007bffffffffffffffffffffffffffffffffffffffffffffffffffffffff19166020820180517bffffffffffffffffffffffffffffffffffffffffffffffffffffffff8381831617835250505050613835565b5050565b80600560006004548152602001908152602001600020600082015181600001556020820151816001015560408201518160020160006101000a81548173ffffffffffffffffffffffffffffffffffffffff021916908373ffffffffffffffffffffffffffffffffffffffff16021790555060608201518160030160006101000a81548173ffffffffffffffffffffffffffffffffffffffff021916908373ffffffffffffffffffffffffffffffffffffffff1602179055506080820151816004015560a08201518160050160006101000a81548160ff02191690836002811115612f33577f4e487b7100000000000000000000000000000000000000000000000000000000600052602160045260246000fd5b021790555060c0820151816006019080519060200190612f54929190613974565b50905050600660008373ffffffffffffffffffffffffffffffffffffffff1673ffffffffffffffffffffffffffffffffffffffff1681526020019081526020016000206000815480929190612fa890614857565b9190505550600760003373ffffffffffffffffffffffffffffffffffffffff1673ffffffffffffffffffffffffffffffffffffffff1681526020019081526020016000206000815480929190612ffd90614857565b91905055506000600660008473ffffffffffffffffffffffffffffffffffffffff1673ffffffffffffffffffffffffffffffffffffffff1681526020019081526020016000205490506000600760003373ffffffffffffffffffffffffffffffffffffffff1673ffffffffffffffffffffffffffffffffffffffff168152602001908152602001600020549050600454600860008673ffffffffffffffffffffffffffffffffffffffff1673ffffffffffffffffffffffffffffffffffffffff168152602001908152602001600020600084815260200190815260200160002081905550600454600960008673ffffffffffffffffffffffffffffffffffffffff1673ffffffffffffffffffffffffffffffffffffffff16815260200190815260200160002060003373ffffffffffffffffffffffffffffffffffffffff1673ffffffffffffffffffffffffffffffffffffffff16815260200190815260200160002081905550600454600a60003373ffffffffffffffffffffffffffffffffffffffff1673ffffffffffffffffffffffffffffffffffffffff168152602001908152602001600020600083815260200190815260200160002081905550600454600b60003373ffffffffffffffffffffffffffffffffffffffff1673ffffffffffffffffffffffffffffffffffffffff16815260200190815260200160002060008673ffffffffffffffffffffffffffffffffffffffff1673ffffffffffffffffffffffffffffffffffffffff1681526020019081526020016000208190555050505050565b6000816060015190506132906040518060400160405280601081526020017f6c65747465722074696d657374616d70000000000000000000000000000000008152508360200151612d84565b600c60008154809291906132a390614857565b919050555081600d6000600c548152602001908152602001600020600082015181600001556020820151816001015560408201518160020160006101000a81548173ffffffffffffffffffffffffffffffffffffffff021916908373ffffffffffffffffffffffffffffffffffffffff16021790555060608201518160030160006101000a81548173ffffffffffffffffffffffffffffffffffffffff021916908373ffffffffffffffffffffffffffffffffffffffff160217905550608082015181600401908051906020019061337c9291906139fa565b5060a0820151816005015560c08201518160060160006101000a81548160ff02191690831515021790555060e08201518160060160016101000a81548160ff021916908315150217905550905050600e60008273ffffffffffffffffffffffffffffffffffffffff1673ffffffffffffffffffffffffffffffffffffffff168152602001908152602001600020600081548092919061341a90614857565b9190505550600f60003373ffffffffffffffffffffffffffffffffffffffff1673ffffffffffffffffffffffffffffffffffffffff168152602001908152602001600020600081548092919061346f90614857565b91905055506134b56040518060400160405280600c81526020017f746f74616c4c6574746572730000000000000000000000000000000000000000815250600c54612d84565b6135336040518060400160405280601881526020017f696e636f6d696e67546f74616c4c6574746572735b746f5d0000000000000000815250600e60008473ffffffffffffffffffffffffffffffffffffffff1673ffffffffffffffffffffffffffffffffffffffff16815260200190815260200160002054612d84565b613594604051806060016040528060218152602001614cdd60219139600f60003373ffffffffffffffffffffffffffffffffffffffff1673ffffffffffffffffffffffffffffffffffffffff16815260200190815260200160002054612d84565b6000600e60008373ffffffffffffffffffffffffffffffffffffffff1673ffffffffffffffffffffffffffffffffffffffff1681526020019081526020016000205490506000600f60003373ffffffffffffffffffffffffffffffffffffffff1673ffffffffffffffffffffffffffffffffffffffff168152602001908152602001600020549050600c54601060008573ffffffffffffffffffffffffffffffffffffffff1673ffffffffffffffffffffffffffffffffffffffff168152602001908152602001600020600083815260200190815260200160002081905550600c54601160003373ffffffffffffffffffffffffffffffffffffffff1673ffffffffffffffffffffffffffffffffffffffff16815260200190815260200160002060008481526020019081526020016000208190555050505050565b600033905090565b60008060009054906101000a900473ffffffffffffffffffffffffffffffffffffffff169050816000806101000a81548173ffffffffffffffffffffffffffffffffffffffff021916908373ffffffffffffffffffffffffffffffffffffffff1602179055508173ffffffffffffffffffffffffffffffffffffffff168173ffffffffffffffffffffffffffffffffffffffff167f8be0079c531659141344cd1fd0a4f28419497f9722a3daafe3b4186f6b6457e060405160405180910390a35050565b613832816040516024016137b0919061464f565b6040516020818303038152906040527ff5b1bba9000000000000000000000000000000000000000000000000000000007bffffffffffffffffffffffffffffffffffffffffffffffffffffffff19166020820180517bffffffffffffffffffffffffffffffffffffffffffffffffffffffff8381831617835250505050613835565b50565b60008151905060006a636f6e736f6c652e6c6f679050602083016000808483855afa5050505050565b6040518061010001604052806000815260200160008152602001600073ffffffffffffffffffffffffffffffffffffffff168152602001600073ffffffffffffffffffffffffffffffffffffffff16815260200160608152602001600081526020016000151581526020016000151581525090565b6040518060e001604052806000815260200160008152602001600073ffffffffffffffffffffffffffffffffffffffff168152602001600073ffffffffffffffffffffffffffffffffffffffff1681526020016000815260200160006002811115613967577f4e487b7100000000000000000000000000000000000000000000000000000000600052602160045260246000fd5b8152602001606081525090565b82805461398090614825565b90600052602060002090601f0160209004810192826139a257600085556139e9565b82601f106139bb57805160ff19168380011785556139e9565b828001600101855582156139e9579182015b828111156139e85782518255916020019190600101906139cd565b5b5090506139f69190613a80565b5090565b828054613a0690614825565b90600052602060002090601f016020900481019282613a285760008555613a6f565b82601f10613a4157805160ff1916838001178555613a6f565b82800160010185558215613a6f579182015b82811115613a6e578251825591602001919060010190613a53565b5b509050613a7c9190613a80565b5090565b5b80821115613a99576000816000905550600101613a81565b5090565b600081359050613aac81614c97565b92915050565b600081359050613ac181614cae565b92915050565b60008083601f840112613ad957600080fd5b8235905067ffffffffffffffff811115613af257600080fd5b602083019150836001820283011115613b0a57600080fd5b9250929050565b60008083601f840112613b2357600080fd5b8235905067ffffffffffffffff811115613b3c57600080fd5b602083019150836001820283011115613b5457600080fd5b9250929050565b600081359050613b6a81614cc5565b92915050565b600081519050613b7f81614cc5565b92915050565b600060208284031215613b9757600080fd5b6000613ba584828501613a9d565b91505092915050565b600060208284031215613bc057600080fd5b6000613bce84828501613b5b565b91505092915050565b600060208284031215613be957600080fd5b6000613bf784828501613b70565b91505092915050565b600080600080600060808688031215613c1857600080fd5b6000613c2688828901613b5b565b9550506020613c3788828901613a9d565b945050604086013567ffffffffffffffff811115613c5457600080fd5b613c6088828901613ac7565b93509350506060613c7388828901613b5b565b9150509295509295909350565b60008060008060008060a08789031215613c9957600080fd5b6000613ca789828a01613b5b565b9650506020613cb889828a01613a9d565b9550506040613cc989828a01613b5b565b9450506060613cda89828a01613ab2565b935050608087013567ffffffffffffffff811115613cf757600080fd5b613d0389828a01613b11565b92509250509295509295509295565b60008060408385031215613d2557600080fd5b6000613d3385828601613b5b565b9250506020613d4485828601613ab2565b9150509250929050565b6000613d5a838361412c565b905092915050565b6000613d6e838361428c565b905092915050565b613d7f8161477b565b82525050565b613d8e8161477b565b82525050565b6000613d9f8261468a565b613da981856146d0565b935083602082028501613dbb8561466a565b8060005b85811015613df75784840389528151613dd88582613d4e565b9450613de3836146b6565b925060208a01995050600181019050613dbf565b50829750879550505050505092915050565b6000613e1482614695565b613e1e81856146e1565b935083602082028501613e308561467a565b8060005b85811015613e6c5784840389528151613e4d8582613d62565b9450613e58836146c3565b925060208a01995050600181019050613e34565b50829750879550505050505092915050565b613e878161478d565b82525050565b613e968161478d565b82525050565b613ea581614799565b82525050565b6000613eb6826146a0565b613ec081856146f2565b9350613ed08185602086016147f2565b613ed98161492d565b840191505092915050565b613eed816147e0565b82525050565b6000613efe826146ab565b613f088185614703565b9350613f188185602086016147f2565b613f218161492d565b840191505092915050565b6000613f37826146ab565b613f418185614714565b9350613f518185602086016147f2565b613f5a8161492d565b840191505092915050565b6000613f72602383614714565b9150613f7d8261493e565b604082019050919050565b6000613f95601583614714565b9150613fa08261498d565b602082019050919050565b6000613fb8602783614714565b9150613fc3826149b6565b604082019050919050565b6000613fdb602683614714565b9150613fe682614a05565b604082019050919050565b6000613ffe601683614714565b915061400982614a54565b602082019050919050565b6000614021600f83614714565b915061402c82614a7d565b602082019050919050565b6000614044603983614714565b915061404f82614aa6565b604082019050919050565b6000614067601b83614714565b915061407282614af5565b602082019050919050565b600061408a602b83614714565b915061409582614b1e565b604082019050919050565b60006140ad602083614714565b91506140b882614b6d565b602082019050919050565b60006140d0602d83614714565b91506140db82614b96565b604082019050919050565b60006140f3602383614714565b91506140fe82614be5565b604082019050919050565b6000614116602783614714565b915061412182614c34565b604082019050919050565b6000610100830160008301516141456000860182614328565b5060208301516141586020860182614328565b50604083015161416b6040860182613d76565b50606083015161417e6060860182613d76565b50608083015184820360808601526141968282613eab565b91505060a08301516141ab60a0860182614328565b5060c08301516141be60c0860182613e7e565b5060e08301516141d160e0860182613e7e565b508091505092915050565b6000610100830160008301516141f56000860182614328565b5060208301516142086020860182614328565b50604083015161421b6040860182613d76565b50606083015161422e6060860182613d76565b50608083015184820360808601526142468282613eab565b91505060a083015161425b60a0860182614328565b5060c083015161426e60c0860182613e7e565b5060e083015161428160e0860182613e7e565b508091505092915050565b600060e0830160008301516142a46000860182614328565b5060208301516142b76020860182614328565b5060408301516142ca6040860182613d76565b5060608301516142dd6060860182613d76565b5060808301516142f06080860182614328565b5060a083015161430360a0860182613ee4565b5060c083015184820360c086015261431b8282613ef3565b9150508091505092915050565b614331816147d6565b82525050565b614340816147d6565b82525050565b600060208201905061435b6000830184613d85565b92915050565b60006060820190506143766000830186613d85565b6143836020830185613d85565b6143906040830184614337565b949350505050565b600060208201905081810360008301526143b28184613d94565b905092915050565b600060208201905081810360008301526143d48184613e09565b905092915050565b60006020820190506143f16000830184613e8d565b92915050565b600060208201905061440c6000830184613e9c565b92915050565b60006040820190506144276000830185613e9c565b6144346020830184613e8d565b9392505050565b600060208201905081810360008301526144558184613f2c565b905092915050565b600060408201905081810360008301526144778185613f2c565b90506144866020830184614337565b9392505050565b600060208201905081810360008301526144a681613f65565b9050919050565b600060208201905081810360008301526144c681613f88565b9050919050565b600060208201905081810360008301526144e681613fab565b9050919050565b6000602082019050818103600083015261450681613fce565b9050919050565b6000602082019050818103600083015261452681613ff1565b9050919050565b6000602082019050818103600083015261454681614014565b9050919050565b6000602082019050818103600083015261456681614037565b9050919050565b600060208201905081810360008301526145868161405a565b9050919050565b600060208201905081810360008301526145a68161407d565b9050919050565b600060208201905081810360008301526145c6816140a0565b9050919050565b600060208201905081810360008301526145e6816140c3565b9050919050565b60006020820190508181036000830152614606816140e6565b9050919050565b6000602082019050818103600083015261462681614109565b9050919050565b6000602082019050818103600083015261464781846141dc565b905092915050565b60006020820190506146646000830184614337565b92915050565b6000819050602082019050919050565b6000819050602082019050919050565b600081519050919050565b600081519050919050565b600081519050919050565b600081519050919050565b6000602082019050919050565b6000602082019050919050565b600082825260208201905092915050565b600082825260208201905092915050565b600082825260208201905092915050565b600082825260208201905092915050565b600082825260208201905092915050565b6000614730826147d6565b915061473b836147d6565b9250827fffffffffffffffffffffffffffffffffffffffffffffffffffffffffffffffff038211156147705761476f6148a0565b5b828201905092915050565b6000614786826147b6565b9050919050565b60008115159050919050565b6000819050919050565b60008190506147b182614c83565b919050565b600073ffffffffffffffffffffffffffffffffffffffff82169050919050565b6000819050919050565b60006147eb826147a3565b9050919050565b60005b838110156148105780820151818401526020810190506147f5565b8381111561481f576000848401525b50505050565b6000600282049050600182168061483d57607f821691505b60208210811415614851576148506148fe565b5b50919050565b6000614862826147d6565b91507fffffffffffffffffffffffffffffffffffffffffffffffffffffffffffffffff821415614895576148946148a0565b5b600182019050919050565b7f4e487b7100000000000000000000000000000000000000000000000000000000600052601160045260246000fd5b7f4e487b7100000000000000000000000000000000000000000000000000000000600052602160045260246000fd5b7f4e487b7100000000000000000000000000000000000000000000000000000000600052602260045260246000fd5b6000601f19601f8301169050919050565b7f596f752063616e206e6f742073656e64207265717565737420746f20796f757360008201527f656c660000000000000000000000000000000000000000000000000000000000602082015250565b7f5265717565737420646f65736e27742065786973740000000000000000000000600082015250565b7f596f752068617665206e6f74207265717565737465642074686973206164647260008201527f6573732079657400000000000000000000000000000000000000000000000000602082015250565b7f4f776e61626c653a206e6577206f776e657220697320746865207a65726f206160008201527f6464726573730000000000000000000000000000000000000000000000000000602082015250565b7f4e6f206c65747465722077697468207468697320696400000000000000000000600082015250565b7f4e6f7420796f7572206c65747465720000000000000000000000000000000000600082015250565b7f596f752068617665206e6f7420656e6f756768207374616d707320696e20796f60008201527f752077616c6c65742c20627579206d6f7265206f6e2044455800000000000000602082015250565b7f546869732072657175657374206973206e6f7420666f7220796f750000000000600082015250565b7f526563657069656e7420686173206e6f7420616363657074656420796f75722060008201527f7265717565737420796574000000000000000000000000000000000000000000602082015250565b7f4f776e61626c653a2063616c6c6572206973206e6f7420746865206f776e6572600082015250565b7f5265717565737420686173206265656e20616c7265616479206163636570746560008201527f64206f72206465636c696e656400000000000000000000000000000000000000602082015250565b7f4174746163686564207374616d707320636f756e74206973206e6f7420656e6f60008201527f7567680000000000000000000000000000000000000000000000000000000000602082015250565b7f596f75206861766520616c72656164792072657175657374656420746869732060008201527f6164647265737300000000000000000000000000000000000000000000000000602082015250565b60038110614c9457614c936148cf565b5b50565b614ca08161477b565b8114614cab57600080fd5b50565b614cb781614799565b8114614cc257600080fd5b50565b614cce816147d6565b8114614cd957600080fd5b5056fe6f7574636f6d696e67546f74616c4c6574746572735b6d73672e73656e6465725da2646970667358221220c52ed4b01e1cd2b367587c8bd56aff9db4aae13538c4127f7f689fd32edba00b64736f6c63430008040033",
  "linkReferences": {},
  "deployedLinkReferences": {}
}