{
  "_format": "hh-sol-artifact-1",
  "contractName": "Verifier",
  "sourceName": "contracts/Verifier.sol",
  "abi": [
    {
      "inputs": [
        {
          "internalType": "string",
          "name": "message",
          "type": "string"
        },
        {
          "internalType": "uint8",
          "name": "v",
          "type": "uint8"
        },
        {
          "internalType": "bytes32",
          "name": "r",
          "type": "bytes32"
        },
        {
          "internalType": "bytes32",
          "name": "s",
          "type": "bytes32"
        }
      ],
      "name": "completeMission",
      "outputs": [
        {
          "internalType": "address",
          "name": "signer",
          "type": "address"
        }
      ],
      "stateMutability": "pure",
      "type": "function"
    }
  ],
  "bytecode": "0x608060405234801561001057600080fd5b50610790806100206000396000f3fe608060405234801561001057600080fd5b506004361061002b5760003560e01c80631342b8fa14610030575b600080fd5b61004a600480360381019061004591906102a1565b610060565b604051610057919061039e565b60405180910390f35b6000806040518060400160405280602081526020017f19457468657265756d205369676e6564204d6573736167653a0a303030303030815250905060008087519050603983019150620f423f8111156100b857600080fd5b600080620186a090505b6000811461015e57600081846100d891906104c0565b9050600081141561010257600083141561010157600a826100f991906104c0565b9150506100c2565b5b828061010d90610645565b935050818161011c91906104f1565b84610127919061054b565b9350600a8261013691906104c0565b9150603081610145919061046a565b9050848061015290610645565b955050808553506100c2565b600082141561017057601b9150610180565b601a8261017d919061046a565b91505b8185526000858b60405160200161019892919061037a565b6040516020818303038152906040528051906020012090506001818b8b8b604051600081526020016040526040516101d394939291906103b9565b6020604051602081039080840390855afa1580156101f5573d6000803e3d6000fd5b505050602060405103519650505050505050949350505050565b600061022261021d84610423565b6103fe565b90508281526020810184848401111561023a57600080fd5b6102458482856105d2565b509392505050565b60008135905061025c8161072c565b92915050565b600082601f83011261027357600080fd5b813561028384826020860161020f565b91505092915050565b60008135905061029b81610743565b92915050565b600080600080608085870312156102b757600080fd5b600085013567ffffffffffffffff8111156102d157600080fd5b6102dd87828801610262565b94505060206102ee8782880161028c565b93505060406102ff8782880161024d565b92505060606103108782880161024d565b91505092959194509250565b6103258161057f565b82525050565b61033481610591565b82525050565b600061034582610454565b61034f818561045f565b935061035f8185602086016105e1565b80840191505092915050565b610374816105c5565b82525050565b6000610386828561033a565b9150610392828461033a565b91508190509392505050565b60006020820190506103b3600083018461031c565b92915050565b60006080820190506103ce600083018761032b565b6103db602083018661036b565b6103e8604083018561032b565b6103f5606083018461032b565b95945050505050565b6000610408610419565b90506104148282610614565b919050565b6000604051905090565b600067ffffffffffffffff82111561043e5761043d6106ec565b5b6104478261071b565b9050602081019050919050565b600081519050919050565b600081905092915050565b6000610475826105bb565b9150610480836105bb565b9250827fffffffffffffffffffffffffffffffffffffffffffffffffffffffffffffffff038211156104b5576104b461068e565b5b828201905092915050565b60006104cb826105bb565b91506104d6836105bb565b9250826104e6576104e56106bd565b5b828204905092915050565b60006104fc826105bb565b9150610507836105bb565b9250817fffffffffffffffffffffffffffffffffffffffffffffffffffffffffffffffff04831182151516156105405761053f61068e565b5b828202905092915050565b6000610556826105bb565b9150610561836105bb565b9250828210156105745761057361068e565b5b828203905092915050565b600061058a8261059b565b9050919050565b6000819050919050565b600073ffffffffffffffffffffffffffffffffffffffff82169050919050565b6000819050919050565b600060ff82169050919050565b82818337600083830152505050565b60005b838110156105ff5780820151818401526020810190506105e4565b8381111561060e576000848401525b50505050565b61061d8261071b565b810181811067ffffffffffffffff8211171561063c5761063b6106ec565b5b80604052505050565b6000610650826105bb565b91507fffffffffffffffffffffffffffffffffffffffffffffffffffffffffffffffff8214156106835761068261068e565b5b600182019050919050565b7f4e487b7100000000000000000000000000000000000000000000000000000000600052601160045260246000fd5b7f4e487b7100000000000000000000000000000000000000000000000000000000600052601260045260246000fd5b7f4e487b7100000000000000000000000000000000000000000000000000000000600052604160045260246000fd5b6000601f19601f8301169050919050565b61073581610591565b811461074057600080fd5b50565b61074c816105c5565b811461075757600080fd5b5056fea264697066735822122039780d49cf00cb85c10e58974975023f6782603d09cf62cbf4405eca8599d61364736f6c63430008040033",
  "linkReferences": {},
  "deployedLinkReferences": {}
}